:020000040800F2
:1000000020080024390300083169000869670008E6
:100010002969000841040008C174000800000000BC
:10002000000000000000000000000000616F0008F8
:10003000710A000800000000A9690008C16F0008EB
:100040005303000853030008530300085303000838
:100050005303000853030008530300085303000828
:10006000530300085303000853030008F904000871
:100070005303000853030008530300085303000808
:1000800053030008530300085303000853030008F8
:1000900053030008530300085303000853030008E8
:1000A00053030008530300085303000853030008D8
:1000B00053030008530300085303000853030008C8
:1000C00053030008530300085303000853030008B8
:1000D00053030008530300085303000853030008A8
:1000E000790A0008530300080000000053030008C9
:1000F0005303000853030008530300085303000888
:10010000530300085303000853030008516D00080F
:100110005303000853030008530300085303000867
:100120005303000853030008530300085303000857
:100130005303000853030008530300085303000847
:1001400000000000000000000000000000000000AF
:100150005303000853030008530300085303000827
:100160005303000853030008530300085303000817
:100170005303000853030008530300080000000065
:1001800053030008530300085303000853030008F7
:1001900053030008530300085303000853030008E7
:1001A00053030008530300085303000853030008D7
:1001B00053030008530300085303000853030008C7
:1001C00053030008530300085303000853030008B7
:1001D00053030008530300085303000853030008A7
:1001E0005303000853030008530300085303000897
:1001F0005303000853030008530300085303000887
:100200005303000853030008530300085303000876
:100210005303000853030008530300085303000866
:1002200053030008530300085303000800000000B4
:1002300053030008530300080000000053030008A4
:100240005303000853030008530300085303000836
:100250005303000853030008530300085303000826
:100260005303000853030008530300085303000816
:100270005303000853030008530300080000000064
:100280005303000853030008530300080000000054
:10029000000000005303000800F002F800F03CF8F2
:1002A0000AA090E8000C82448344AAF10107DA45D1
:1002B00001D100F031F8AFF2090EBAE80F0013F0E7
:1002C000010F18BFFB1A43F001031847B88D000057
:1002D000D88D0000103A24BF78C878C1FAD85207E8
:1002E00024BF30C830C144BF04680C6070470000B0
:1002F0000023002400250026103A28BF78C1FBD82F
:10030000520728BF30C148BF0B6070471FB507F0C8
:100310001BFA1FBD10B510BD00F058F81146FFF7CD
:10032000F5FF07F0CDF900F076F803B4FFF7F2FF20
:1003300003BC00F07DF800000948804709480047E9
:10034000FEE7FEE7FEE7FEE7FEE7FEE7FEE7FEE785
:10035000FEE7FEE704480549054A064B70470000E2
:10036000B17000089902000820020024200800242F
:1003700020040024200400244FF0000200B513469E
:1003800094469646203922BFA0E80C50A0E80C50B5
:10039000B1F12001BFF4F7AF090728BFA0E80C5066
:1003A00048BF0CC05DF804EB890028BF40F8042B5F
:1003B00008BF704748BF20F8022B11F0804F18BFCC
:1003C00000F8012B7047704770477047754600F082
:1003D0002BF8AE4605006946534620F007008546D7
:1003E00018B020B5FFF7B6FFBDE820404FF000067B
:1003F0004FF000074FF000084FF0000BAC46ACE8A0
:10040000C009ACE8C009ACE8C009ACE8C00921F0FB
:1004100007018D46704710B50446AFF300802046B3
:10042000BDE81040FFF781BF004870472800002456
:1004300001491820ABBEFEE726000200704700000D
:10044000FFE7FEE7000000008AB009904FF0FF30A0
:1004500007906FF0FF00069009989DF81C10069A0F
:10046000104005910490972003904FF000400290B7
:100470002820ADF80600FFE7BDF80600012837DBAD
:10048000FFE704980599BDF80620A2F1010CC2F11E
:10049000210301FA03F320FA0CF01843213AD1406A
:1004A000002A58BF0846C00748B1FFE7029B039ADD
:1004B000049805995840514005910490FFE702982F
:1004C00003995FEA51014FEA3000039102900498CA
:1004D0000599069A079B19401040084308B9FFE7A1
:1004E00006E0FFE7BDF806000138ADF80600C3E7F7
:1004F0009DF810000AB0704780B540F29C00C2F22F
:10050000004000F021FE80BD83B002900298016897
:1005100001201022C4F202029142009000F0A38058
:10052000FFE70298016801202822C4F202029142EA
:10053000009000F09880FFE70298016801204022B7
:10054000C4F202029142009000F08D80FFE7029811
:10055000016801205822C4F202029142009000F08A
:100560008280FFE70298016801207022C4F2020233
:100570009142009077D0FFE702980168012088221D
:10058000C4F20202914200906DD0FFE70298016828
:100590000120A022C4F202029142009063D0FFE742
:1005A000029801680120B822C4F202029142009030
:1005B00059D0FFE702980168012040F21042C4F2CE
:1005C0000202914200904ED0FFE70298016801209C
:1005D00040F22842C4F202029142009043D0FFE769
:1005E00002980168012040F24042C4F202029142A6
:1005F000009038D0FFE702980168012040F258428D
:10060000C4F20202914200902DD0FFE702980168E7
:10061000012040F27042C4F202029142009022D0C6
:10062000FFE702980168012040F28842C4F202020A
:100630009142009017D0FFE702980168012040F234
:10064000A042C4F20202914200900CD0FFE702984F
:1006500000684FF64831CBF6FD710844B0FA80F0DF
:1006600040090090FFE70098C00740B3FFE70298F9
:10067000007810384AF6AB21CAF6AA21A0FB011077
:1006800000090190019800F0070147F27270C0F66E
:100690000000405C0299C8650198042807D3FFE771
:1006A00002990868042262F30900886506E002994D
:1006B000086840F2FF3290438865FFE705E0029941
:1006C000086820F0FF008865FFE70298806D03B09E
:1006D000704700000000000084B003900398006899
:1006E000019003980168012045F20842C5F6020214
:1006F000914200904ED0FFE703980168012045F237
:100700001C42C5F602029142009043D0FFE70398D5
:100710000168012045F23042C5F602029142009084
:1007200038D0FFE703980168012045F24442C5F63E
:100730000202914200902DD0FFE70398016801204A
:1007400045F25842C5F602029142009022D0FFE7DE
:1007500003980168012045F26C42C5F602029142FD
:10076000009017D0FFE703980168012045F280420E
:10077000C5F60202914200900CD0FFE70398006892
:100780004AF66C31CAF2FD710844B0FA80F04009B3
:100790000090FFE70098C00710B3FFE703980078C8
:1007A00008384CF6CD41CCF6CC41A0FB0110000935
:1007B0000290029945F60000C5F6020000EB8100A8
:1007C00003990866039945F68000C5F6020048665D
:1007D000029800F01F01012088400399886635E0E7
:1007E0000398007810384AF6AB21CAF6AA21A0FB7C
:1007F000011000090290019840F2B841C4F20201D0
:1008000088420CD8FFE7019840F21041C4F202017F
:10081000884204D3FFE7029808300290FFE702996C
:1008200040F60000C4F2020000EB81000399086664
:10083000039940F68000C4F202004866029800F076
:100840001F010120884003998866FFE704B07047C4
:1008500083B002900298007901900198002800F07E
:100860008A80FFE70198082800F28580FFE7029858
:100870000168012045F20842C5F60202914200904B
:100880004ED0FFE702980168012045F21C42C5F6F0
:1008900002029142009043D0FFE7029801680120D4
:1008A00045F23042C5F602029142009038D0FFE78F
:1008B00002980168012045F24442C5F602029142C5
:1008C00000902DD0FFE702980168012045F25842C0
:1008D000C5F602029142009022D0FFE7029801681B
:1008E000012045F26C42C5F602029142009017D0F9
:1008F000FFE702980168012045F28042C5F6020236
:10090000914200900CD0FFE7029800684AF66C31E3
:10091000CAF2FD710844B0FA80F040090090FFE788
:100920000098C00780B1FFE7019945F6FC00C5F6C5
:10093000020000EB81000299C866029945F640105A
:10094000C5F6020008670FE0019940F6FC00C4F20A
:10095000020000EB81000299C866029940F640103F
:10096000C4F202000867FFE70198411E0120884099
:1009700002994867FFE703B07047000000000000DD
:1009800085B0049000208DF80F000498806918BB92
:10099000FFE70498806A029003281BD80299DFE8D9
:1009A00001F0020D0218049890F82F00C00720B142
:1009B000FFE701208DF80F00FFE70CE00498C06A04
:1009C000B0F1C07F04D1FFE701208DF80F00FFE7F1
:1009D00001E000E0FFE747E004988069B0F5005FC0
:1009E00026D1FFE70498806A019003281ED8019958
:1009F000DFE801F00206021101208DF80F0016E079
:100A0000049890F82F00C00720B1FFE701208DF86F
:100A10000F00FFE70BE00498C06AB0F1C07F04D17B
:100A2000FFE701208DF80F00FFE700E0FFE71AE085
:100A30000498806A0090032804D3FFE700980328F5
:100A400004D00EE001208DF80F000BE0049890F820
:100A50002F00C00720B1FFE701208DF80F00FFE74E
:100A600000E0FFE7FFE7FFE79DF80F0005B07047E4
:100A7000704700000000000080B54FF4806002F075
:100A800027F980BD0000000081B0EFF3108072B63E
:100A90000090FFE7FEE7000080B586B00490049860
:100AA00020B9FFE701208DF8170046E3049890F87D
:100AB0003500022807D0FFE704998020486501200F
:100AC0008DF8170039E30498016801201022C4F260
:100AD00002029142029000F0A380FFE704980168AF
:100AE00001202822C4F202029142029000F0988074
:100AF000FFE70498016801204022C4F202029142FB
:100B0000029000F08D80FFE70498016801205822D0
:100B1000C4F202029142029000F08280FFE7049842
:100B2000016801207022C4F202029142029077D043
:100B3000FFE70498016801208822C4F20202914272
:100B400002906DD0FFE7049801680120A022C4F252
:100B500002029142029063D0FFE7049801680120ED
:100B6000B822C4F202029142029059D0FFE70498E1
:100B70000168012040F21042C4F202029142029048
:100B80004ED0FFE704980168012040F22842C4F2E9
:100B900002029142029043D0FFE7049801680120CD
:100BA00040F24042C4F202029142029038D0FFE784
:100BB00004980168012040F25842C4F202029142B6
:100BC00002902DD0FFE704980168012040F27042A6
:100BD000C4F202029142029022D0FFE70498016819
:100BE000012040F28842C4F202029142029017D0E2
:100BF000FFE704980168012040F2A042C4F202021B
:100C0000914202900CD0FFE7049800684FF64831FB
:100C1000CBF6FD710844B0FA80F040090290FFE77E
:100C20000298C007002800F09D80FFE70499042087
:100C300081F83500049800681021C4F2020188424E
:100C400000F08180FFE7049800682821C4F20201C7
:100C5000884278D0FFE7049800684021C4F202017E
:100C6000884270D0FFE7049800685821C4F202015E
:100C7000884268D0FFE7049800687021C4F202013E
:100C8000884260D0FFE7049800688821C4F202011E
:100C9000884258D0FFE704980068A021C4F20201FE
:100CA000884250D0FFE704980068B821C4F20201DE
:100CB000884248D0FFE70498006840F21041C4F22F
:100CC000020188423FD0FFE70498006840F22841C3
:100CD000C4F20201884236D0FFE70498006840F26F
:100CE0004041C4F2020188422DD0FFE70498006819
:100CF00040F25841C4F20201884224D0FFE7049830
:100D0000006840F27041C4F2020188421BD0FFE744
:100D10000498006840F28841C4F20201884212D06F
:100D2000FFE70498006840F2A041C4F20201884243
:100D300009D0FFE70498006840F2B841C4F202010C
:100D4000884207D1FFE704980168086820F0010095
:100D5000086006E004980168086820F00100086057
:100D6000FFE7E5E104980168086820F00E000860DC
:100D7000049800681021C4F20201884200F08180CA
:100D8000FFE7049800682821C4F20201884278D065
:100D9000FFE7049800684021C4F20201884270D045
:100DA000FFE7049800685821C4F20201884268D025
:100DB000FFE7049800687021C4F20201884260D005
:100DC000FFE7049800688821C4F20201884258D0E5
:100DD000FFE704980068A021C4F20201884250D0C5
:100DE000FFE704980068B821C4F20201884248D0A5
:100DF000FFE70498006840F21041C4F20201884203
:100E00003FD0FFE70498006840F22841C4F2020195
:100E1000884236D0FFE70498006840F24041C4F2AF
:100E2000020188422DD0FFE70498006840F2584143
:100E3000C4F20201884224D0FFE70498006840F21F
:100E40007041C4F2020188421BD0FFE70498006899
:100E500040F28841C4F20201884212D0FFE70498B0
:100E6000006840F2A041C4F20201884209D0FFE7C5
:100E70000498006840F2B841C4F20201884207D1E8
:100E8000FFE704980168086820F00100086006E0A8
:100E900004980168086820F001000860FFE70498E2
:100EA000016801201022C4F202029142019000F078
:100EB0000381FFE70498016801202822C4F202029E
:100EC0009142019000F0F880FFE70498016801204A
:100ED0004022C4F202029142019000F0ED80FFE74F
:100EE0000498016801205822C4F202029142019044
:100EF00000F0E280FFE70498016801207022C4F24C
:100F000002029142019000F0D780FFE70498016847
:100F100001208822C4F202029142019000F0CC80AC
:100F2000FFE7049801680120A022C4F20202914266
:100F3000019000F0C180FFE7049801680120B82209
:100F4000C4F202029142019000F0B680FFE70498DB
:100F50000168012040F21042C4F202029142019065
:100F600000F0AA80FFE704980168012040F22842BF
:100F7000C4F202029142019000F09E80FFE70498C3
:100F80000168012040F24042C4F202029142019005
:100F900000F09280FFE704980168012040F2584277
:100FA000C4F202029142019000F08680FFE70498AB
:100FB0000168012040F27042C4F2020291420190A5
:100FC0007AD0FFE704980168012040F28842C4F219
:100FD0000202914201906FD0FFE70498016801205E
:100FE00040F2A042C4F202029142019064D0FFE7B5
:100FF00004980168012040F2B842C4F20202914212
:10100000019059D0FFE704980168012045F2084299
:10101000C5F60202914201904ED0FFE704980168A4
:10102000012045F21C42C5F602029142019043D0D4
:10103000FFE704980168012045F23042C5F602023C
:101040009142019038D0FFE704980168012045F2F1
:101050004442C5F60202914201902DD0FFE7049868
:101060000168012045F25842C5F602029142019002
:1010700022D0FFE704980168012045F26C42C5F6D2
:1010800002029142019017D0FFE704980168012005
:1010900045F28042C5F60202914201900CD0FFE772
:1010A000049800684AF66C31CAF2FD710844B0FA3F
:1010B00080F040090190FFE70198C00728B3FFE7DF
:1010C0000498016E086820F4807008600498806DB0
:1010D00003900498C06D00F01F010120884003991F
:1010E00048600498416E806E48600498C06E58B1A4
:1010F000FFE70498C16E086820F4807008600498C7
:10110000016F406F4860FFE7FFE70499012081F815
:101110003500FFE70499002081F83400FFE70498C8
:10112000006D20B1FFE70498016D8847FFE7FFE7F6
:10113000FFE700208DF81700FFE79DF8170006B0C5
:1011400080BD00000000000080B590B00F9000202E
:101150000B9040F20400C2F20040006848F2B51162
:10116000C1F64E31A0FB0110800A0A900F98806DE5
:1011700009900F98806D0890099800680E90089863
:1011800000680D900F98016801201022C4F202023D
:101190009142079000F0A380FFE70F9801680120BB
:1011A0002822C4F202029142079000F09880FFE7E3
:1011B0000F98016801204022C4F202029142079078
:1011C00000F08D80FFE70F98016801205822C4F2DB
:1011D00002029142079000F08280FFE70F980168B9
:1011E00001207022C4F202029142079077D0FFE7FB
:1011F0000F98016801208822C4F2020291420790F0
:101200006DD0FFE70F9801680120A022C4F202020E
:101210009142079063D0FFE70F9801680120B82240
:10122000C4F202029142079059D0FFE70F9801687B
:10123000012040F21042C4F20202914207904ED0C7
:10124000FFE70F980168012040F22842C4F2020231
:101250009142079043D0FFE70F980168012040F2C8
:101260004042C4F202029142079038D0FFE70F9843
:101270000168012040F25842C4F2020291420790F4
:101280002DD0FFE70F980168012040F27042C4F2B0
:1012900002029142079022D0FFE70F9801680120D7
:1012A00040F28842C4F202029142079017D0FFE751
:1012B0000F980168012040F2A042C4F2020291425C
:1012C00007900CD0FFE70F9800684FF64831CBF637
:1012D000FD710844B0FA80F040090790FFE70798D5
:1012E000C007002800F01385FFE70E980F99C96D1D
:1012F00001F01F01C8400007002840F1B080FFE75F
:101300000F9800681021C4F20201884200F0818029
:10131000FFE70F9800682821C4F20201884278D0C4
:10132000FFE70F9800684021C4F20201884270D0A4
:10133000FFE70F9800685821C4F20201884268D084
:10134000FFE70F9800687021C4F20201884260D064
:10135000FFE70F9800688821C4F20201884258D044
:10136000FFE70F980068A021C4F20201884250D024
:10137000FFE70F980068B821C4F20201884248D004
:10138000FFE70F98006840F21041C4F20201884262
:101390003FD0FFE70F98006840F22841C4F20201F5
:1013A000884236D0FFE70F98006840F24041C4F20F
:1013B000020188422DD0FFE70F98006840F25841A3
:1013C000C4F20201884224D0FFE70F98006840F27F
:1013D0007041C4F2020188421BD0FFE70F980068F9
:1013E00040F28841C4F20201884212D0FFE70F9810
:1013F000006840F2A041C4F20201884209D0FFE730
:101400000F98006840F2B841C4F20201884207D147
:10141000FFE70F980068006800F00400069006E0FF
:101420000F980068006800F008000690FFE7069833
:10143000A0B1FFE70F980168086820F00400086079
:101440000F98C06D00F01F0108208840099988603E
:101450000F99486D40F001004865FFE7FFE70E98DF
:101460000F99C96D01F01F01C840C007002800F0A6
:10147000A980FFE70F9800681021C4F2020188429A
:1014800000F08180FFE70F9800682821C4F2020174
:10149000884278D0FFE70F9800684021C4F202012B
:1014A000884270D0FFE70F9800685821C4F202010B
:1014B000884268D0FFE70F9800687021C4F20201EB
:1014C000884260D0FFE70F9800688821C4F20201CB
:1014D000884258D0FFE70F980068A021C4F20201AB
:1014E000884250D0FFE70F980068B821C4F202018B
:1014F000884248D0FFE70F98006840F21041C4F2DC
:10150000020188423FD0FFE70F98006840F228416F
:10151000C4F20201884236D0FFE70F98006840F21B
:101520004041C4F2020188422DD0FFE70F980068C5
:1015300040F25841C4F20201884224D0FFE70F98DC
:10154000006840F27041C4F2020188421BD0FFE7FC
:101550000F98006840F28841C4F20201884212D01C
:10156000FFE70F98006840F2A041C4F202018842F0
:1015700009D0FFE70F98006840F2B841C4F20201B9
:10158000884207D1FFE70F980068406900F08000AB
:10159000059005E00F980068006800200590FFE7BF
:1015A000059870B1FFE70F98C06D00F01F01012092
:1015B0008840099988600F99486D40F0020048659D
:1015C000FFE7FFE70E980F99C96D01F01F01C840B2
:1015D0004007002840F1A980FFE70F98006810211C
:1015E000C4F20201884200F08180FFE70F98006892
:1015F0002821C4F20201884278D0FFE70F980068E2
:101600004021C4F20201884270D0FFE70F980068C1
:101610005821C4F20201884268D0FFE70F980068A1
:101620007021C4F20201884260D0FFE70F98006881
:101630008821C4F20201884258D0FFE70F98006861
:10164000A021C4F20201884250D0FFE70F98006841
:10165000B821C4F20201884248D0FFE70F98006821
:1016600040F21041C4F2020188423FD0FFE70F98D8
:10167000006840F22841C4F20201884236D0FFE7F8
:101680000F98006840F24041C4F2020188422DD018
:10169000FFE70F98006840F25841C4F20201884207
:1016A00024D0FFE70F98006840F27041C4F20201B5
:1016B00088421BD0FFE70F98006840F28841C4F2CF
:1016C0000201884212D0FFE70F98006840F2A04163
:1016D000C4F20201884209D0FFE70F98006840F287
:1016E000B841C4F20201884207D1FFE70F980068B1
:1016F000006800F00200049005E00F9800680068A0
:1017000000200490FFE7049870B1FFE70F98C06DC8
:1017100000F01F0104208840099988600F99486DE6
:1017200040F004004865FFE7FFE70E980F99C96D88
:1017300001F01F01C840C006002840F1DE80FFE72D
:101740000F9800681021C4F20201884200F08180E5
:10175000FFE70F9800682821C4F20201884278D080
:10176000FFE70F9800684021C4F20201884270D060
:10177000FFE70F9800685821C4F20201884268D040
:10178000FFE70F9800687021C4F20201884260D020
:10179000FFE70F9800688821C4F20201884258D000
:1017A000FFE70F980068A021C4F20201884250D0E0
:1017B000FFE70F980068B821C4F20201884248D0C0
:1017C000FFE70F98006840F21041C4F2020188421E
:1017D0003FD0FFE70F98006840F22841C4F20201B1
:1017E000884236D0FFE70F98006840F24041C4F2CB
:1017F000020188422DD0FFE70F98006840F258415F
:10180000C4F20201884224D0FFE70F98006840F23A
:101810007041C4F2020188421BD0FFE70F980068B4
:1018200040F28841C4F20201884212D0FFE70F98CB
:10183000006840F2A041C4F20201884209D0FFE7EB
:101840000F98006840F2B841C4F20201884207D103
:10185000FFE70F980068006800F00800039006E0BA
:101860000F980068006800F004000390FFE70398F9
:10187000002841D0FFE70F98C06D00F01F01102035
:101880008840099988600F98006800684003002824
:101890001AD5FFE70F98006800680003002809D4F4
:1018A000FFE70F98006C20B1FFE70F98016C8847A5
:1018B000FFE708E00F98806C20B1FFE70F98816C7C
:1018C0008847FFE7FFE716E00F9800680068C0054B
:1018D000002807D4FFE70F980168086820F0080087
:1018E0000860FFE70F98006C20B1FFE70F98016CCC
:1018F0008847FFE7FFE7FFE7FFE70E980F99C96DFD
:1019000001F01F01C8408006002840F12681FFE752
:101910000F9800681021C4F20201884200F0818013
:10192000FFE70F9800682821C4F20201884278D0AE
:10193000FFE70F9800684021C4F20201884270D08E
:10194000FFE70F9800685821C4F20201884268D06E
:10195000FFE70F9800687021C4F20201884260D04E
:10196000FFE70F9800688821C4F20201884258D02E
:10197000FFE70F980068A021C4F20201884250D00E
:10198000FFE70F980068B821C4F20201884248D0EE
:10199000FFE70F98006840F21041C4F2020188424C
:1019A0003FD0FFE70F98006840F22841C4F20201DF
:1019B000884236D0FFE70F98006840F24041C4F2F9
:1019C000020188422DD0FFE70F98006840F258418D
:1019D000C4F20201884224D0FFE70F98006840F269
:1019E0007041C4F2020188421BD0FFE70F980068E3
:1019F00040F28841C4F20201884212D0FFE70F98FA
:101A0000006840F2A041C4F20201884209D0FFE719
:101A10000F98006840F2B841C4F20201884207D131
:101A2000FFE70F980068006800F01000029006E0E1
:101A30000F980068006800F002000290FFE702982B
:101A4000002800F08980FFE70F98C06D00F01F01AB
:101A500020208840099988600F9890F83500042864
:101A600037D1FFE70F980168086820F0160008607A
:101A70000F980168486920F0800048610F98006C59
:101A800020B9FFE70F98806C38B1FFE70F98016825
:101A9000086820F008000860FFE70F98C06D00F0AC
:101AA0001F013F208840099988600F99012081F823
:101AB0003500FFE70F99002081F83400FFE70F9809
:101AC000006D20B1FFE70F98016D8847FFE700F038
:101AD00019BC0F9800680068400300281AD5FFE77A
:101AE0000F98006800680003002809D4FFE70F98EA
:101AF000406C20B1FFE70F98416C8847FFE708E092
:101B00000F98C06B20B1FFE70F98C16B8847FFE7C4
:101B1000FFE720E00F9800680068C005002811D496
:101B2000FFE70F980168086820F0100008600F991F
:101B3000012081F83500FFE70F99002081F834007B
:101B4000FFE7FFE70F98C06B20B1FFE70F98C16B6D
:101B50008847FFE7FFE7FFE7FFE70F98406D0028A2
:101B600000F0D480FFE70F98406DC007002800F018
:101B7000C480FFE70F99042081F835000F980068B2
:101B80001021C4F20201884200F08180FFE70F9823
:101B900000682821C4F20201884278D0FFE70F983C
:101BA00000684021C4F20201884270D0FFE70F981C
:101BB00000685821C4F20201884268D0FFE70F98FC
:101BC00000687021C4F20201884260D0FFE70F98DC
:101BD00000688821C4F20201884258D0FFE70F98BC
:101BE0000068A021C4F20201884250D0FFE70F989C
:101BF0000068B821C4F20201884248D0FFE70F987C
:101C0000006840F21041C4F2020188423FD0FFE771
:101C10000F98006840F22841C4F20201884236D091
:101C2000FFE70F98006840F24041C4F20201884289
:101C30002DD0FFE70F98006840F25841C4F202012E
:101C4000884224D0FFE70F98006840F27041C4F248
:101C5000020188421BD0FFE70F98006840F28841DC
:101C6000C4F20201884212D0FFE70F98006840F2E8
:101C7000A041C4F20201884209D0FFE70F98006832
:101C800040F2B841C4F20201884207D1FFE70F9841
:101C90000168086820F00100086006E00F980168FC
:101CA000086820F001000860FFE7FFE70B980130AB
:101CB0000B900A99884201D9FFE707E0FFE70F98E8
:101CC00000680068C0070028F0D1FFE70F9800689F
:101CD0000068C00728B1FFE70F99032081F835009D
:101CE00004E00F99012081F83500FFE7FFE70F9925
:101CF000002081F83400FFE7FFE70F98C06C20B1A7
:101D0000FFE70F98C16C8847FFE7FFE7FAE20F98FB
:101D10000168012045F20842C5F602029142019095
:101D20004ED0FFE70F980168012045F21C42C5F62E
:101D300002029142019043D0FFE70F980168012011
:101D400045F23042C5F602029142019038D0FFE7D9
:101D50000F980168012045F24442C5F60202914203
:101D600001902DD0FFE70F980168012045F25842FD
:101D7000C5F602029142019022D0FFE70F98016858
:101D8000012045F26C42C5F602029142019017D043
:101D9000FFE70F980168012045F28042C5F6020274
:101DA000914201900CD0FFE70F9800684AF66C3121
:101DB000CAF2FD710844B0FA80F040090190FFE7D3
:101DC0000198C007002800F09B82FFE70F98006889
:101DD00000680C900D980F99C96D01F01F01C84063
:101DE0004007002840F1D780FFE79DF8300040070A
:101DF000002840F1D080FFE70F98C06D00F01F0170
:101E000004208840089948609DF8310000060028A9
:101E100018D5FFE79DF83200C00748B9FFE70F98D3
:101E2000806C20B1FFE70F98816C8847FFE708E0DE
:101E30000F98006C20B1FFE70F98016C8847FFE70F
:101E4000FFE7A7E09DF830008006002800F19980A8
:101E5000FFE70F9800681021C4F20201884200F0E9
:101E60008180FFE70F9800682821C4F202018842B0
:101E700078D0FFE70F9800684021C4F20201884241
:101E800070D0FFE70F9800685821C4F20201884221
:101E900068D0FFE70F9800687021C4F20201884201
:101EA00060D0FFE70F9800688821C4F202018842E1
:101EB00058D0FFE70F980068A021C4F202018842C1
:101EC00050D0FFE70F980068B821C4F202018842A1
:101ED00048D0FFE70F98006840F21041C4F20201B9
:101EE00088423FD0FFE70F98006840F22841C4F2D3
:101EF0000201884236D0FFE70F98006840F2404167
:101F0000C4F2020188422DD0FFE70F98006840F22A
:101F10005841C4F20201884224D0FFE70F980068BC
:101F200040F27041C4F2020188421BD0FFE70F98D3
:101F3000006840F28841C4F20201884212D0FFE7F3
:101F40000F98006840F2A041C4F20201884209D013
:101F5000FFE70F98006840F2B841C4F202018842DE
:101F600007D1FFE70F980168086820F008000860B3
:101F700006E00F980168086820F004000860FFE799
:101F8000FFE70F98006C20B1FFE70F98016C8847BE
:101F9000FFE7FFE7B3E10D980F99C96D01F01F014D
:101FA000C8408007002840F1E180FFE79DF830003D
:101FB0008007002840F1DA80FFE70F98C06D00F03D
:101FC0001F0102208840089948609DF831000006F2
:101FD000002818D5FFE79DF83200C00748B9FFE791
:101FE0000F98406C20B1FFE70F98416C8847FFE7DE
:101FF00008E00F98C06B20B1FFE70F98C16B8847CE
:10200000FFE7FFE7B1E09DF830008006002800F10F
:10201000A380FFE70F9800681021C4F202018842F4
:1020200000F08180FFE70F9800682821C4F20201C8
:10203000884278D0FFE70F9800684021C4F202017F
:10204000884270D0FFE70F9800685821C4F202015F
:10205000884268D0FFE70F9800687021C4F202013F
:10206000884260D0FFE70F9800688821C4F202011F
:10207000884258D0FFE70F980068A021C4F20201FF
:10208000884250D0FFE70F980068B821C4F20201DF
:10209000884248D0FFE70F98006840F21041C4F230
:1020A000020188423FD0FFE70F98006840F22841C4
:1020B000C4F20201884236D0FFE70F98006840F270
:1020C0004041C4F2020188422DD0FFE70F9800681A
:1020D00040F25841C4F20201884224D0FFE70F9831
:1020E000006840F27041C4F2020188421BD0FFE751
:1020F0000F98006840F28841C4F20201884212D071
:10210000FFE70F98006840F2A041C4F20201884244
:1021100009D0FFE70F98006840F2B841C4F202010D
:10212000884207D1FFE70F980168086820F0140083
:10213000086006E00F980168086820F00A0008604F
:10214000FFE70F99012081F83500FFE70F99002084
:1021500081F83400FFE7FFE70F98C06B20B1FFE77D
:102160000F98C16B8847FFE7FFE7C7E00D980F990D
:10217000C96D01F01F01C8400007002840F1BC8074
:10218000FFE79DF830000007002840F1B580FFE729
:102190000F9800681021C4F20201884200F081808B
:1021A000FFE70F9800682821C4F20201884278D026
:1021B000FFE70F9800684021C4F20201884270D006
:1021C000FFE70F9800685821C4F20201884268D0E6
:1021D000FFE70F9800687021C4F20201884260D0C6
:1021E000FFE70F9800688821C4F20201884258D0A6
:1021F000FFE70F980068A021C4F20201884250D086
:10220000FFE70F980068B821C4F20201884248D065
:10221000FFE70F98006840F21041C4F202018842C3
:102220003FD0FFE70F98006840F22841C4F2020156
:10223000884236D0FFE70F98006840F24041C4F270
:10224000020188422DD0FFE70F98006840F2584104
:10225000C4F20201884224D0FFE70F98006840F2E0
:102260007041C4F2020188421BD0FFE70F9800685A
:1022700040F28841C4F20201884212D0FFE70F9871
:10228000006840F2A041C4F20201884209D0FFE791
:102290000F98006840F2B841C4F20201884207D1A9
:1022A000FFE70F980168086820F01C00086006E04E
:1022B0000F980168086820F00E000860FFE70F988B
:1022C000C06D00F01F01012000FA01F1089A516071
:1022D0000F9948650F9981F83500FFE70F990020A5
:1022E00081F83400FFE70F98C06C20B1FFE70F982A
:1022F000C16C8847FFE700E0FFE7FFE7FFE700E08A
:10230000FFE7FFE710B080BD80B58EB00C9000F005
:10231000FFFE0A900C9828B9FFE701208DF83700DE
:1023200000F0A0BC0C98016801201022C4F2020247
:102330009142079000F0A380FFE70C98016801200C
:102340002822C4F202029142079000F09880FFE731
:102350000C98016801204022C4F2020291420790C9
:1023600000F08D80FFE70C98016801205822C4F22C
:1023700002029142079000F08280FFE70C9801680A
:1023800001207022C4F202029142079077D0FFE749
:102390000C98016801208822C4F202029142079041
:1023A0006DD0FFE70C9801680120A022C4F2020260
:1023B0009142079063D0FFE70C9801680120B82292
:1023C000C4F202029142079059D0FFE70C980168CD
:1023D000012040F21042C4F20202914207904ED016
:1023E000FFE70C980168012040F22842C4F2020283
:1023F0009142079043D0FFE70C980168012040F21A
:102400004042C4F202029142079038D0FFE70C9894
:102410000168012040F25842C4F202029142079042
:102420002DD0FFE70C980168012040F27042C4F201
:1024300002029142079022D0FFE70C980168012028
:1024400040F28842C4F202029142079017D0FFE79F
:102450000C980168012040F2A042C4F202029142AD
:1024600007900CD0FFE70C9800684FF64831CBF688
:10247000FD710844B0FA80F040090790FFE7079823
:10248000C007002800F07981FFE70C98406A08B186
:10249000FFE7FFE70C99022081F83500FFE70C9970
:1024A000002081F83400FFE70C9800681021C4F286
:1024B0000201884200F08180FFE70C980068282123
:1024C000C4F20201884278D0FFE70C9800684021EE
:1024D000C4F20201884270D0FFE70C9800685821CE
:1024E000C4F20201884268D0FFE70C9800687021AE
:1024F000C4F20201884260D0FFE70C98006888218E
:10250000C4F20201884258D0FFE70C980068A0216D
:10251000C4F20201884250D0FFE70C980068B8214D
:10252000C4F20201884248D0FFE70C98006840F2EC
:102530001041C4F2020188423FD0FFE70C980068C6
:1025400040F22841C4F20201884236D0FFE70C98DD
:10255000006840F24041C4F2020188422DD0FFE7FA
:102560000C98006840F25841C4F20201884224D01D
:10257000FFE70C98006840F27041C4F20201884203
:102580001BD0FFE70C98006840F28841C4F20201BA
:10259000884212D0FFE70C98006840F2A041C4F2D4
:1025A0000201884209D0FFE70C98006840F2B84168
:1025B000C4F20201884207D1FFE70C98016808685D
:1025C00020F00100086006E00C980168086820F01F
:1025D00001000860FFE7FFE70C9800680068C0078B
:1025E00098B1FFE700F094FD0A99401A06280BD332
:1025F000FFE70C99202048650C99032081F83500ED
:1026000001208DF837002DE3E6E70C98006800689C
:102610000B900B9848F23F01CFF6106108400B90E9
:102620000C998868D1F80CC00B694A6940EA0C0023
:10263000184310438A691043CA691043096A014369
:102640000B9808430B900C98406A042808D1FFE7C8
:102650000C99C86A096B01430B9808430B90FFE77C
:1026600041F20000C5F6004000684FF6FF71884354
:10267000B0F1005F40D3FFE70C984068292807D3EA
:10268000FFE70C98416801202F2906902AD3FFE725
:102690000C9840683F2807D3FFE70C984168012059
:1026A000432906901ED3FFE70C984068472807D3BC
:1026B000FFE70C98416801204929069012D3FFE7F3
:1026C0000C98416800204F29059008D3FFE70C982B
:1026D00041680020532938BF01200590FFE7059885
:1026E0000690FFE70698C00728B1FFE70B9840F473
:1026F00080100B90FFE7FFE70B980C9909680860C2
:102700000C98006840690B900B9820F007000B9024
:102710000C98416A0B9808430B900C98406A042867
:102720001AD1FFE70C98816A0B9808430B900C981C
:10273000C06A80B1FFE70C98FEF722F950B1FFE7BD
:102740000C99402048650C99012081F835008DF8DE
:10275000370087E2FFE7FFE70B980C9909684861AB
:102760000C98FDF7D1FE09900C98C06D00F01F0188
:102770003F2088400999886027E10C980168012072
:1027800045F20842C5F60202914204904ED0FFE79E
:102790000C980168012045F21C42C5F602029142E4
:1027A000049043D0FFE70C980168012045F23042C5
:1027B000C5F602029142049038D0FFE70C980168F8
:1027C000012045F24442C5F60202914204902DD008
:1027D000FFE70C980168012045F25842C5F6020255
:1027E0009142049022D0FFE70C980168012045F245
:1027F0006C42C5F602029142049017D0FFE70C9894
:102800000168012045F28042C5F60202914204901F
:102810000CD0FFE70C9800684AF66C31CAF2FD71E3
:102820000844B0FA80F040090490FFE70498C0071C
:10283000002800F0BE80FFE70C980168012045F2F7
:102840000842C5F60202914203904ED0FFE70C9871
:102850000168012045F21C42C5F602029142039034
:1028600043D0FFE70C980168012045F23042C5F6DD
:1028700002029142039038D0FFE70C9801680120D2
:1028800045F24442C5F60202914203902DD0FFE783
:102890000C980168012045F25842C5F602029142A7
:1028A000039022D0FFE70C980168012045F26C42AA
:1028B000C5F602029142039017D0FFE70C98016819
:1028C000012045F28042C5F60202914203900CD0ED
:1028D000FFE70C9800684AF66C31CAF2FD710844B3
:1028E000B0FA80F040090390FFE70398C00708B1F1
:1028F000FFE7FFE70C99022081F83500FFE70C990C
:10290000002081F83400FFE70C98006800680B9005
:102910000B986FF310100B900C988068402803D12F
:10292000FFE71020029008E00C9880688038B0FA29
:1029300080F0400980030290FFE702980C99D1F8DB
:102940000CE0D1F810C04B698A6940EADE0040EA29
:10295000DC0040EAD30040EAD200CA6940EAD20073
:10296000096A40EA11110B9808430B900B980C99D7
:10297000096808600C9908684AF6F832CAF2FD72D4
:1029800010444CF6CD42CCF6CC42A0FB02026FF0D4
:10299000030000EA9200C8650C98FDF7B5FD0890A9
:1029A0000C98C06D00F01F01012088400899486014
:1029B0000AE00C99402048650C99032081F8350005
:1029C00001208DF837004DE1FFE70C9801680120E8
:1029D0001022C4F202029142019000F00381FFE74D
:1029E0000C98016801202822C4F202029142019051
:1029F00000F0F880FFE70C98016801204022C4F243
:102A000002029142019000F0ED80FFE70C9801680E
:102A100001205822C4F202029142019000F0E280AB
:102A2000FFE70C98016801207022C4F20202914273
:102A3000019000F0D780FFE70C9801680120882200
:102A4000C4F202029142019000F0CC80FFE70C98A2
:102A500001680120A022C4F202029142019000F01C
:102A6000C180FFE70C9801680120B822C4F202027D
:102A70009142019000F0B680FFE70C9801680120B8
:102A800040F21042C4F202029142019000F0AA808A
:102A9000FFE70C980168012040F22842C4F20202CC
:102AA0009142019000F09E80FFE70C9801680120A0
:102AB00040F24042C4F202029142019000F0928042
:102AC000FFE70C980168012040F25842C4F202026C
:102AD0009142019000F08680FFE70C980168012088
:102AE00040F27042C4F20202914201907AD0FFE7B4
:102AF0000C980168012040F28842C4F2020291421F
:102B000001906FD0FFE70C980168012040F2A042CD
:102B1000C4F202029142019064D0FFE70C98016870
:102B2000012040F2B842C4F202029142019059D011
:102B3000FFE70C980168012045F20842C5F6020241
:102B4000914201904ED0FFE70C980168012045F2B8
:102B50001C42C5F602029142019043D0FFE70C9857
:102B60000168012045F23042C5F60202914201900F
:102B700038D0FFE70C980168012045F24442C5F6C1
:102B80000202914201902DD0FFE70C9801680120CC
:102B900045F25842C5F602029142019022D0FFE769
:102BA0000C980168012045F26C42C5F60202914280
:102BB000019017D0FFE70C980168012045F2804290
:102BC000C5F60202914201900CD0FFE70C98006814
:102BD0004AF66C31CAF2FD710844B0FA80F040093F
:102BE0000190FFE70198C00790B3FFE70C98FDF74D
:102BF00073FD0C988068802804D1FFE70C990020B1
:102C00004860FFE70C990879096E08600C98416EDE
:102C1000806E48600C98406888B1FFE70C98406867
:102C200008280CD8FFE70C98FDF712FE0C98C16E2F
:102C3000002008600C98016F406F486007E00C9915
:102C40000020C8660C9908670C994867FFE7FFE702
:102C50000C99002048650C9A012182F835108DF8F6
:102C60003700FFE79DF837000EB080BD0000000080
:102C700080B582B0ADF80600BDF80600B0F5806FF3
:102C800021D1FFE72420C4F20100006840F288014E
:102C9000C2F200410091088040F60000C5F6020033
:102CA0004FF40071002200F013FA0098008840F2FF
:102CB0009001C2F200410988401A40F28E01C2F22E
:102CC00000410880FFE702B080BD00000000000066
:102CD00080B582B0ADF806008820C5F60000006817
:102CE000BDF8061008420BD0FFE7BDF806008821AA
:102CF000C5F600010860BDF80600FFF7B9FFFFE761
:102D000002B080BD0000000090B00F900E91002036
:102D10000D908020C5F600000A90FFE70E9800682D
:102D20000D99C840002800F0CF81FFE70E98006899
:102D30000D9A0121914008400C900C98002800F059
:102D4000BF81FFE70E98406800F00300012807D01C
:102D5000FFE70E98406800F0030002282FD1FFE73C
:102D60000F9880680B900D984100032000FA01F144
:102D70000B9888430B900E98C0680D99490000FA93
:102D800001F10B9808430B900B980F9988600F98EE
:102D900040680B900D99012000FA01F10B988843CF
:102DA0000B900E984068C0F300100D9900FA01F1E5
:102DB0000B9808430B900B980F994860FFE70E980B
:102DC000406800F00300032818D0FFE70F98C068A0
:102DD0000B900D984100032000FA01F10B988843F5
:102DE0000B900E9880680D99490000FA01F10B983C
:102DF00008430B900B980F99C860FFE70E98406846
:102E000000F00300022826D1FFE70F980D996FF01C
:102E1000030202EA51010844006A0B900D9800F089
:102E2000070081000F2000FA01F10B9888430B90F6
:102E30000E9800690D9901F00701890000FA01F16F
:102E40000B9808430B900B980F990D9B02EA5302C5
:102E500011440862FFE70F9800680B900D9841003D
:102E6000032000FA01F10B9888430B900E984068FC
:102E700000F003000D99490000FA01F10B98084396
:102E80000B900B980F9908600E98807980070028A6
:102E900000F01581FFE7FFE744F2F440C5F60200B9
:102EA000016841F002010160006800F00200099031
:102EB0000998FFE70D9820F0030040F20841C5F69D
:102EC000000140580B900D9800F0030081000F2086
:102ED00000FA01F10B9888430B900F980021C5F67A
:102EE0000201884203D1FFE7002008907AE00F98A2
:102EF00040F20041C5F60201884203D1FFE70120FC
:102F000007906CE00F9840F60001C5F60201884278
:102F100003D1FFE7022006905EE00F9840F60041E3
:102F2000C5F60201884203D1FFE70320059050E077
:102F30000F9841F20001C5F60201884203D1FFE774
:102F40000420049042E00F9841F20041C5F60201CE
:102F5000884203D1FFE70520039034E00F9841F643
:102F60000001C5F60201884203D1FFE70620029066
:102F700026E00F9841F60041C5F60201884203D1D0
:102F8000FFE70720019018E00F9842F20001C5F614
:102F90000201884203D1FFE7082000900AE00F9960
:102FA00042F20042C5F602020A20914208BF0920FF
:102FB0000090FFE700980190FFE701980290FFE77B
:102FC00002980390FFE703980490FFE704980590A8
:102FD000FFE705980690FFE706980790FFE7079838
:102FE0000890FFE708980D9901F00301890000FAA5
:102FF00001F10B9808430B900B980D9921F00301F8
:1030000040F20842C5F6000288504FF0B040006818
:103010000B900C990B9888430B900E988079C00602
:10302000002805D5FFE70C990B9808430B90FFE7A4
:103030000B984FF0B04108600420C5F6000000680E
:103040000B900C990B9888430B900E988079800612
:10305000002805D5FFE70C990B9808430B90FFE774
:103060000B980421C5F6000108600A9840680B908F
:103070000C990B9888430B900E9880798007002854
:1030800005D5FFE70C990B9808430B90FFE70B98C9
:103090000A9948600A9800680B900C990B9888432D
:1030A0000B900E988079C00728B1FFE70C990B9818
:1030B00008430B90FFE70B980A990860FFE7FFE7CA
:1030C0000D9801300D9029E610B070470000000007
:1030D00082B00190ADF802108DF801209DF801003A
:1030E00028B1FFE7BDF802000199886105E0BDF84D
:1030F0000200000401998861FFE702B070470000F8
:1031000041F20000C5F600400068000C7047000066
:1031100040F21820C2F20040006870470000000032
:1031200040F22000C2F20040027840F21821C2F2C0
:10313000004108681044086070470000000000006B
:1031400080B582B0032000F0B7F801F0ADFB44F287
:103150001842C5F602021168C1F3032347F26271F7
:10316000C0F60001CB5C03F01F03D840009000982C
:10317000126802F00F02895C01F01F01C84040F2A2
:103180000801C2F200410860009840F20401C2F256
:10319000004108600F2000F013F820B1FFE7012084
:1031A0008DF8070005E000F04FF800208DF80700CB
:1031B000FFE79DF8070002B080BD0000000000009E
:1031C00080B582B0009040F22000C2F2004000784A
:1031D00020B9FFE701208DF8070030E040F204003D
:1031E000C2F20040006840F22001C2F200410A78B9
:1031F0004FF47A71B1FBF2F1B0FBF1F003F02CF86F
:1032000020B1FFE701208DF8070018E000980F2893
:103210000DD8FFE700994FF0FF30002200F034F89E
:10322000009840F22401C2F20041086003E001204E
:103230008DF8070003E000208DF80700FFE79DF8F8
:10324000070002B080BD000081B0FFE744F2F44007
:10325000C5F60200016841F002010160006800F05B
:10326000020000900098FFE701B0704700000000E6
:1032700080B582B0ADF80600BDF9060004F024F96F
:1032800002B080BD0000000080B586B0ADF8160029
:103290000491039204F030F90290BDF916000190F8
:1032A00002980499039A03F047FB0146019804F041
:1032B0002BF906B080BD000080B582B00190019866
:1032C00004F046F902B080BD80B584B0029044F6A7
:1032D0000C00C5F60200006800F004010020B0EB0D
:1032E000910F13D1FFE744F60C00C5F60200006809
:1032F00000F007000299884204D0FFE701208DF812
:103300000F002EE000208DF80F002AE044F60C019B
:10331000C5F60201086820F00700029A1043086011
:10332000FFF7F6FE0190FFE744F60400C5F6020041
:10333000006800F400510020B0EB513F0DD1FFE7D1
:10334000FFF7E6FE0199401AB0F57A7F04D9FFE74E
:1033500001208DF80F0004E0E6E700208DF80F0053
:10336000FFE79DF80F0004B080BD000000000000E2
:1033700080B59AB0189000208DF857008DF856004F
:103380001898C0780007002848D5FFE71898806E85
:10339000149078B1FFE71498B0F5801F13D0FFE7C1
:1033A0001498B0F5001F16D0FFE71498B0F5401F31
:1033B00019D019E044F22C41C5F60201086840F426
:1033C0000030086014E018980830022103F0F0FA89
:1033D0008DF857000CE018982830022103F0D0FB3C
:1033E0008DF8570004E003E001208DF85700FFE757
:1033F0009DF8570060B9FFE744F25041C5F602015D
:10340000086820F44010189A926E1043086004E097
:103410009DF857008DF85600FFE7FFE718984078B1
:10342000C007002840D0FFE71898806D139004284B
:1034300020D81399DFE801F0030C141C1D0044F29E
:103440002C41C5F60201086840F40030086015E020
:1034500018980830002103F0ABFA8DF857000DE002
:1034600018982830002103F08BFB8DF8570005E0F9
:1034700004E003E001208DF85700FFE79DF85700B6
:1034800060B9FFE744F25041C5F60201086820F038
:103490000700189A926D1043086004E09DF85700E9
:1034A0008DF85600FFE7FFE718984078800700285E
:1034B0004BD5FFE71898C06D129088B1FFE71298BE
:1034C000402816D0FFE7129880281AD0FFE71298FC
:1034D000C0281ED0FFE71298B0F5807F1AD01AE0FE
:1034E00044F22C41C5F60201086840F4003008603F
:1034F00015E018980830002103F05AFA8DF85700AB
:103500000DE018982830002103F03AFB8DF85700A1
:1035100005E004E003E001208DF85700FFE79DF887
:10352000570060B9FFE744F25041C5F60201086850
:1035300020F4E070189AD26D1043086004E09DF802
:1035400057008DF85600FFE7FFE7189840784007CE
:10355000002850D5FFE71898D0F8A8001190A0B126
:10356000FFE71198B0F5001F18D0FFE71198B0F5EC
:10357000800F1BD0FFE71198B0F5C00F1ED0FFE7FA
:103580001198B0F5000F1AD01AE044F22C41C5F69C
:103590000201086840F40030086015E0189808300F
:1035A000002103F005FA8DF857000DE01898283037
:1035B000002103F0E5FA8DF8570005E004E003E090
:1035C00001208DF85700FFE79DF8570068B9FFE725
:1035D00044F25841C5F60201086820F46000189AC8
:1035E000D2F8A8201043086004E09DF857008DF839
:1035F0005600FFE7FFE7189840780007002850D5ED
:10360000FFE71898D0F8AC001090A0B1FFE7109831
:10361000B0F1807F18D0FFE71098B0F1007F1BD089
:10362000FFE71098B0F1407F1ED0FFE71098B0F18F
:10363000806F1AD01AE044F22C41C5F602010868E6
:1036400040F40030086015E018980830002103F0BD
:10365000AFF98DF857000DE018982830002103F0DD
:103660008FFA8DF8570005E004E003E001208DF8A3
:103670005700FFE79DF8570068B9FFE744F258414B
:10368000C5F60201086820F0E060189AD2F8AC2074
:103690001043086004E09DF857008DF85600FFE7DE
:1036A000FFE71898C078800700283ED5FFE71898F4
:1036B000C06C0F90F0B1FFE70F98102808D0FFE71B
:1036C0000F9820280DD0FFE70F98302811D012E076
:1036D00044F22C41C5F60201086840F4003008604D
:1036E0000DE018980830022103F062F98DF85700B8
:1036F00005E004E003E001208DF85700FFE79DF8A6
:10370000570060B9FFE744F24C41C5F60201086872
:1037100020F03000189AD26C1043086004E09DF845
:1037200057008DF85600FFE7FFE718984078C0066D
:1037300000284ED5FFE71898006E0E90A0B1FFE765
:103740000E98B0F5805F18D0FFE70E98B0F5005FD7
:103750001BD0FFE70E98B0F5405F1ED0FFE70E9834
:10376000B0F5804F1AD01AE044F22C41C5F60201A0
:10377000086840F40030086015E01898083000210F
:1037800003F016F98DF857000DE018982830002145
:1037900003F0F6F98DF8570005E004E003E001209E
:1037A0008DF85700FFE79DF8570060B9FFE744F236
:1037B0005041C5F60201086820F4E040189A126EE4
:1037C0001043086004E09DF857008DF85600FFE7AD
:1037D000FFE718984078800600284CD5FFE7189836
:1037E000406E0D90C8B1FFE70D98B0F5803F15D041
:1037F000FFE70D98B0F5003F18D0FFE70D98B0F542
:10380000403F1BD0FFE70D98B0F5802F17D0FFE7A2
:103810000D98B0F5A02F13D013E016E018980830DB
:10382000012103F0C5F88DF857000EE018982830F4
:10383000012103F0A5F98DF8570006E005E004E04A
:1038400003E001208DF85700FFE79DF8570060B9AD
:10385000FFE744F25041C5F60201086820F4E02079
:10386000189A526E1043086004E09DF857008DF8D6
:103870005600FFE7FFE718984078400600284ED52D
:10388000FFE71898D0F8B0000C90C8B1FFE70C988B
:10389000B0F1805F15D0FFE70C98B0F1005F18D051
:1038A000FFE70C98B0F1405F1BD0FFE70C98B0F138
:1038B000804F17D0FFE70C98B0F1A04F13D013E062
:1038C00016E018980830012103F072F88DF85700BF
:1038D0000EE018982830012103F052F98DF85700B6
:1038E00006E005E004E003E001208DF85700FFE763
:1038F0009DF8570068B9FFE744F25841C5F6020148
:10390000086820F0E040189AD2F8B0201043086010
:1039100004E09DF857008DF85600FFE7FFE7189880
:103920004078000600283BD5FFE71898006F0B9001
:10393000D8B1FFE70B98B0F1805F05D0FFE70B9897
:10394000B0F1005F09D011E044F22C41C5F602014C
:10395000086840F4003008600CE018980830012135
:1039600003F026F88DF8570004E003E001208DF8FD
:103970005700FFE79DF8570060B9FFE744F2504158
:10398000C5F60201086820F04050189A126F1043E3
:10399000086004E09DF857008DF85600FFE7FFE748
:1039A0001898C078C007002837D0FFE71898806CB7
:1039B0000A90032817D80A99DFE801F014020B13C4
:1039C00044F22C41C5F60201086840F4003008605A
:1039D0000DE018980830022102F0EAFF8DF8570038
:1039E00005E004E003E001208DF85700FFE79DF8B3
:1039F000570060B9FFE744F24C41C5F60201086880
:103A000020F00300189A926C1043086004E09DF8BF
:103A100057008DF85600FFE7FFE7189880784006BA
:103A2000002840F1B480FFE744F60001C5F602012A
:103A3000086840F480700860FFF76AFB1690FFE7A3
:103A400044F60000C5F602000068C00500280CD44A
:103A5000FFE7FFF75DFB1699401A652804D3FFE7DF
:103A600003208DF8570000E0EAE79DF85700002892
:103A700040F08780FFE744F27040C5F6020000681E
:103A800000F440701899D1F8B41001F440718842E4
:103A900013D0FFE744F27041C5F60201086820F434
:103AA00040701790086840F480300860086820F47F
:103AB0008030086017980860FFE71898D0F8B400C5
:103AC000B0F5807F1FD1FFE7FFF722FB1690FFE7DD
:103AD00044F27040C5F60200006800F002010020C8
:103AE000B0EB510F0ED1FFE7FFF712FB1699401A0A
:103AF00041F28931884204D3FFE703208DF8570053
:103B000000E0E5E7FFE79DF85700A0BBFFE7FFE710
:103B10001898D0F8B40000F44070B0F5407F13D18D
:103B2000FFE744F21041C5F60201086820F47C501A
:103B3000189AD2F8B4204FF6F043C0F6FF731A403B
:103B400040EA1210086008E044F21041C5F6020194
:103B5000086820F47C500860FFE71898D0F8B4207B
:103B60006FF31F3244F27041C5F60201086810433A
:103B70000860FFE704E09DF857008DF85600FFE766
:103B800004E09DF857008DF85600FFE7FFE718980E
:103B90000068C007002800F04C80FFE71898C06F4D
:103BA000099028282BD80999DFE801F0152929293F
:103BB0002929292916292929292929291E29292993
:103BC000292929292629292929292929272929296A
:103BD00029292929280016E018980830012102F027
:103BE000E7FE8DF857000EE018982830012102F00A
:103BF000C7FF8DF8570006E005E004E003E0012070
:103C00008DF85700FFE79DF8570060B9FFE744F2D1
:103C10005441C5F60201086820F03800189AD26FA6
:103C20001043086004E09DF857008DF85600FFE748
:103C3000FFE7189800788007002839D5FFE7189823
:103C4000806F0890052819D80899DFE801F003046F
:103C50000C14151616E018980830012102F0A8FE81
:103C60008DF857000EE018982830012102F088FFE7
:103C70008DF8570006E005E004E003E001208DF830
:103C80005700FFE79DF8570060B9FFE744F2544141
:103C9000C5F60201086820F00700189A926F1043D9
:103CA000086004E09DF857008DF85600FFE7FFE735
:103CB00018980078400700283BD5FFE71898D0F8FF
:103CC00094000790052819D80799DFE801F003044C
:103CD0000C14151616E018980830012102F068FE41
:103CE0008DF857000EE018982830012102F048FFA7
:103CF0008DF8570006E005E004E003E001208DF8B0
:103D00005700FFE79DF8570068B9FFE744F25841B4
:103D1000C5F60201086820F00700189AD2F894202E
:103D20001043086004E09DF857008DF85600FFE747
:103D3000FFE718980078800600284ED5FFE718980E
:103D4000D0F890000690C8B1FFE70698B0F1805F08
:103D500015D0FFE70698B0F1005F18D0FFE706988E
:103D6000B0F1405F1BD0FFE70698B0F1804F17D04D
:103D7000FFE70698B0F1A04F13D013E016E01898B3
:103D80000830002102F014FE8DF857000EE018985C
:103D90002830022102F0F4FE8DF8570006E005E01D
:103DA00004E003E001208DF85700FFE79DF857007D
:103DB00068B9FFE744F25441C5F60201086820F0F3
:103DC000E040189AD2F890201043086004E09DF873
:103DD00057008DF85600FFE7FFE718980078400677
:103DE00000284ED5FFE71898D0F89C000590C8B180
:103DF000FFE70598B0F5806F15D0FFE70598B0F59F
:103E0000006F18D0FFE70598B0F5406F1BD0FFE7B3
:103E10000598B0F5805F17D0FFE70598B0F5A05F73
:103E200013D013E016E018980830002102F0C0FD0E
:103E30008DF857000EE018982830022102F0A0FEFD
:103E40008DF8570006E005E004E003E001208DF85E
:103E50005700FFE79DF8570068B9FFE744F2584163
:103E6000C5F60201086820F4E050189AD2F89C20A8
:103E70001043086004E09DF857008DF85600FFE7F6
:103E8000FFE718980078000600284ED5FFE718983D
:103E9000D0F8A0000490C8B1FFE70498B0F5005F27
:103EA00015D0FFE70498B0F5804F18D0FFE70498CD
:103EB000B0F5C04F1BD0FFE70498B0F5004F17D006
:103EC000FFE70498B0F5204F13D013E016E01898E0
:103ED0000830002102F06CFD8DF857000EE01898B4
:103EE0002830022102F04CFE8DF8570006E005E074
:103EF00004E003E001208DF85700FFE79DF857002C
:103F000068B9FFE744F25841C5F60201086820F499
:103F10006040189AD2F8A0201043086004E09DF891
:103F200057008DF85600FFE7FFE718980078000764
:103F3000002820D5FFE71898D0F88400B0F5805FFE
:103F40000CD1FFE718982830022102F019FE20B1A9
:103F5000FFE701208DF85600FFE7FFE744F25441E8
:103F6000C5F60201086820F44050189AD2F884205F
:103F700010430860FFE718980078C006002820D595
:103F8000FFE71898D0F89800B0F5807F0CD1FFE7D4
:103F900018982830022102F0F3FD20B1FFE701203C
:103FA0008DF85600FFE7FFE744F25841C5F60201DD
:103FB000086820F44070189AD2F8982010430860DE
:103FC000FFE718988078000700283CD5FFE718988D
:103FD000D0F8A400039050B1FFE70398B0F5803FFC
:103FE0000DD0FFE70398B0F5003F10D010E018980F
:103FF0000830002102F0DCFC8DF857000CE0189826
:104000002830022102F0BCFD8DF8570004E003E0E7
:1040100001208DF85700FFE79DF8570068B9FFE7CA
:1040200044F25841C5F60201086820F44030189A5D
:10403000D2F8A4201043086004E09DF857008DF8E2
:104040005600FFE7FFE718988078400700283FD523
:10405000FFE71898D0F888000290B0F5801F0AD0CA
:10406000FFE70298B0F5001F0ED0FFE70298B0F509
:10407000401F11D011E044F22C41C5F6020108683E
:1040800040F4003008600CE018982830012102F05C
:1040900077FD8DF8570004E003E001208DF857000C
:1040A000FFE79DF8570068B9FFE744F25441C5F6B1
:1040B0000201086820F44010189AD2F888201043B2
:1040C000086004E09DF857008DF85600FFE7FFE711
:1040D00018988078C007A8B3FFE71898006D019082
:1040E00028B1FFE70198B0F5803F09D010E044F215
:1040F0002C41C5F60201086840F4003008600BE06E
:1041000018980830022102F053FC8DF8570003E0A4
:1041100001208DF85700FFE79DF8570060B9FFE7D1
:1041200044F24C41C5F60201086820F48030189A28
:10413000126D1043086004E09DF857008DF856009A
:10414000FFE7FFE71898C078800600280CD5FFE746
:1041500018982830022102F013FD20B1FFE701205A
:104160008DF85600FFE7FFE7189880788007002851
:104170003CD5FFE71898D0F880000090D0B1FFE759
:104180000098B0F5807F0AD0FFE70098B0F5007F77
:104190000ED0FFE70098B0F5407F0AD00BE044F264
:1041A0002C41C5F60201086840F40030086006E0C2
:1041B00005E004E003E001208DF85700FFE79DF8DB
:1041C000570068B9FFE744F25441C5F60201086898
:1041D00020F44070189AD2F880201043086004E060
:1041E0009DF857008DF85600FFE7FFE71898807894
:1041F000C00600280CD5FFE744F25041C5F6020185
:10420000086820F00040189A526F10430860FFE7DA
:104210001898C078C00600280DD5FFE744F2104179
:10422000C5F60201086820F48040189AD2F8B82038
:1042300010430860FFE718988078800600280CD5A6
:10424000FFE744F25041C5F60201086820F0807093
:10425000189AD26E10430860FFE71898C07840069D
:10426000002811D5FFE7FFE744F21041C5F602012F
:10427000086820F4004008601898D0F8BC2008684E
:1042800010430860FFE7FFE71898C0780006002891
:104290000CD5FFE744F24C41C5F60201086820F056
:1042A0004050189A526D10430860FFE718988078C4
:1042B000000600280DD5FFE744F25441C5F602017F
:1042C000086820F44000189AD2F88C201043086047
:1042D000FFE718980079C00790B1FFE718980830F9
:1042E000002102F065FB8DF857009DF8570008B9D2
:1042F000FFE704E09DF857008DF85600FFE7FFE761
:10430000189800798007002812D5FFE71898083020
:10431000012102F04DFB8DF857009DF8570008B9B8
:10432000FFE704E09DF857008DF85600FFE7FFE730
:10433000189800794007002812D5FFE71898083030
:10434000022102F035FB8DF857009DF8570008B99F
:10435000FFE704E09DF857008DF85600FFE7FFE700
:10436000189800790007002812D5FFE71898283020
:10437000002102F005FC8DF857009DF8570008B9A0
:10438000FFE704E09DF857008DF85600FFE7FFE7D0
:1043900018980079C006002812D5FFE71898283031
:1043A000012102F0EDFB8DF857009DF8570008B988
:1043B000FFE704E09DF857008DF85600FFE7FFE7A0
:1043C000189800798006002812D5FFE71898283041
:1043D000022102F0D5FB8DF857009DF8570008B96F
:1043E000FFE704E09DF857008DF85600FFE7FFE770
:1043F0009DF8560020B9FFE700208DF8670003E024
:1044000001208DF86700FFE79DF867001AB080BDB6
:1044100080B586B004900391049820B9FFE701208D
:104420008DF817003CE2039842F20001C5F200212A
:10443000096801F00F01884216D9FFE742F2000037
:10444000C5F20020016821F00F01039A11430160B9
:10445000006800F00F000399884204D0FFE70120B4
:104460008DF817001CE2FFE7049800784007002849
:1044700019D5FFE70498006944F21841C5F6020116
:10448000096801F0700188420CD9FFE744F2184135
:10449000C5F60201086820F07000049A1269104302
:1044A0000860FFE7FFE7049800780007002819D5A7
:1044B000FFE70498406944F21C41C5F6020109680F
:1044C00001F0700188420CD9FFE744F21C41C5F6A7
:1044D0000201086820F07000049A526910430860D5
:1044E000FFE7FFE704980078C006002819D5FFE72A
:1044F0000498806944F21C41C5F60201096801F480
:10450000E06188420CD9FFE744F21C41C5F6020184
:10451000086820F4E060049A926910430860FFE79D
:10452000FFE7049800788006002819D5FFE7049873
:10453000C06944F22041C5F60201096801F070012A
:1045400088420CD9FFE744F22041C5F60201086811
:1045500020F07000049AD26910430860FFE7FFE77B
:10456000049800788007002819D5FFE70498C068F0
:1045700044F21841C5F60201096801F00F018842B2
:104580000CD9FFE744F21841C5F60201086820F093
:104590000F00049AD26810430860FFE7FFE7049811
:1045A0000078C007002800F08C80FFE744F2184133
:1045B000C5F60201086820F47060049A92681043FE
:1045C000086004984068022811D1FFE744F20040D7
:1045D000C5F60200006800F400310020B0EB514F36
:1045E00004D1FFE701208DF8170059E13EE004985F
:1045F0004068032811D1FFE744F20040C5F60200ED
:10460000006800F000710020B0EB516F04D1FFE7AB
:1046100001208DF8170043E127E004984068012845
:1046200011D1FFE744F20040C5F60200006800F433
:1046300080710020B0EB112F04D1FFE701208DF82D
:1046400017002DE110E044F20040C5F602000068BA
:1046500000F004010020B0EB910F04D1FFE701202E
:104660008DF817001CE1FFE7FFE7FFE744F2104178
:10467000C5F60201086820F00700049A526810434A
:104680000860FEF745FD0190FFE744F21040C5F6D3
:104690000200006800F0380004994968B0EBC10FCF
:1046A0000ED0FFE7FEF734FD0199401A41F289313F
:1046B000884204D3FFE703208DF81700F0E0E4E719
:1046C000FFE7049800788007002819D5FFE70498D1
:1046D000C06844F21841C5F60201096801F00F01F3
:1046E00088420CD2FFE744F21841C5F6020108687F
:1046F00020F00F00049AD26810430860FFE7FFE73C
:10470000039842F20001C5F20021096801F00F018F
:10471000884216D2FFE742F20000C5F2002001688D
:1047200021F00F01039A11430160006800F00F00AF
:104730000399884204D0FFE701208DF81700AFE00D
:10474000FFE7049800784007002819D5FFE7049890
:10475000006944F21841C5F60201096801F07001D0
:1047600088420CD2FFE744F21841C5F602010868FE
:1047700020F07000049A126910430860FFE7FFE719
:10478000049800780007002819D5FFE704984069CD
:1047900044F21C41C5F60201096801F0700188422B
:1047A0000CD2FFE744F21C41C5F60201086820F074
:1047B0007000049A526910430860FFE7FFE704980D
:1047C0000078C006002819D5FFE70498806944F2F4
:1047D0001C41C5F60201096801F4E06188420CD26F
:1047E000FFE744F21C41C5F60201086820F4E060CE
:1047F000049A926910430860FFE7FFE70498007885
:104800008006002819D5FFE70498C06944F22041CA
:10481000C5F60201096801F0700188420CD2FFE779
:1048200044F22041C5F60201086820F07000049AA5
:10483000D26910430860FFE7FFE700F035F844F263
:104840001842C5F602021168C1F3032347F26271F0
:10485000C0F60001CB5C03F01F03D8400090009825
:10486000126802F00F02895C01F01F01C84040F29B
:104870000801C2F200410860009840F20401C2F24F
:104880000041086040F22400C2F200400068FEF7D8
:1048900097FC8DF80B009DF80B008DF81700FFE7D3
:1048A0009DF8170006B080BD8AB044F21040C5F6EE
:1048B0000200006800F0380001460191182800F25B
:1048C00069810199DFE811F019006601660166014E
:1048D00066016601660166013A00660166016601CD
:1048E00066016601660166014000660166016601B7
:1048F0006601660166016601460044F20040C5F6A5
:104900000200006800F020010020B0EB511F0ED023
:10491000FFE744F20040C5F602000068C0F3C101A1
:1049200049F20000C0F2D030C840029005E049F2E0
:104930000000C0F2D0300290FFE731E140F60010F5
:10494000C0F23D0002902BE146F60040C0F2DC20B0
:10495000029025E144F22840C5F60200016801F00A
:10496000030108910068C0F30510079044F22C4041
:10497000C5F60200006800F001000690069844F2B7
:104980003441C5F60201096889B2C908484300EEFE
:10499000100AB8EE400A8DED040A0798002800F0CE
:1049A000F580FFE70898009048B1FFE700980128DC
:1049B00069D0FFE70098022800F08980ABE044F25C
:1049C0000040C5F60200006800F020010020B0EBB6
:1049D000511F33D0FFE744F20040C5F602000068E3
:1049E000C0F3C10149F20000C0F2D030C8400590C8
:1049F0009DED050AB8EE400A9DED071AB8EE411A82
:104A000080EE010A44F23040C5F6020000686FF300
:104A10005F2001EE100AB8EE411A9DED042A9FEDC9
:104A2000633A82EE032A31EE021AB7EE002A31EE23
:104A3000021A20EE010A8DED030A23E09DED070A1C
:104A4000B8EE401A9FED5B0A80EE010A44F2304056
:104A5000C5F6020000686FF35F2001EE100AB8EEA1
:104A6000411A9DED042A9FED513A82EE032A31EE60
:104A7000021AB7EE002A31EE021A20EE010A8DED7D
:104A8000030AFFE76BE09DED070AB8EE401A9FEDC1
:104A9000480A80EE010A44F23040C5F60200006880
:104AA0006FF35F2001EE100AB8EE411A9DED042A63
:104AB0009FED3E3A82EE032A31EE021AB7EE002A4B
:104AC00031EE021A20EE010A8DED030A47E09DED5A
:104AD000070AB8EE401A9FED340A80EE010A44F24C
:104AE0003040C5F6020000686FF35F2001EE100A47
:104AF000B8EE411A9DED042A9FED2C3A82EE032A6E
:104B000031EE021AB7EE002A31EE021A20EE010A47
:104B10008DED030A23E09DED070AB8EE401A9FEDE4
:104B2000240A80EE010A44F23040C5F60200006813
:104B30006FF35F2001EE100AB8EE411A9DED042AD2
:104B40009FED1A3A82EE032A31EE021AB7EE002ADE
:104B500031EE021A20EE010A8DED030AFFE744F25E
:104B60003040C5F60200006881B2012000EB512000
:104B700009909DED030A9DED091AB8EE411A80EEE9
:104B8000010ABCEEC00A8DED020A02E0002002908C
:104B9000FFE705E040F60010C0F23D000290FFE79D
:104BA00002980AB0704700BF001B374C0000004657
:104BB0000024744A0024744C80B58CB00A900A9882
:104BC00028B9FFE701208DF82F0000F09DBD0A985D
:104BD0000078C007002800F0B980FFE744F21040D9
:104BE000C5F60200006800F03800069044F2284044
:104BF000C5F6020000680590069810280AD0FFE765
:104C0000069818281CD1FFE7059800F00300022839
:104C100016D1FFE744F20040C5F60200006800F438
:104C200000310020B0EB514F09D0FFE70A984068EF
:104C300028B9FFE701208DF82F0000F065BD84E062
:104C4000FFE70A984068B0F5803F09D1FFE744F2DA
:104C50000041C5F60201086840F48030086032E087
:104C60000A98406868B9FFE744F20041C5F60201BE
:104C7000086820F480300860086820F4802008600C
:104C800020E00A984068B0F5A02F0DD1FFE744F26C
:104C90000041C5F60201086840F4802008600868F9
:104CA00040F4803008600CE044F20041C5F6020197
:104CB000086820F480300860086820F480200860CC
:104CC000FFE7FFE7FFE7FFE70A984068F0B1FFE77B
:104CD000FEF71EFA0990FFE744F20040C5F6020015
:104CE000006800F400310020B0EB514F0DD1FFE718
:104CF000FEF70EFA0999401A652805D3FFE703204D
:104D00008DF82F0000F000BDE6E71DE0FEF700FA89
:104D10000990FFE744F20040C5F60200006800F485
:104D200000310020B0EB514F0DD0FFE7FEF7F0F956
:104D30000999401A652805D3FFE703208DF82F0055
:104D400000F0E2BCE6E7FFE7FFE7FFE70A9800783C
:104D50008007002840F11681FFE744F21040C5F6B5
:104D60000200006800F03800049044F22840C5F6C4
:104D7000020000680390049850B1FFE704981828D7
:104D800078D1FFE79DF80C008007002872D1FFE77B
:104D900044F20040C5F60200006800F00401002063
:104DA000B0EB910F09D0FFE70A98C06828B9FFE778
:104DB00001208DF82F0000F0A7BC44F20041C5F699
:104DC0000201086820F019000A9AD26810430860AE
:104DD000FEF79EF90990FFE744F20040C5F6020095
:104DE000006800F004010020B0EB910F0DD1FFE747
:104DF000FEF78EF90999401A032805D3FFE703202F
:104E00008DF82F0000F080BCE6E7FFE7FEF778F9A9
:104E100041F2030188421DD8FFE70A980069402843
:104E20000AD1FFE744F20441C5F6020108682022D6
:104E300062F3113008600CE044F20441C5F602014F
:104E4000086820F47C300A9A126940EA023008604F
:104E5000FFE70CE044F20441C5F60201086820F0C7
:104E6000FE400A9A126940EA02600860FFE7FFE725
:104E7000FFE786E00A98C06800285CD0FFE744F2AC
:104E80000041C5F60201086820F019000A9AD268AC
:104E900010430860FEF73CF90990FFE744F2004038
:104EA000C5F60200006800F004010020B0EB910F8D
:104EB0000DD1FFE7FEF72CF90999401A032805D315
:104EC000FFE703208DF82F0000F01EBCE6E7FFE7A8
:104ED000FEF716F941F2030188421DD8FFE70A9850
:104EE000006940280AD1FFE744F20441C5F60201F7
:104EF0000868202262F3113008600CE044F204419B
:104F0000C5F60201086820F47C300A9A126940EA6A
:104F100002300860FFE70CE044F20441C5F60201EC
:104F2000086820F0FE400A9A126940EA02600860B0
:104F3000FFE7FFE724E044F20041C5F602010868FC
:104F400020F001000860FEF7E3F80990FFE744F263
:104F50000040C5F60200006800F004010020B0EB3C
:104F6000910F0CD0FFE7FEF7D3F80999401A0328F8
:104F700004D3FFE703208DF82F00C5E3E7E7FFE741
:104F8000FFE7FFE70A980078C006002840F1EB80B1
:104F9000FFE744F21040C5F60200006800F0380058
:104FA000029044F22840C5F6020000680190029881
:104FB00008280AD0FFE70298182850D1FFE7019887
:104FC00000F0030001284AD1FFE744F20040C5F693
:104FD0000200006800F480710020B0EB112F09D0AE
:104FE000FFE70A98C069802804D0FFE701208DF808
:104FF0002F0089E3FFE7FEF783F841F203018842BF
:105000001DD8FFE70A98006A20280AD1FFE744F27A
:105010000441C5F602010868102262F39E60086030
:105020000CE044F20441C5F60201086820F0F840A3
:105030000A9A126A40EA82600860FFE70CE044F2D4
:105040000C41C5F60201086820F07C500A9A126AE9
:1050500040EA02600860FFE7FFE7FFE782E00A98A6
:10506000C069002858D0FFE744F20041C5F60201AC
:10507000086840F080000860FEF74AF80990FFE7F2
:1050800044F20040C5F60200006800F48071002080
:10509000B0EB112F0CD1FFE7FEF73AF80999401A4F
:1050A000032804D3FFE703208DF82F002CE3E7E764
:1050B000FFE7FEF725F841F2030188421DD8FFE71C
:1050C0000A98006A20280AD1FFE744F20441C5F695
:1050D00002010868102262F39E6008600CE044F24E
:1050E0000441C5F60201086820F0F8400A9A126AE5
:1050F00040EA82600860FFE70CE044F20C41C5F62C
:105100000201086820F07C500A9A126A40EA0260A4
:105110000860FFE7FFE724E044F20041C5F6020122
:10512000086820F080000860FDF7F2FF0990FFE7B3
:1051300044F20040C5F60200006800F480710020CF
:10514000B0EB112F0CD0FFE7FDF7E2FF0999401AF1
:10515000032804D3FFE703208DF82F00D4E2E7E70C
:10516000FFE7FFE7FFE70A980078000700284FD520
:10517000FFE70A98406928B3FFE744F27441C5F697
:105180000201086840F001000860FDF7C1FF0990C6
:10519000FFE744F27440C5F60200006800F0020127
:1051A0000020B0EB510F0CD1FFE7FDF7B1FF0999DB
:1051B000401A032804D3FFE703208DF82F00A3E251
:1051C000E7E724E044F27441C5F60201086820F0E4
:1051D00001000860FDF79CFF0990FFE744F274406E
:1051E000C5F60200006800F002010020B0EB510F8C
:1051F0000CD0FFE7FDF78CFF0999401A032804D370
:10520000FFE703208DF82F007EE2E7E7FFE7FFE7E7
:105210000A980078800600284FD5FFE70A98806931
:1052200028B3FFE744F20041C5F60201086840F4E4
:1052300080500860FDF76CFF0990FFE744F20040E2
:10524000C5F60200006800F400510020B0EB513FA9
:105250000CD1FFE7FDF75CFF0999401A032804D33E
:10526000FFE703208DF82F004EE2E7E724E044F249
:105270000041C5F60201086820F480500860FDF77F
:1052800047FF0990FFE744F20040C5F602000068BE
:1052900000F400510020B0EB513F0CD0FFE7FDF7C8
:1052A00037FF0999401A032804D3FFE703208DF83C
:1052B0002F0029E2E7E7FFE7FFE70A9800784007B9
:1052C000002840F1A780FFE744F60001C5F602017F
:1052D000086840F480700860FDF71AFF0990FFE746
:1052E00044F60000C5F602000068C00500280CD492
:1052F000FFE7FDF70DFF0999401A652804D3FFE782
:1053000003208DF82F00FFE1EAE7FFE70A988068A5
:10531000012809D1FFE744F27041C5F6020108688F
:1053200040F00100086031E00A98806868B9FFE742
:1053300044F27041C5F60201086820F001000860DF
:10534000086820F0040008601FE00A9880680528BB
:105350000DD1FFE744F27041C5F60201086840F044
:1053600004000860086840F0010008600CE044F2A6
:105370007041C5F60201086820F001000860086865
:1053800020F004000860FFE7FFE7FFE7FFE70A9867
:105390008068F8B1FFE7FDF7BBFE0990FFE744F234
:1053A0007040C5F60200006800F002010020B0EB7A
:1053B000510F0ED1FFE7FDF7ABFE0999401A41F2FC
:1053C0008931884204D3FFE703208DF82F009BE149
:1053D000E5E71EE0FDF79CFE0990FFE744F2704010
:1053E000C5F60200006800F002010020B0EB510F8A
:1053F0000ED0FFE7FDF78CFE0999401A41F2893182
:10540000884204D3FFE703208DF82F007CE1E5E715
:10541000FFE7FFE70A98406A002800F07181FFE784
:1054200044F21040C5F60200006800F03800182869
:1054300000F0E080FFE70A98406A022840F0B4805C
:10544000FFE744F20041C5F60201086820F08070D1
:105450000860FDF75DFE0990FFE744F20040C5F6E5
:105460000200006800F000710020B0EB516F0CD01A
:10547000FFE7FDF74DFE0999401A032804D3FFE723
:1054800003208DF82F003FE1E7E7FFE744F22841D2
:10549000C5F60201086840F2F33290430A9B9A6A0B
:1054A000DB6A42EA0312104308600A99086BD1F8DC
:1054B00034C08B6BCA6B01386FF35F204FF600610D
:1054C000CFF6FF7101EB4C2189B208440021CFF6E1
:1054D000FF7101EB034101F4FE0108444FF07F41ED
:1054E00001EB026101F0FE41084444F23041C5F68F
:1054F00002010860FFE744F22C41C5F60201009169
:10550000086820F00100086044F23442C5F6020247
:1055100010684FF6F87398430A9B9B6C40EAC300EF
:105520001060086820F00C000A9A126C10430860A2
:10553000086820F002000A9A526C1043086008685C
:1055400040F480300860086840F400300860086863
:1055500040F480200860086840F00100086044F2D0
:105560000041C5F60201086840F080700860FDF750
:10557000CFFD0990FFE744F20040C5F60200006845
:1055800000F000710020B0EB516F0CD1FFE7FDF788
:10559000BFFD0999401A032804D3FFE703208DF8C3
:1055A0002F00B1E0E7E724E044F20041C5F6020134
:1055B000086820F080700860FDF7AAFD0990FFE7F9
:1055C00044F20040C5F60200006800F000710020BF
:1055D000B0EB516F0CD0FFE7FDF79AFD0999401A27
:1055E000032804D3FFE703208DF82F008CE0E7E7C2
:1055F000FFE784E044F22840C5F602000068089006
:1056000044F23040C5F60200006807900A98406AEC
:10561000012837D0FFE7089800F003000A99896A4B
:1056200088422FD1FFE7089800F47C710A98C06A7D
:10563000B0EB111F26D1FFE707986FF35F200A999F
:10564000096B013988421DD1FFE7BDF81C100A988B
:10565000406B0138B0EB512F14D1FFE7079800F4ED
:10566000FE010A98806B0138B0EB114F0AD1FFE7B9
:10567000079800F0FE410A98C06B0138B0EB116F3B
:1056800004D0FFE701208DF82F003DE044F23440C4
:10569000C5F60200006880B2C00808900A98806CC5
:1056A0000899884229D0FFE744F22C41C5F602014F
:1056B000086820F001000860FDF72AFD0990FFE767
:1056C000FDF726FD0999401A08B9FFE7F8E744F20B
:1056D0003441C5F6020108684FF6F87290430A9A01
:1056E000926C40EAC200086044F22C41C5F6020107
:1056F000086840F001000860FFE7FFE7FFE7FFE709
:1057000000208DF82F00FFE79DF82F000CB080BD22
:1057100081B0009001B0704781B0009001B0704737
:1057200080B588B0079007980068006906900798D0
:10573000006840690590069805990840049007980C
:1057400000688068039000200290079890F881001C
:105750008DF8070007980068303000909DF815001C
:105760000007002811D5FFE79DF818000007002862
:105770000BD5FFE707980168886940F400608861ED
:105780000798D0F8A810884796E19DF810004006C9
:10579000002815D4FFE79DF81000800600280FD4DC
:1057A000FFE79DF810004007002809D5FFE707989C
:1057B000416F88470798016F884701200290FFE7F3
:1057C0009DF810004006002811D4FFE79DF8100056
:1057D000C00760B1FFE79DF810004007002806D41D
:1057E000FFE70798016F884701200290FFE79DF8C7
:1057F00010008006002812D4FFE79DF810008007F3
:1058000000280CD5FFE79DF810004007002806D4BB
:10581000FFE70798416F884701200290FFE7029851
:1058200008B1FFE748E19DF810000007002840F1AB
:105830008D80FFE707980168886940F0080088615B
:1058400007980168886940F010008861079801682E
:10585000886940F40060886107980168086920F051
:105860000800086107980068806810F4404F3AD13A
:10587000FFE7FFE70798B0F86A0098B3FFE70798DB
:10588000C06810280BD3FFE707980068006B0799E2
:10589000496E08600799486E043048661BE0079817
:1058A000C06808280AD3FFE7009800880799496E66
:1058B00008800799486E023048660BE00798006838
:1058C00090F830000799496E08700799486E0130CA
:1058D0004866FFE7FFE70799B1F86A000138A1F8C9
:1058E0006A00C7E7FFE7079801F03AFA0799012035
:1058F00081F881000798D0F8840028B1FFE7079865
:10590000D0F8A0108847D7E09DF80700052805D1FA
:10591000FFE70798D0F89010884716E09DF8070039
:10592000042805D1FFE70798D0F88C1088470BE0D2
:105930009DF80700032805D1FFE70798D0F88810E5
:10594000884700E0FFE7FFE7FFE7B5E0BDF810009C
:1059500010F4587F00F0B080FFE79DF8100040067B
:1059600000280ED5FFE70799D1F8840040F0040025
:10597000C1F8840007980168886940F04000886198
:10598000FFE79DF81100800700280ED5FFE7079973
:10599000D1F8840040F00100C1F884000798016844
:1059A000886940F400708861FFE79DF81100C00726
:1059B00070B1FFE70799D1F8840040F00800C1F802
:1059C000840007980168886940F480708861FFE767
:1059D0009DF81000800600280ED5FFE70799D1F842
:1059E000840040F08000C1F884000798016888694D
:1059F00040F020008861FFE70798D0F88400002875
:105A000059D0FFE707980168086820F00100086096
:105A100007980168086940F26B3290430861039867
:105A200000F44040B0F5404F3BD1FFE707980168D4
:105A3000886820F4404088600798C06FB0B1FFE7E5
:105A40000798C16F46F67960C0F6000008650798B0
:105A5000C06FFBF721F840B1FFE70799D1F8840048
:105A600040F04000C1F88400FFE7FFE70798806F2F
:105A7000B0B1FFE70798816F46F67960C0F6000085
:105A800008650798806FFBF707F840B1FFE70799B3
:105A9000D1F8840040F04000C1F88400FFE7FFE740
:105AA00008E00799012081F881000798D0F8A0103C
:105AB0008847FFE7FFE7FFE708B080BD0000000070
:105AC00080B586B00490049820B9FFE701208DF8D6
:105AD000170088E10498406A08B9FFE7FFE70499D6
