:020000040800F2
:1000000078070024650300086932000859320008A7
:100010006132000871040008713900080000000016
:100020000000000000000000000000005136000841
:1000300079040008000000007132000859360008F9
:100040007F0300087F0300087F0300087F03000888
:100050007F0300087F0300087F0300087F03000878
:100060007F0300087F0300087F0300087F03000868
:100070007F0300087F0300087F0300087F03000858
:100080007F0300087F0300087F0300087F03000848
:100090007F0300087F0300087F0300087F03000838
:1000A0007F0300087F0300087F0300087F03000828
:1000B0007F0300087F0300087F0300087F03000818
:1000C0007F0300087F0300087F030008C93400088D
:1000D0007F0300087F0300087F0300087F030008F8
:1000E000810400087F030008000000007F0300086F
:1000F0007F0300087F0300087F0300087F030008D8
:100100007F0300087F0300087F0300087F030008C7
:100110007F0300087F0300087F0300087F030008B7
:100120007F0300087F0300087F0300087F030008A7
:100130007F0300087F0300087F0300087F03000897
:1001400000000000000000000000000000000000AF
:100150007F0300087F0300087F0300087F03000877
:100160007F0300087F0300087F0300087F03000867
:100170007F0300087F0300087F03000800000000E1
:100180007F0300087F0300087F0300087F03000847
:100190007F0300087F0300087F0300087F03000837
:1001A0007F0300087F0300087F0300087F03000827
:1001B0007F0300087F0300087F0300087F03000817
:1001C0007F0300087F0300087F0300087F03000807
:1001D0007F0300087F0300087F0300087F030008F7
:1001E0007F0300087F0300087F0300087F030008E7
:1001F0007F0300087F0300087F0300087F030008D7
:100200007F0300087F0300087F0300087F030008C6
:100210007F0300087F0300087F0300087F030008B6
:100220007F0300087F0300087F0300080000000030
:100230007F0300087F030008000000007F03000820
:100240007F0300087F0300087F0300087F03000886
:100250007F0300087F0300087F0300087F03000876
:100260007F0300087F0300087F0300087F03000866
:100270007F0300087F0300087F03000800000000E0
:100280007F0300087F0300087F03000800000000D0
:10029000000000007F03000800F002F800F052F8B0
:1002A00014A696E8000CB244B344DA4501D100F03C
:1002B00049F8BAE80F000FA696E83000A5EB040550
:1002C00004EB0607AAEB0704A7F101074FEA15158F
:1002D0004FEA3414A4F10104AC4201D300F032F827
:1002E00013F0010F18BFFB1A43F0010300F001F8EF
:1002F000DBE71847A4510000C4510000103A24BFA6
:1003000078C878C1FAD8520724BF30C830C144BF7A
:1003100004680C6070470000704700000023002450
:1003200000250026103A28BF78C1FBD8520728BF05
:1003300030C148BF0B6070471FB503F011FC1FBDF3
:1003400010B510BD00F058F81146FFF7F5FF03F0A7
:1003500013FB00F076F803B4FFF7F2FF03BC00F0E4
:100360007DF800000948804709480047FEE7FEE79E
:10037000FEE7FEE7FEE7FEE7FEE7FEE7FEE7FEE755
:1003800004480549054A064B7047000041370008FC
:1003900099020008780100247807002478030024DB
:1003A000780300244FF0000200B5134694469646A9
:1003B000203922BFA0E80C50A0E80C50B1F1200178
:1003C000BFF4F7AF090728BFA0E80C5048BF0CC026
:1003D0005DF804EB890028BF40F8042B08BF704784
:1003E00048BF20F8022B11F0804F18BF00F8012BF6
:1003F0007047704770477047754600F02BF8AE465F
:1004000005006946534620F00700854618B020B520
:10041000FFF7B6FFBDE820404FF000064FF00007A1
:100420004FF000084FF0000BAC46ACE8C009ACE858
:10043000C009ACE8C009ACE8C00921F007018D464D
:10044000704710B50446AFF300802046BDE8104069
:10045000FFF781BF00487047280000240149182099
:10046000ABBEFEE72600020070470000000000005F
:10047000FEE70000000000007047000000000000E0
:100480004FF4806000F084B9EFF3108072B600BFC3
:10049000FEE7000000000000F0B190F835100229DE
:1004A00018D180B540F20F420168C4F202029142B5
:1004B00014DC6F23C4F20203994225DC3F23C4F20B
:1004C000020399423CDC1023C4F2020399425DD03E
:1004D000282357E0802141650120704740F26F4397
:1004E000C4F2020399421BDC40F23F43C4F2020310
:1004F00099422DDC40F21043C4F20203994245D0E8
:1005000040F228433EE000BF9F23C4F20203994219
:1005100028DC7023C4F20203994237D0882331E0EB
:1005200040F29F43C4F20203994223DC40F270433D
:10053000C4F20203994229D040F2884322E000BF6E
:100540004023C4F20203994220D058231AE000BF8E
:1005500040F24043C4F20203994217D040F258439C
:1005600010E000BFA023C4F2020399420ED0B823CA
:1005700008E000BF40F2B843C4F20203994205D03C
:1005800040F2A043C4F20203994277D191424FF066
:10059000040280F8352011DC6F20C4F20200814291
:1005A00022DC3F20C4F20200814239DC1020C4F278
:1005B0000200814259D0282054E000BF40F26F4031
:1005C000C4F2020081421BDC40F23F40C4F2020050
:1005D00081422DDC40F21040C4F20200814244D03E
:1005E00040F228403EE000BF9F20C4F2020081425A
:1005F00028DC7020C4F20200814236D0882031E02D
:1006000040F29F40C4F20200814223DC40F270407D
:10061000C4F20200814228D040F2884022E000BFAC
:100620004020C4F2020081421FD058201AE000BFCF
:1006300040F24040C4F20200814216D040F25840DD
:1006400010E000BFA020C4F2020081420DD0B8200B
:1006500008E000BF40F2B840C4F20200814204D07A
:1006600040F2A040C4F202008142086820F001007C
:1006700008600021BDE88040084670470A6822F003
:100680000E020A6045F25742C5F6020291420A681C
:1006900022F001020A600FDC45F22F42C5F6020289
:1006A000914219DC45F20842C5F60202914229D076
:1006B00045F21C4222E000BF45F27F42C5F602022D
:1006C000914213DC45F25842C5F60202914219D01C
:1006D00045F26C4212E000BF45F23042C5F602021C
:1006E00091420FD045F2444208E000BF45F29442E7
:1006F000C5F60202914205D045F28042C5F60202DB
:1007000091421AD1D0E9181CD0E916E30A6822F404
:1007100080720A6003F01F01012202FA01F1CEF893
:100720000410816ECCF80410C16E31B10A6822F455
:1007300080720A60D0E91C124A60012180F83510ED
:10074000026D0021002A80F8341093D0904790E782
:10075000B0F5806F18BF704710B5242040F28804B0
:10076000C4F20100C2F200444FF40071002200689C
:10077000E08040F60000C5F6020000F0E9F8E088ED
:10078000A188401A2081BDE8104070470000000099
:100790008821C5F600010A68024208BF7047086058
:1007A000FFF7D6BF000000002DE9F04F82B00D68C2
:1007B000002D00F0C78000F1264242F2004402F111
:1007C000FF728305C5F602040A27A04243EA92227B
:1007D00008BF0927092A40F2040C38BF1746C5F69E
:1007E000000C4FF0000E0097002700260AE000BF23
:1007F00001360D6835FA06F207F102070EF1040E14
:1008000000F0A080012202FA06FB15EA0B08EFD0E7
:10081000D1F804A003220AF0030502FA07F36C1EC4
:100820006FEA0309012C0FD88368CC6803EA090337
:10083000BC4023438360CAF30014436823EA0B03DC
:10084000B4402343436003E0032D01D1032520E09E
:10085000C3688C6803EA0903BC40022D43EA040321
:10086000C36016D16FF003020EF01C0502EA5603B6
:100870000F22034402FA05FBD3F820A00C692AEAF0
:100880000B0AAC4044EA0A041C62D1F804A00AF046
:100890000305036805FA07F403EA09031AF4403F65
:1008A00043EA04030360A3D044F2F44240F2084A4E
:1008B000C5F60202C5F6000A136843F0020313608E
:1008C00013680F2203F00203019326F00303019C37
:1008D0000EF00C0453F80A9002FA04F5009A29EA83
:1008E000050502FA04F44FF0B0492C4343F80A40DE
:1008F000D9F800304C6843EA0805E20258BF23EA01
:100900000805C9F80050A502DCF8002042EA0803F7
:1009100058BF22EA0803A503CCF80030DCF8802099
:1009200042EA080358BF22EA0803E403CCF8803007
:10093000DCF87C2042EA080358BF22EA0803CCF81E
:100940007C3055E702B0BDE8F08F000000000000E9
:10095000002A08BF09048161704700000000000000
:1009600041F20000C5F600400068000C704700002E
:1009700040F27010C2F200400068704700000000B2
:1009800040F2180040F27011C2F20040C2F2004181
:1009900000780A68104408607047000000000000FA
:1009A00080B5032000F0ACF800F0B6FF44F2184127
:1009B00043F67A33C5F60201C0F600030A68C2F3B3
:1009C00003229A5C096801F00F0102F01F02595CD2
:1009D000D04040F22402C2F2004201F01F0120FA8E
:1009E00001F1116040F22001C2F2004108600F20C5
:1009F00000F00AF800281CBF012080BD00F02CF890
:100A0000002080BD0000000070B540F21806C2F260
:100A100000463178E1B1044640F22000C2F20040C5
:100A20004FF47A72B2FBF1F10068B0FBF1F002F022
:100A3000F3F90F2C4FF0010508D838B94FF0FF300B
:100A400000222146002500F02BF87460284670BD76
:100A5000012070BD0000000081B044F2F440C5F6F2
:100A60000200016841F002010160006800F002002C
:100A70000090009801B07047002848BF704700F010
:100A80001F01012202FA01F14EF20012C0F34A10D6
:100A9000CEF2000242F82010704700000000000073
:100AA00070B54EF60C5C4FF0FF36CEF2000C00F144
:100AB000604505F56445DCF80030C3F3022E8EF086
:100AC0000703042B28BF0423BEF1030406FA03F333
:100AD00021EA030100F00F0338BF0024043B002883
:100AE000634406FA04F048BF03F10C05A14022EA72
:100AF000000008430001287070BD000000000000E5
:100B00004EF60C514FF6FF03CEF200010A681A4070
:100B100060F30A2242F0806040F0FD700860704788
:100B2000B0B544F60C05C5F60205296849072968E1
:100B300006D401F00701081A18BF0120B0BD00BF9C
:100B400021F0070108432860FFF712FF044600BFA9
:100B500055F8080C800407D4FFF70AFF001BB0F516
:100B60007A7FF5D90120B0BD0020B0BD00000000A3
:100B70002DE9F0470446C07844F22C480007C5F63A
:100B8000020833D5A06E4FEA305103290CD8DFE8B4
:100B900001F003111D2600BFD8F8001041F4003108
:100BA000C8F800101BE000BF01266078C0070BD01A
:100BB00020E000BF04F10800022102F05DFB0646C0
:100BC00060B16078C00715D1354646E004F12800D1
:100BD000022102F0E5FB06460028F2D1A06ED8F80B
:100BE000241021F440110843C8F82400002660783E
:100BF000C007E9D0A06D04280ED83546DFE800F024
:100C00000412181E1E0000BFD8F80000354640F43C
:100C10000030C8F8000011E0012501276078800746
:100C20001FD452E004F10800002102F025FB04E08B
:100C300004F12800002102F0B3FB05462F461DB148
:100C4000607880070DD440E0D8F82400A16D20F032
:100C5000070000250843C8F824003746607880075D
:100C600033D5E06D4FEAB01004280DD8DFE800F06E
:100C70000412181E1E0000BFD8F8000040F4003017
:100C8000C8F8000012E000BF012501266078400787
:100C90001FD455E004F10800002102F0EDFA04E051
:100CA00004F12800002102F07BFB05462E461DB111
:100CB000607840070DD443E0D8F82400E16D20F4BB
:100CC000E07000250843C8F824003E4660784007DD
:100CD00036D5D4F8A8004FEA705004280CD8DFE8C5
:100CE00000F00313191F1F00D8F8000040F4003073
:100CF000C8F8000014E000BF01254FF0010960783A
:100D0000000721D456E000BF04F10800002102F0E2
:100D1000B3FA04E004F12800002102F041FB05468B
:100D2000A9461DB1607800070ED443E0D8F82C0026
:100D3000D4F8A81020F4600000250843C8F82C005F
:100D4000B1466078000735D5D4F8AC004FEA306082
:100D500004280DD8DFE800F00412181E1E0000BFA2
:100D6000D8F8000040F40030C8F8000012E000BFDE
:100D700001250127E078800720D44EE004F1080027
:100D8000002102F079FA04E004F12800002102F0C9
:100D900007FB05462F461DB1E07880070ED43CE0E6
:100DA000D8F82C00D4F8AC1020F0E06000250843FF
:100DB000C8F82C004F46E07880072ED5E06C4FEA4B
:100DC000301003280ED8DFE800F00903130900BF34
:100DD000D8F8000040F40030C8F800002E467DB975
:100DE00012E000BF012501266078C00619D44CE04E
:100DF00004F10800022102F03FFA05462E461DB11B
:100E00006078C0060DD440E0D8F82000E16C20F0F6
:100E1000300000250843C8F820003E466078C00630
:100E200033D5206E4FEA303004280DD8DFE800F0CB
:100E30000412181E1E0000BFD8F8000040F4003055
:100E4000C8F8000012E000BF012501276078800685
:100E50001FD44EE004F10800002102F00DFA04E076
:100E600004F12800002102F09BFA05462F461DB12F
:100E7000607880060DD43CE0D8F82400216E20F480
:100E8000E04000250843C8F8240037466078800613
:100E90002FD5606E4FEA3040052809D8DFE800F012
:100EA000040E1404040400BF2E46ADB918E000BFC0
:100EB00001250126607840061FD44FE004F10800A8
:100EC000012102F0D9F904E004F12800012102F027
:100ED00067FA05462E461DB1607840060DD43DE008
:100EE000D8F82400616E20F4E02000250843C8F8FB
:100EF00024003E466078400630D5D4F8B0004FEA72
:100F00003070052808D8DFE800F0030D1303030351
:100F10002F46ADB918E000BF012501276078000613
:100F200020D442E004F10800012102F0A5F904E018
:100F300004F12800012102F033FA05462F461DB1C5
:100F4000607800060ED430E0D8F82C00D4F8B01049
:100F500020F0E04000250843C8F82C0037466078B0
:100F6000000622D5206F58B1B0F1005F0CD0B0F16F
:100F7000805F2FD1D8F8000040F40030C8F800009E
:100F80002E469DB908E000BF04F10800012102F0DF
:100F900073F905462E464DB9D8F82400216F20F08C
:100FA000405000250843C8F824003E46E078C007BA
:100FB00033D0A06C032813D8DFE800F008021A0829
:100FC000D8F8000040F40030C8F80000A946BDB9C8
:100FD0001AE000BF01250126E078C007E9D11CE036
:100FE00001254FF00109A07840061AD51CE000BF8A
:100FF00004F10800022102F03FF90546A9461DB19F
:10100000A07840060DD50FE0D8F82000A16C20F0A4
:10101000030000250843C8F82000B146A078400628
:1010200002D44F4618E000BFD8F8D40340F48070D3
:10103000C8F8D403FFF79CFC064600BFD8F8D403D9
:10104000C00507D4FFF794FC801B6428F6D903255C
:10105000032701E02F468DB12078C00761D0E06FF3
:101060004FEAF00005283BD8DFE800F004404604D2
:10107000040400BF002D2E4646D149E0D8F84410A4
:10108000D4F8B400414011F4407F11D0D8F8441096
:10109000D8F8442042F48032C8F84420D8F84420DC
:1010A00021F4407122F48032C8F84420C8F844107A
:1010B000B0F5807F40F0DE82FFF75AFC064641F231
:1010C000883A0325032700BFD8F84400800700F1C1
:1010D000CF82FFF74DFC801B5045F5D9BCE700BF20
:1010E00001250126207880071FD44CE004F1080078
:1010F000012102F0C1F804E004F12800012102F00E
:101100004FF905462E461DB1207880070DD43AE0F0
:10111000D8F82800E16F20F0380000250843C8F80F
:1011200028003E46207880072DD5A06F052809D8D5
:10113000DFE800F0040E1404040400BF2F46ADB92C
:1011400018E000BF01250127207840071FD44DE09B
:1011500004F10800012102F08FF804E004F12800F6
:10116000012102F01DF905462F461DB120784007E8
:101170000DD43BE0D8F82800A16F20F0070000252F
:101180000843C8F828003746207840072ED5D4F801
:101190009400052808D8DFE800F0030D13030303CB
:1011A0002E46ADB918E000BF012501262078800643
:1011B00020D451E004F10800012102F05DF804E0C0
:1011C00004F12800012102F0EBF805462E461DB17E
:1011D000207880060ED43FE0D8F82C00D4F8941084
:1011E00020F0070000250843C8F82C003E46207870
:1011F000800631D5D4F890004FEA3070052809D820
:10120000DFE800F0040E1404040400BF2F46ADB95B
:1012100018E000BF012501272078400620D451E0C6
:1012200004F10800002102F027F804E004F128008E
:10123000022102F0B5F805462F461DB12078400680
:101240000ED43FE0D8F82800D4F8901020F0E04009
:1012500000250843C8F8280037462078400631D5D5
:10126000D4F89C004FEAB020052809D8DFE800F048
:10127000040E1404040400BF2E46ADB918E000BFEC
:10128000012501262078000620D454E004F108004E
:10129000002101F0F1FF04E004F12800022102F036
:1012A0007FF805462E461DB1207800060ED442E098
:1012B000D8F82C00D4F89C1020F4E0500025084306
:1012C000C8F82C003E462078000634D5D4F8A0009B
:1012D0004FEA703005280FD8DFE800F004141A0434
:1012E000040400BF2F46E5B12068010727D4C106DA
:1012F0003ED4000355D475E001250127206801077D
:10130000F5D51CE004F10800002101F0B5FF04E070
:1013100004F12800022102F043F80546002D2F4673
:10132000E2D1D8F82C00D4F8A01020F460400025B9
:101330000843C8F82C00374620680107D7D5D4F8F1
:101340008400B0F5805F09D104F12800022102F089
:1013500027F8002818BF0127D4F88400D8F82810EF
:1013600021F440510843C8F828002068C106C0D5C0
:10137000D4F89800B0F5807F09D104F1280002214B
:1013800002F00EF8002818BF0127D4F89800D8F80A
:101390002C1021F440710843C8F82C002068000389
:1013A00020D5D4F8A400B0F5003F0FD0B0F5803FB1
:1013B00006D078BB04F10800002101F05DFF04E0D5
:1013C00004F12800022101F0EBFF05462E4655B935
:1013D000D8F82C00D4F8A41020F44030002508439D
:1013E000C8F82C003E46A07840072BD5D4F88800DA
:1013F000B0F5401F0BD0B0F5001F11D0B0F5801F25
:101400002AD1D8F8000040F40030C8F800002F4678
:10141000CDB90DE001250126A0784007E6D411E002
:1014200004F12800012101F0BBFF05462F4655B904
:10143000D8F82800D4F8881020F44010002508437C
:10144000C8F828003746A078C0070AD13E46216870
:10145000880016D533E000BF01250127A078C0071A
:10146000F4D0206DB0F5803F10D018BBD8F8000044
:1014700040F40030C8F800002E4685B1216888008D
:101480001DD460688A0326D469E000BF04F1080017
:10149000022101F0F1FE0546002D2E46EED1D8F8CE
:1014A0002000216D20F4803000250843C8F820007A
:1014B000CCE700BF0125012621688800E1D504F1B1
:1014C0002800022101F06CFF002818BF0126D4E992
:1014D00000108A0343D5D4F880206FF0010303EB9A
:1014E0003223022B0BD34FEA322343B1012B40F0BE
:1014F000B980D8F8003043F40033C8F800303DB369
:10150000CA022FD4CA0037D48A0240D44A0048D431
:10151000CA0F55D109025DD4C10766D181076FD4C6
:10152000410779D4010700F18380C10600F18C8066
:10153000800607D504F12800022101F031FF0028C0
:1015400018BF0125002D18BF01252846BDE8F087EA
:10155000D8F8283023F440731A43C8F828203546B9
:10156000CA02CFD5D8F82420636F22F000421A4374
:10157000C8F82420CA00C7D558F81C2CD4F8B830B5
:1015800022F480421A4348F81C2C8A02BED5D8F8AF
:101590002420E36E22F080721A43C8F824204A0007
:1015A000B6D558F81C2C22F4004248F81C2CD4F86C
:1015B000BC2058F81C3C1A4348F81C2CCA0FA9D070
:1015C000D8F82020636D22F040521A43C8F820203A
:1015D0000902A1D5D8F82810D4F88C2021F44001B4
:1015E0001143C8F82810C10798D004F10800002161
:1015F00001F042FE002818BF0546606881078FD5BC
:1016000004F10800012101F037FE002818BF05464B
:10161000606841077FF586AF04F10800022101F000
:101620002BFE002818BF0546606801077FF57DAFD7
:1016300004F12800002101F0B3FE002818BF054680
:101640006068C1067FF574AF04F12800012101F044
:10165000A7FE002818BF0546606880063FF56AAF00
:1016600070E700BF0125CA027FF54CAF7AE700BFE3
:10167000D4F8B4004FF6CF7358F81C2CC0F2FF0317
:1016800000F4407122F47C5203EA10136FF31F3010
:10169000B1F5407F08BF1A43002548F81C2CD8F844
:1016A00044100843C8F84400FFF7BBBC000000002A
:1016B0002DE9F04381B0002800F02A8142F20008B1
:1016C0000446C5F200288946D8F8000000F00F0053
:1016D00088420ED2D8F8000020F00F0040EA09003E
:1016E000C8F80000D8F8000000F00F00484540F0AE
:1016F0000F81206844F218474107C5F602070AD552
:1017000021693A6802F07002914204D93A6822F0E5
:1017100070021143396001070AD561697A6802F0E5
:101720007002914204D97A6822F070021143796004
:10173000C1060AD5A1697A6802F4E062914204D92F
:101740007A6822F4E0621143796081060AD5E16982
:10175000BA6802F07002914204D9BA6822F07002AD
:101760001143B96010F002010AD0E2683B6803F04F
:101770000F039A4204D93B6823F00F031A433A60DF
:10178000C20746D03968D4E9010221F4706101280A
:1017900041EA0201396009D003280DD0022811D195
:1017A00057F8181C890312D4B2E000BF57F8181C70
:1017B000C9050CD4ACE000BF57F8181C890106D449
:1017C000A6E000BF57F8181C490740F1A18057F860
:1017D000081C21F00701084347F8080CFFF7C8F878
:1017E000064641F2883500BF57F8080C616800F0E2
:1017F0003800B0EBC10F09D0FFF7BAF8801BA84240
:10180000F2D9032001B0BDE8F08300BF206800F0EA
:10181000020151B1E1683A6802F00F02914204D22C
:101820003A6822F00F0211433960D8F8001001F035
:101830000F0149450DD9D8F8001021F00F0141EAF8
:101840000901C8F80010D8F8001001F00F0149454F
:101850005ED141070AD521693A6802F070029142CF
:1018600004D23A6822F070021143396001070AD5A8
:1018700061697A6802F07002914204D27A6822F0BB
:10188000700211437960C1060AD5A1697A6802F431
:10189000E062914204D27A6822F4E06211437960F6
:1018A00080060AD5E069B96801F07001884204D267
:1018B000B96821F070010843B86000F02DF839686C
:1018C00043F67A32C0F60002C1F30321515C3B6853
:1018D00003F00F0301F01F01D25C20FA01F102F0C6
:1018E0001F0040F22402C2F2004221FA00F0106010
:1018F00040F21C0040F22002C2F20040C2F200425C
:101900000068116001B0BDE8F043FFF77DB800BF8B
:10191000012001B0BDE8F08344F20041C5F60201A8
:101920000869C0F3C200032810D002282ED098BB4B
:101930000868800649F20000C0F2D03058BF7047F6
:101940000968C1F3C101C840704700BF8A6A886A4C
:10195000C0F3051CC86ABCF1000F4B6B22D000F02D
:10196000010002F003024042022A00EAD3006FF3B2
:101970005F3000EE100AB8EE400A15D0C2B9086810
:10198000800619D49FED281A23E000BF46F60040D8
:10199000C0F2DC20704700BF40F60010C0F23D00EE
:1019A000704700BF002070479FED1E1A11E000BF76
:1019B0009FED1B1A0DE000BF086849F20002C0F25B
:1019C000D032C0F3C10022FA00F001EE100AB8EEE6
:1019D000411A086B9FED153A6FF35F2002EE100A73
:1019E000086BC0F34620B8EE422A013000EE032A0D
:1019F00000EE10CAB7EE003AB8EE400A81EE000AD7
:101A000032EE031A20EE010A01EE100AB8EE411A76
:101A100080EE010ABCEEC00A10EE100A704700BF4B
:101A20000024744A001B374C0024744C0000003919
:101A300070B3F0B581B00446007844F20046C007A8
:101A4000C5F6020626D12078800740F1C2803069B1
:101A500010F03801B06A43D0182908BF5FEA8070DF
:101A60003ED0E0683168002866D021F019010843B3
:101A70003060FEF77DFF0546306840074CD4FEF726
:101A800077FF401B0228F7D9032001B0F0BD00BF4B
:101A900001207047306900F03801B06A102905D084
:101AA00018290BD100F00300022807D13068800309
:101AB000C9D560680028C6D13CE100BF6068002835
:101AC0004CD0B0F5A02F61D0B0F5803F62D0306827
:101AD00020F480303060306820F480205DE000BF6A
:101AE00030684007E06802D5002800F023813168A3
:101AF00021F0190108433060FEF73AFF054600BFA8
:101B00003068400708D4FEF733FF401B02284FF02F
:101B10000300F5D901B0F0BDFEF722FF41F2030149
:101B200088424BD820697168402821F47C314DD11E
:101B300041F400304CE000BF21F001003060FEF7BE
:101B400017FF05463068400743D5FEF711FF401BDD
:101B500002284FF00300F5D9DCE700BF306820F41D
:101B600080303060306820F480203060FEF700FF65
:101B7000054600BF306880037FF565AFFEF7F8FECD
:101B8000401B64284FF00300F4D9C3E7306840F4E9
:101B900080203060306840F480303060FEF7E8FE2E
:101BA000054600BF306880033FF54DAFFEF7E0FE0D
:101BB000401B6428F6D9032001B0F0BD706821698C
:101BC00020F0FE4040EA016002E000BF41EA003040
:101BD00070602078C00654D5306900F03801B06AD2
:101BE000082905D0182919D100F00300012815D1C2
:101BF0003068C00503D5E069802840F09B80FEF77F
:101C0000AFFE41F2030188421ED8206A7168202885
:101C100021F0F84132D141F0804031E0E069002804
:101C2000306819D040F080003060FEF7A1FE054614
:101C30003068C005E3D4FEF79BFE401B02284FF03E
:101C40000300F5D966E700BFF068216A20F07C50F8
:101C500040EA0160F06014E020F080003060FEF7A0
:101C600087FE05463068C0050BD5FEF781FE401B98
:101C700002284FF00300F5D94CE700BF41EA80602D
:101C80007060207800073FD42078800656D42078F2
:101C9000400769D4656A9DB3306900F038001828A0
:101CA00040F0AC80012DB16A306B43D001F00302EB
:101CB000A36A9A423ED1C1F30511E26A914239D139
:101CC0000146226B6FF35F21013A914232D1C0F39A
:101CD0004622616B01398A422CD1C0F30642A16BC6
:101CE00001398A4226D1C0F30660E16B013988428E
:101CF00020D1706BA16CC0F3CC00814240F03481E4
:101D0000002001B0F0BD00BF60690028706F41D0B5
:101D100040F001007067FEF72BFE0546706F8007EC
:101D2000B2D4FEF725FE401B0228F7D9032001B0EC
:101D3000F0BD00BF012001B0F0BD00BFA0690028C8
:101D4000306849D040F480503060FEF711FE0546FF
:101D5000306880049BD4FEF70BFE401B0228F7D9A5
:101D6000032001B0F0BD00BFD6F8000440F480703D
:101D7000C6F80004FEF7FCFD054600BFD6F80004D7
:101D8000C00519D4FEF7F4FD401B6428F6D90320E2
:101D900001B0F0BD20F001007067FEF7E9FD0546D7
:101DA000706F80077FF570AFFEF7E2FD401B0228E1
:101DB0004FF00300F4D9ADE6A068002840D0052814
:101DC00058D001285AD0306F20F001003067306FB2
:101DD00020F0040055E000BF20F480503060FEF792
:101DE000C7FD0546306880047FF551AFFEF7C0FDA2
:101DF000401B02284FF00300F4D98BE6306820F036
:101E000080703060FEF7B4FD022D05460CD100BF96
:101E10003068800148D5FEF7ABFD401B02284FF02B
:101E20000300F5D976E600BF306880017FF568AF22
:101E3000FEF79EFD401B02284FF00300F4D969E62F
:101E4000306F20F001003067306F20F00400306701
:101E5000FEF78EFD054641F28837306F80077FF52B
:101E600019AFFEF785FD401BB8424FF00300F4D9CF
:101E700050E600BF306F40F004003067306F40F034
:101E800001003067FEF774FD054641F2883700BF58
:101E9000306F80073FF5FEAEFEF76AFD401BB8428B
:101EA0004FF00300F4D935E604F12807B06A40F298
:101EB000F33188438ECF0843591E40EA02104FF495
:101EC0007E426FF35F21B06202EB47204FF4FE02C7
:101ED00080B2E36B0844A16B02EB01414FF0FE427C
:101EE00001F4FE0102EB0362084402F0FE410844E3
:101EF0003063F06A4FF6F87120F00100F062706B09
:101F0000A26C884340EAC2007063F06A216C20F042
:101F10000C000843F062F06A616C20F00200084394
:101F2000F062F06A40F48030F062F06A40F4003011
:101F3000F062F06A40F48020F062F06A40F0010044
:101F4000F062306840F080703060FEF711FD0446AA
:101F5000306880013FF5D4AEFEF70AFD001B022871
:101F60004FF00300F4D9D5E5F06A20F00100F062EB
:101F7000FEF7FEFC0546FEF7FBFCA842FBD0706BAB
:101F80004FF6F871A26C884340EAC2007063F06AB1
:101F900040F00100F062002001B0F0BD0000000040
:101FA000704700000000000070B504460068026938
:101FB0004369816894F881501E050BD512F008061C
:101FC00008D0816941F4006181612046BDE870401C
:101FD00000F0C2BD03EA020606F06402042A07D13B
:101FE000616F20468847216F2046BDE87040084752
:101FF00006F04502012A07D1216F2046884706F0E6
:102000002600022804D070BD06F02602022A05D15F
:10201000616F2046BDE87040084700BF320711D409
:1020200016F4587FEFD070065CD4B00567D4F00585
:1020300072D4B00600F17E80D4F88400002840F00D
:102040008980E0E721688A6942F008028A618A692A
:1020500042F010028A618A6942F400628A610A6968
:1020600022F008020A61896811F4404F23D020460B
:1020700001F032FA012084F88100D4F884000028AD
:1020800040F0A180032D00F0A380042D00F0A68075
:10209000052DB8D12046BDE8704000F0B9BE00BFA4
:1020A0002268616E126B41F8042B6166B4F86A1005
:1020B0000139A4F86A10B4F86A100029D7D0E16891
:1020C0001029EDD2082905D3028E616E21F8022B6A
:1020D000EBE700BF216891F83010626E1170616EFD
:1020E0000131E2E72068D4F8842042F00402C4F809
:1020F0008420826942F040028261B00597D5206851
:10210000D4F8842042F00102C4F88420826942F4A9
:1021100000728261F0058CD52068D4F8842042F0EA
:102120000802C4F88420826942F480728261B00699
:102130007FF582AF2068D4F8842042F08002C4F892
:102140008420826942F020028261D4F88400002851
:102150003FF459AF206801F4404140F26B33B1F5D0
:10216000404F026822F001020260026922EA030184
:10217000016125D1816843F2A95521F44041816074
:10218000E06FC0F6000548B10565FEF785F928B196
:10219000D4F8840040F04000C4F88400A06F002808
:1021A0003FF431AF0565FEF777F9002808BF70BD31
:1021B000D4F8840040F04000C4F8840070BD00BF33
:1021C000012084F881002046BDE87040FFF7E8BE9A
:1021D0002046BDE8704000F017BE00BF2046BDE8B5
:1021E000704000F0B1B9000000284DD02DE9F04F4B
:1021F00081B043F6000104460068C4F2000143F2D6
:10220000000E43F6004C8842C4F2010EC4F2000CEA
:102210004FF00002A26203D0604518BF704541D163
:10222000E36B0125E268884202F1080205EB5313D3
:102230004FEAD20202FB03F318BF704526D1102BE0
:1022400033D894F8810028B9002084F88000204613
:1022500000F0AAF8022084F88100D4E90009D4F83B
:1022600018800368B8F1806F23F00103036083686E
:1022700003F4F81E26D1B9F1000F1BD0B9F5800F79
:1022800020D1A36B23BB19E001207047604518BF24
:10229000082B0AD80CF574418842D0D06045CED0C6
:1022A000CFE700BFE3680F2BBAD9012001B0BDE82A
:1022B000F08F00BFA36BB3F1805F06D1036843F4D6
:1022C000805303605FEA492302D44FF0010C0FE012
:1022D000E368072B0AD3056825F4807C256D45EA61
:1022E0000C0505604FF0000C07E000BF4FF0000C3C
:1022F000036823F480730360E368E769A26A47EA2E
:102300000E07E16B3A43A7681143B9F1000FD4E916
:1023100004BA41EA03018160616BA56B626A41EA1C
:102320000201226A41EA050141EA0B0141EA0A0180
:10233000D4E9126341EA0201A26D41EA030141EAD4
:10234000070141EA060141EA020141EA080141EAC6
:102350000901C1600ED0016DBCF1000F21F0010137
:10236000016515D1C168626D21F000411143C16062
:102370000EE000BF8168012262F3CC218160816898
:10238000022262F34A218160016D21F001010165A1
:102390000020C4F88400012184F8811001B0BDE858
:1023A000F08F000000000000B0B5B6B069460446EA
:1023B00001F128009821FDF7F5FF43F200012068A4
:1023C000C4F20101884201D036B0B0BD4FF4805054
:1023D000009018906846002401940321029109217D
:1023E0000391012104910225C021CDE905550791F2
:1023F000202108914FF440610991FEF7B9FB08B123
:10240000FEF742F844F2E040C5F60200016941F4EB
:1024100080510161016901F4805131913199016864
:1024200041F001010160006831A900F00100319024
:102430003198E020CDE93105052035900020C5F622
:102440000200CDE93344FEF7AFF92320002100223A
:10245000FEF726FB2320FEF70FFB36B0B0BD0000D1
:1024600090F88030012B01D10220704790F8813024
:10247000012B09D10123002918BF002A0AD100210C
:1024800080F88010184670470223002180F88010E1
:1024900018467047042380F881300023C0F8843048
:1024A0004166A0F86820A0F86A20C365A0F86030F3
:1024B000A0F86230C1684367102905D343F2F15197
:1024C000C0F600010CE000BF082905D343F2C1515A
:1024D000C0F6000104E000BF43F22161C0F6000134
:1024E00001678168B1F5C02F016805D10B6823F43D
:1024F00000630B6007E000BFD1F80CC0022363F358
:10250000524CC1F80CC0D1F804C04FF6FF732CEA4E
:1025100003031A444A600A6840F2497342F0010218
:102520000A600A691A430A614268B2F5800F03D152
:102530000A6842F400720A600023002180F88010CB
:10254000184670470000000040F2E801C2F2004166
:10255000884218BF70472DE9F04F81B040F28808DB
:102560001022C2F20048C0F60052D8F80A10914278
:1025700032D05021D8F80A00CFF60041884240F00E
:10258000DB82B8F8022043F69030C0F6000040F23B
:1025900000019FED0F2B00EBC200C2F20041B6EE2E
:1025A000000B009290ED001B21EE021B91ED042B1D
:1025B000BCFEC11B32EE000B11EE100A81ED040BC4
:1025C00083B2002800F16E811A011B0971E100BF7E
:1025D000B81E85EB51783440B8F800C043F690310E
:1025E000C0F600011FED062B01EBCC01B6EE000B8F
:1025F00091ED001B40F2000121EE021BC2F20041EE
:1026000091ED022BBCFEC11B32EE000B11EE102A25
:1026100081ED020B93B2002A02D41A011B0906E0D5
:102620000022A2EB03171A01FF2383EA1723DBB270
:102630000978C2F381174FF0004A41EA931188F8F4
:102640000E1047EA83032824920088F81020D6B29F
:102650001F043FFA87F74FF0FF3E47EA0161FF276B
:1026600041EA062297216FF0200988F80F30A0B2C6
:102670001EFA84F6C0F1210022FA06F607FA00F0ED
:1026800019FA84F53043002D58BF27FA05F000F001
:102690000100404200EA0A0508406A404740B2F59E
:1026A000807077F10000C0F0FB80651E5FEA510B7F
:1026B000AEB24FEA3A001EFA85F3C6F1210622FABD
:1026C00003F307FA06F619FA85F53343002D58BFD0
:1026D00027FA05F303F001035B42184003EA0B03FA
:1026E00042405F40B2F5807077F10000C0F0D880C2
:1026F000A01E83B21EFA80F5C3F1210322FA05F56C
:1027000007FA03F319FA80F02B43002858BF27FA81
:1027100000F34FEA9A0003F0010340EA81705B4244
:10272000184003EA910342405F40B2F5807077F1B0
:102730000000C0F0B580E01E83B21EFA80F5C3F140
:10274000210322FA05F507FA03F319FA80F02B4367
:10275000002858BF27FA00F34FEADA0003F001031C
:1027600040EA41705B42184003EAD10342405F40B7
:10277000B2F5807077F10000C0F09280201F83B224
:102780001EFA80F5C3F1210322FA05F507FA03F3D7
:1027900019FA80F02B43002858BF27FA00F34FEABC
:1027A0001A1003F0010340EA01705B42184003EA8B
:1027B000111342405F40B2F5807077F100006FD393
:1027C000601F83B21EFA80F5C3F1210322FA05F5DA
:1027D00007FA03F319FA80F02B43002858BF27FAB1
:1027E00000F34FEA5A1003F0010340EAC1605B4274
:1027F000184003EA511342405F40B2F5807077F110
:1028000000004DD3A01F83B21EFA80F5C3F121034F
:1028100022FA05F507FA03F319FA80F02B43002892
:1028200058BF27FA00F34FEA9A1003F0010340EA79
:1028300081605B42184003EA911342405F40B2F569
:10284000807077F100002BD3E01F83B21EFA80F571
:10285000C3F1210322FA05F507FA03F319FA80F010
:102860002B43002858BF27FA00F34FEADA1003F091
:10287000010340EA41605B42184003EAD113424041
:102880005F40B2F5807077F1000009D34FEA1A205B
:10289000083C40EA016A20044FEA11217FF4E7AEC8
:1028A000C64643E100201A01A0EB0310FF2383EA90
:1028B000102348784FF0004BD9B2FF27C2F38113A1
:1028C000282440EA911088F80E0043EA810188F834
:1028D0000F10920088F81020D3B209043FFA81F15A
:1028E0004FF0FF3941EA0060972140EA03226FF080
:1028F000200A08F1020EA0B219FA84F5C0F12100F5
:1029000022FA05F507FA00F01AFA84F62843002E99
:1029100058BF27FA06F000F00100404200EA0B051C
:1029200008406A404740B2F5807077F10000C0F07F
:10293000FB80651E5FEA5100AEB24FEA3B0C19FA0C
:1029400085F3C6F1210622FA03F307FA06F61AFA0E
:1029500085F53343002D58BF27FA05F303F0010333
:102960005B4203EA0C06184072404740B2F58070A3
:1029700077F10000C0F0D880A01E83B219FA80F66B
:10298000C3F1210322FA06F607FA03F31AFA80F0DC
:102990003343002858BF27FA00F34FEA9B0003F0A7
:1029A000010340EA81705B42184003EA9103424010
:1029B0005F40B2F5807077F10000C0F0B580E01E96
:1029C00083B219FA80F6C3F1210322FA06F607FA58
:1029D00003F31AFA80F03343002858BF27FA00F3B4
:1029E0004FEADB0003F0010340EA41705B4218400C
:1029F00003EAD10342405F40B2F5807077F10000F6
:102A0000C0F09280201F83B219FA80F6C3F121032F
:102A100022FA06F607FA03F31AFA80F03343002885
:102A200058BF27FA00F34FEA1B1003F0010340EAF6
:102A300001705B42184003EA111342405F40B2F557
:102A4000807077F100006FD3601F83B219FA80F6AF
:102A5000C3F1210322FA06F607FA03F31AFA80F00B
:102A60003343002858BF27FA00F34FEA5B1003F006
:102A7000010340EAC1605B42184003EA511342403F
:102A80005F40B2F5807077F100004DD3A01F83B294
:102A900019FA80F6C3F1210322FA06F607FA03F3C6
:102AA0001AFA80F03343002858BF27FA00F34FEAA0
:102AB0009B1003F0010340EA81605B42184003EA87
:102AC000911342405F40B2F5807077F100002BD344
:102AD000E01F83B219FA80F6C3F1210322FA06F649
:102AE00007FA03F31AFA80F03343002858BF27FA95
:102AF00000F34FEADB1003F0010340EA41605B4260
:102B0000184003EAD11342405F40B2F5807077F17C
:102B1000000009D34FEA1B20083C40EA016B200467
:102B20004FEA11217FF4E7AEDDF800C088F81120EC
:102B30000CF10100AEF8000040F2E80008F10E01CF
:102B4000C2F200400422002301B0BDE8F04F00F0C3
:102B500007B80000000000007047000000000000FF
:102B60002DE9F047044690F88000012802D10220A8
:102B7000BDE8F0871D4617460E46D4F800900120A8
:102B800084F88000FDF7F4FE94F88110012909D142
:102B9000002E18BF002F0BD1002084F880000120E8
:102BA000BDE8F087002084F880000220BDE8F087AF
:102BB0008046032084F881000020C4F88400E66584
:102BC000A4F86070A4F862706066A4F86800A4F8C5
:102BD0006A00A1682067B1F5C02F6067206805D141
:102BE000016841F40061016005E000BFC168012295
:102BF00062F35241C16041684FF6FF72914339441C
:102C00004160016841F0010101606168B1F5800F28
:102C100003D1016841F400710160E16810294DD3CE
:102C2000B4F86200002800F0C580681C0FD132E0C3
:102C3000E16D51F8042B0262E165B4F862000138DD
:102C4000A4F86200B4F86200002800F0B3802068A5
:102C500041698907ECD4FDF78BFEA0EB0800A84280
:102C6000F0D3204600F038FC002084F88000D4F82F
:102C7000840040F48070C4F88400012084F881004E
:102C80000320BDE8F08700BFFDF772FEB4F86200D4
:102C9000002800F08F80206841698907F4D5E16D34
:102CA00051F8042B0262E165B4F862000138A4F81F
:102CB0006200B4F862000028EDD17BE0B4F8620055
:102CC000072933D9002875D04FF6FE706E1C471CBB
:102CD00013E000BFE06B0028E06D20D050F8042B1B
:102CE0000A624FF6FE71E065B4F862000844A4F889
:102CF0006200B4F8620000285CD02168486980074F
:102D000008D4FDF735FE002EF3D0A0EB0800A84252
:102D1000EFD3A6E7B4F862000128DBD8E06D30F805
:102D2000021BA9F820103946DDE700BF002841D07A
:102D30004FF6FE706E1CA0F1020A471C0EE000BFA9
:102D4000E16D51F8042B02625046E165B4F862105F
:102D50000844A4F86200B4F8620058B320684169DE
:102D6000890709D4FDF704FE002EF4D0A0EB08007B
:102D7000A842F0D375E700BFB4F86210042902D36B
:102D8000E16B4129DCD2B4F8621001290AD9E16B68
:102D90000029E16D07D031F8020BA9F820004FF6A9
:102DA000FE70D2E7E16D097880F82010E06D411CDB
:102DB0003846CAE7681C13D020684069000713D45E
:102DC000FDF7D6FDA0EB0800A842F5D3D4F88400A7
:102DD00040F02000C4F8840006E000BFFDF7C8FD05
:102DE000206840690007F9D5204600F075FB0020F7
:102DF00084F88000012084F88100D4F88400002841
:102E000018BF0120BDE8F0877047000000000000F7
:102E10007047000000000000411E0020B0EB116F61
:102E200002D00120704700BF4EF21002F023CEF214
:102E3000000251604EF62351CEF200010B700721C3
:102E4000906011607047000090F83C20012A4FF01C
:102E500002025ED0B0B580F83D2040F2004C02681E
:102E6000C4F2010C42F4806363455368D2F808E071
:102E700002BF23F470034C68234341F2FF740D68D2
:102E8000C4F2000423F07003A24243EA0503536036
:102E90000CDC40F2FF73C4F200039A4216DCB2F17C
:102EA000804F29D040F2004318E000BF40F2FF33CA
:102EB000C4F201039A4217DC41F60003C4F2000396
:102EC0009A4219D00023C4F2010309E040F600033E
:102ED000C4F200039A420FD040F60043C4F200034C
:102EE0009A4209D00DE000BF44F20003C4F201038E
:102EF0009A4201D0624504D12EF0800389681943BB
:102F000091600022012180F83D1080F83C20BDE84E
:102F1000B04010467047000060B310B5044690F80A
:102F20003D0028B9002084F83C00204600F024F839
:102F3000022084F83D002068211D00F069FC01207A
:102F400084F8480084F83E0084F83F0084F840008C
:102F500084F8410084F8420084F8430084F8440077
:102F600084F8450084F8460084F8470084F83D0062
:102F7000002010BD0120704700210068C4F201014B
:102F8000884218BF704781B044F2F040C5F6020095
:102F9000016841F001010160006800F0010000904B
:102FA000009801B07047000090F83D10012917D13A
:102FB000022180F83D10016841F2FF70C4F2000068
:102FC00081420FDC40F2FF70C4F20000814217DC46
:102FD000B1F1804F2CD040F20040C4F2000025E057
:102FE0000120704740F2FF30C4F20100814213DC3F
:102FF00041F60000C4F20000814219D0002013E025
:1030000040F60000C4F20000814211D040F60040BA
:10301000C4F200000AE000BF44F20000C4F2010064
:10302000814205D040F20040C4F2010081420BD140
:1030300007228868C0F2010202400020062A18BF59
:10304000B2F5803F00D17047086840F00100086089
:10305000002070470000000090F83C20012A4FF04B
:10306000020200F0AA8080B580F83D208822D0F8C6
:1030700000C0CFF6CE72DCF808301A40CCF8082039
:103080000B686F2B0EDDB3F1101F37DAB3F5005F5D
:1030900046DA702B00F09480B3F5805F00F08480F6
:1030A000D8E000BF2F2B33DD4F2B3FDC302B6FD010
:1030B000402B40F0CF80D1F804E0C968DCF8203024
:1030C000DCF8202022F00102CCF82020DCF81820C7
:1030D00022F0F00242EA011123F00A02CCF81810A3
:1030E00042EA0E01CCF820104FF68872DCF8081086
:1030F000CFF6CF721140473154E000BF2F21C0F20C
:1031000010018B423ADCB3F1101F41D020213BE08B
:10311000002B18BF102B3BD0202B39D09AE000BFDA
:1031200062D0B3F5801F33D094E000BF502B6FD036
:10313000602B40F08F80D1F804E0C968DCF82030C3
:1031400023F01003CCF82030DCF81830DCF8202015
:1031500023F4704322F0A00243EA0131CCF81810A6
:1031600042EA0E11CCF820104FF68872DCF80810F5
:10317000CFF6CF721140673114E000BF3021C0F2AA
:1031800010018B4204D04021C0F210018B4261D16A
:103190004FF68872DCF80810CFF6CF721140194351
:1031A00041F00701CCF808100022012180F83D1001
:1031B000002180F83C10BDE880401046704700BFF9
:1031C000D1E901E3C968DCF8082043EA0E0322F4E0
:1031D0007F4243EA01211143CCF80810DCF80810C3
:1031E00041F07701DEE700BFD1E901E3C968DCF80F
:1031F000082043EA0E0322F47F4243EA01211143EF
:10320000CCF80810DCF8081041F48041CAE700BF90
:10321000D1F804E0C968DCF82030DCF8202022F086
:103220000102CCF82020DCF8182022F0F00242EA5B
:10323000011123F00A02CCF8181042EA0E01CCF872
:1032400020104FF68872DCF80810CFF6CF721140CC
:103250005731A7E70122A8E7FEE7000000000000C1
:10326000FEE7000000000000FEE700000000000094
:103270007047000000000000F0B581B044F22C4718
:10328000C5F6020757F8042C02F00302032A03D103
:10329000012001B0F0BD00BF054657F82C0C0C46CC
:1032A00020F0806047F82C0CFDF762FB064600BF5B
:1032B00057F82C0C000105D5FDF75AFB801B02289E
:1032C000F6D964E057F8040CEE6895E80E0020F497
:1032D0007C30012C40EA0130A2F101016FF35F2143
:1032E0004FF47E4202EB432247F8040C92B24FF0B7
:1032F000FE4302EB01004FF4FE012A6901EB064197
:1033000001F4FE0103EB0262084402F0FE410844AE
:10331000F8603868696920F0C00040EA0100386050
:103320003868A96920F0200040EA01003860386858
:103330004FF6F87120F0100038603869EA6920EA29
:1033400001004FF4001140EAC2003861386808BF3C
:103350004FF4801140F01000002C386008BF4FF48B
:10336000002138680843386057F82C0C40F0806022
:1033700047F82C0CFDF7FCFA044600BF57F82C0C5C
:10338000000107D4FDF7F4FA001B0328F6D303204D
:1033900001B0F0BD002001B0F0BD00000000000051
:1033A000F0B581B044F22C47C5F6020757F8042C5B
:1033B00002F00302032A03D1012001B0F0BD00BFD7
:1033C000054657F82C0C0C4620F0805047F82C0C82
:1033D000FDF7CEFA064600BF57F82C0C800005D545
:1033E000FDF7C6FA801B0228F6D964E057F8040CF2
:1033F000EE6895E80E0020F07C70012C40EA015048
:10340000A2F101016FF35F214FF47E4202EB4322F0
:1034100047F8040C92B24FF0FE4302EB01004FF468
:10342000FE012A6901EB064101F4FE0103EB026291
:10343000084402F0FE41084478613868696920F464
:10344000406040EA010038603868A96920F40070E3
:1034500040EA0100386038684FF6F87120F4807057
:103460003860B869EA6920EA01004FF0807140EAEB
:10347000C200B861386808BF4FF4000140F48070A2
:10348000002C386008BF4FF480013868084338606A
:1034900057F82C0C40F0805047F82C0CFDF768FAD8
:1034A000044600BF57F82C0C800007D4FDF760FAE3
:1034B000001B0328F6D3032001B0F0BD002001B0AB
:1034C000F0BD00000000000040F2E800C2F2004041
:1034D000FEF76ABD00000000016840F26F32D1F8CB
:1034E00014C08B6943F008038B618B6943F01003B0
:1034F0008B610B6823F001030B600B6923EA020266
:103500000A618A6822F440428A6090F88120042A85
:1035100018BF1CF0200209D0D0F8842042F08002AD
:10352000C0F884208A6942F020028A6190F88120E4
:10353000032A18BF1CF040020CD15FEA8C5216D44B
:103540005FEACC5220D40021A0F86210A0F86A10E3
:10355000704700BFD0F8842042F00402C0F88420F5
:103560008A6942F040028A615FEA8C52E8D5D0F85D
:10357000842042F00102C0F884208A6942F400727B
:103580008A615FEACC52DED5D0F8842042F008028E
:10359000C0F884208A6942F480728A610021A0F810
:1035A0006210A0F86A107047806B0021A0F86A10C2
:1035B000A0F86210012180F88110FEF7F1BC000034
:1035C0000168426E0B8E22F8023B4266B0F86A2018
:1035D000013AA0F86A20B0F86A00002818BF7047C6
:1035E000086920F001000861704700000000000039
:1035F0000168426E0B6B42F8043B4266B0F86A20E9
:10360000013AA0F86A20B0F86A00002818BF704795
:10361000086920F001000861704700000000000008
:10362000016891F83010426E1170416E01314166AF
:10363000B0F86A100139A0F86A10B0F86A100029D1
:1036400018BF70470068016921F0010101617047EE
:103650007047000000000000FDF792B90000000074
:10366000B0B59CB044F6180409A84C21C5F6020474
:10367000FCF798FE02200025CDE90755CDE9055558
:10368000CDE90355CDE90155FDF74AFA40F22C404A
:103690000095C5F60000016821F001010160006895
:1036A00000F001000090206840F440402060206855
:1036B00000F44040009000982068800409D42068FD
:1036C00080045CBF20685FEA804002D420688004E8
:1036D000F2D5012009904FF480300A900220322167
:1036E000CDE91200CDE91510CDE917000C20199095
:1036F00009A8032414940025CDE91A55FEF798F97A
:1037000020B1EFF3108072B6FEE700BF01A93F20A1
:1037100031C10820049040204FF48061CDE90500BC
:10372000CDE9071001A80221FDF7C2FF20B1EFF398
:10373000108072B6FEE700BF1CB0B0BD00000000F4
:103740004EF6885042F2000CCEF20000C5F2002C7A
:10375000016841F470010160DCF8000000F00F0026
:10376000062806D8DCF80000072161F30300CCF836
:10377000000044F200404EF67F52C5F60200CEF63D
:10378000F622016841F00101016000210161036836
:103790001A400260DCF80020120706D5DCF8002091
:1037A000072363F30302CCF8002040F2002281617A
:1037B000C161C0F20222016282620022C0F2FF12E5
:1037C000C26240F28022C0F201120263416382634E
:1037D000C16302644164026822F4802202600166CF
:1037E00041F20000C5F600400068B1EB507F05D102
:1037F00048F208100121C5F20010016044F20000F7
:1038000043F2D201C5F200200160704700000000C1
:1038100040F6FF32C4F200029042026810DCB0F1C0
:10382000804F1ED040F20043C4F20003984218D0EB
:1038300040F60003C4F20003984212D015E000BF26
:1038400040F60043C4F2000398420AD040F200431D
:10385000C4F20103984204D00023C4F20103984249
:1038600003D122F070024B681A434FF6FF7343F600
:10387000FF7CC4F20003C4F2010C984214DD6045E1
:1038800022DD44F20003C4F20103984234D044F62E
:103890000003C4F2010398422ED044F20043C4F264
:1038A0000103984228D02BE040F2FF73C4F20003DA
:1038B000984215DCB0F1804F1ED040F20043C4F2B4
:1038C0000003984218D01BE00023C4F20103984281
:1038D00012D040F20043C4F2010398420CD00FE032
:1038E00040F60003C4F20003984205D040F60043BE
:1038F000C4F20003984203D122F44072CB681A4309
:1039000010B522F08002D1F800E04C698B682243A8
:103910000260C3626045C0F828E0BDE8104015DDD4
:1039200044F20002C4F2010290421AD044F60002AE
:10393000C4F20102904214D044F20042C4F20102E7
:1039400090420ED001214161704700BF0022C4F2B5
:103950000102904205D040F20042C4F201029042BE
:10396000F0D1096901630121416170470000000045
:10397000FEE70000000000002DE9F04381B02DEDCE
:10398000028B88B040F600040027C5F60204C4F29A
:103990000107FDF705F8FFF763FE44F2E04000265B
:1039A000C5F60200049600224FF40075016841F04C
:1039B00080010160016801F08001059105990168AD
:1039C00041F001010160016801F0010105910599D3
:1039D000016841F00401016000684FF4007100F0DB
:1039E0000400059005982046FCF7B2FF00956D464F
:1039F00001202946CDE9010620460396FCF7D4FEB6
:103A00004FF4806000904FF48810019002200290E3
:103A100020462946FCF7C8FE282000210022FDF799
:103A20003FF82820FDF728F840F2E80507F5405058
:103A3000C2F200452821C5E900060F20AE60C5E9A5
:103A400003064FF08060A86105F134006E61C5E99E
:103A50000866C5E90A66FCF7A5FC2846FEF7C4FB24
:103A600020B1EFF3108072B6FEE700BF40F2880885
:103A70000396C2F20048C7214046CDE9016640F8EE
:103A8000147FC0E901164FF6FF71C0E90316C0E9C3
:103A90000566FFF741FA28B1EFF3108072B600BF58
:103AA000FEE700BF08F114054FF48050009069460E
:103AB0002846FFF7D1FA28B1EFF3108072B600BFA5
:103AC000FEE700BF00200790CDE9050005A92846C4
:103AD000FFF7BAF920B1EFF3108072B6FEE700BF2E
:103AE0002846FFF761FA40F2000640F2E809C2F208
:103AF000004608F10A059FED188BC2F2004996EDC9
:103B0000020B12E0042248462946FEF7A9FC96ED76
:103B1000020BB4EE480BF1EE10FA1EBF96ED041B3B
:103B2000B4EE481BF1EE10FA0ED0B5EE400BF1EEFC
:103B300010FAE7D14FF4007101222046FCF708FF8C
:103B4000786AA8F80400DDE7002008B0BDEC028B1D
:103B500001B0BDE8F08300BF0000000000C072406B
:103B6000F1EE100A4FF6FF71C0F2C03120EA0100F9
:103B700040F04070E1EE100A7047000000000102C2
:103B80000304010203040607080900000000000006
:103B9000F111312592E8C13FF111312592E8D13F71
:103BA000F111312592E8C13F000000000000000043
:103BB000F111312592E8D13FF111312592E8C1BFD1
:103BC000F111312592E8E13FF111312592E8C1BFB1
:103BD000F111312592E8D13FE99AC937DBDCDA3FB0
:103BE000F111312592E8D13F0000000000000000F3
:103BF0000000000000000000F111312592E8C13FF3
:103C0000F111312592E8C13FF111312592E8D13F00
:103C1000E99AC937DBDCDA3FF111312592E8D13F6F
:103C2000F111312592E8C1BFF111312592E8D1BFE0
:103C3000F111312592E8C13FF111312592E8D13FD0
:103C4000F111312592E8C1BFF111312592E8D13F40
:103C5000E99AC937DBDCDABFF111312592E8C13FBF
:103C6000F111312592E8E1BFF111312592E8E13FF0
:103C7000F111312592E8C13F6D567DAEB662E63F47
:103C8000E99AC937DBDCDABFF111312592E8C1BF0F
:103C90000000000000000000F111312592E8E1BFB2
:103CA000F111312592E8D13FF111312592E8E13F40
:103CB0000000000000000000000000000000000004
:103CC000F111312592E8E1BFE99AC937DBDCDA3F2F
:103CD000E99AC937DBDCDABF000000000000000011
:103CE000F111312592E8C1BFF111312592E8D1BF20
:103CF000E99AC937DBDCEA3FF111312592E8C13F8F
:103D0000F111312592E8C1BF000000000000000061
:103D10000000000000000000F111312592E8C1BF51
:103D2000F111312592E8D13FF111312592E8E1BF3F
:103D30000000000000000000E99AC937DBDCDABFB0
:103D40000000000000000000000000000000000073
:103D5000F111312592E8C1BFF111312592E8D13F2F
:103D6000F111312592E8C1BFF111312592E8D1BF9F
:103D70000000000000000000E99AC937DBDCDABF70
:103D8000F111312592E8C1BFF111312592E8D1BF7F
:103D9000F111312592E8C1BFF111312592E8D1BF6F
:103DA000F111312592E8C13FE99AC937DBDCDABF6E
:103DB000F111312592E8C1BFF111312592E8C13FDF
:103DC000F111312592E8D13FF111312592E8C13F3F
:103DD000F111312592E8C1BFF111312592E8C13FBF
:103DE000E99AC937DBDCDA3F6D567DAEB662E6BFD5
:103DF000F111312592E8D13FF111312592E8C13F0F
:103E0000F111312592E8C1BFF111312592E8E13F6E
:103E1000F111312592E8C1BFE99AC937DBDCDABF7D
:103E2000F111312592E8C13FE99AC937DBDCDABFED
:103E30000000000000000000F111312592E8C1BF30
:103E4000F111312592E8D1BFF111312592E8C1BFBE
:103E5000F111312592E8D1BFE99AC937DBDCDA3FAD
:103E6000F111312592E8E1BF0000000000000000E0
:103E70000000000000000000F111312592E8E1BFD0
:103E8000E99AC937DBDCEA3FE99AC937DBDCEABFEC
:103E9000E99AC937DBDCDA3F2F34D769A425F4BFB0
:103EA000F111312592E8C1BFF111312592E8D1BF5E
:103EB000F111312592E8E13FF111312592E8C1BFBE
:103EC000E99AC937DBDCEA3FF111312592E8D1BF2D
:103ED0000000000000000000F111312592E8C1BF90
:103EE000F111312592E8C13FF111312592E8D1BF9E
:103EF000F111312592E8C1BF000000000000000070
:103F0000F111312592E8C1BFF111312592E8D1BFFD
:103F1000F111312592E8E1BFF111312592E8C1BFDD
:103F2000F111312592E8D1BFF111312592E8D13F4D
:103F3000F111312592E8C13F6D567DAEB662E6BF04
:103F4000F111312592E8D13FF111312592E8D1BF2D
:103F5000F111312592E8C13FF111312592E8C1BF3D
:103F6000F111312592E8F13FE99AC937DBDCEABF6C
:103F7000F111312592E8C1BFF111312592E8D1BF8D
:103F8000F111312592E8E1BFE99AC937DBDCDA3F6C
:103F9000F111312592E8E1BFE99AC937DBDCEA3F4C
:103FA0006D567DAEB662E6BFF111312592E8C13F94
:103FB000F111312592E8C1BFE99AC937DBDCDA3F5C
:103FC0000000000000000000F111312592E8C13F1F
:103FD000F111312592E8D13FF111312592E8D1BF9D
:103FE000F111312592E8C13FF111312592E8D13F1D
:103FF000F111312592E8D1BFF111312592E8E13F6D
:104000006D567DAEB662E6BFE99AC937DBDCDABF32
:10401000F111312592E8C1BFE99AC937DBDCDA3FFB
:10402000F111312592E8D1BFF111312592E8C1BFDC
:10403000F111312592E8D1BFF111312592E8C1BFCC
:10404000F111312592E8D13FF111312592E8C1BF3C
:10405000E99AC937DBDCDA3FE99AC937DBDCDA3FBA
:10406000E99AC937DBDCDA3FF111312592E8C13F2B
:10407000F111312592E8C13FF111312592E8C1BF1C
:10408000F111312592E8C13FF111312592E8D13F7C
:104090000000000000000000F111312592E8C13F4E
:1040A000F111312592E8D13FF111312592E8C13F5C
:1040B000E99AC937DBDCDA3FF111312592E8C13FDB
:1040C000F111312592E8C1BFF111312592E8C1BF4C
:1040D0000000000000000000F111312592E8D1BF7E
:1040E000F111312592E8D13FF111312592E8D13F0C
:1040F0000000000000000000E99AC937DBDCEA3F5D
:10410000F111312592E8C13FF111312592E8C1BF8B
:10411000F111312592E8C13F0000000000000000CD
:10412000F111312592E8C13FF111312592E8E13FCB
:10413000F111312592E8E1BF6D567DAEB662E63FE2
:10414000E99AC937DBDCDABFF111312592E8E13FAA
:10415000F111312592E8D13FF111312592E8C13FAB
:104160006D567DAEB662E63FE99AC937DBDCDABF51
:10417000E99AC937DBDCDA3F0000000000000000EC
:10418000E99AC937DBDCDA3FE99AC937DBDCDA3F89
:104190006D567DAEB662E6BFF111312592E8E13F82
:1041A000F111312592E8C1BFF111312592E8C13FEB
:1041B000E99AC937DBDCEA3FE99AC937DBDCDABFC9
:1041C000E99AC937DBDCDA3FF111312592E8C1BF4A
:1041D000E99AC937DBDCDA3F6D567DAEB662E6BFE1
:1041E000F111312592E8D13FF111312592E8D13F0B
:1041F000E99AC937DBDCEABF27BD6F7CED19FD3FCB
:10420000CA89761552BE09C0AB7823F3C89FF83F20
:10421000F111312592E8D1BF62D7F6764BD22CC08E
:104220002E573F36C99F18409301A08A1B0713C021
:104230002F34D769A425F43F7FBDC282FBF116401D
:10424000F111312592E8D1BFE316F37343F735C07E
:10425000E6EB32FCA79B3240511212691B0723C0C8
:1042600013F06B2409CA20C09301A08A1B0713C056
:104270002F34D769A425F43F2E573F36C99F28C055
:10428000FC010F0C206C2BC046CEC29E76380E402F
:1042900046CEC29E76380EC0570A815CE2C827C05F
:1042A0003A24B55032A92D40487023658BFC24C0B8
:1042B00078465B9544E62FC0B212F3ACA42514C037
:1042C000511212691B0723C0A7C98CB7955E30C075
:1042D000B212F3ACA42514C06C79E57ADBDC1AC009
:1042E000C956975302DE33C09ECE15A5841018C060
:1042F00096986725AD4C40C0C289E8D7D677324042
:10430000B5A9BA47366B41C081E84999D4F02D4030
:104310004D68925852BE194065DF15C1FF56FFBF68
:10432000C289E8D7D67722C0AB7823F3C89F08C0EC
:1043300005A4FD0FB07629C0E99AC937DBDCEA3F56
:104340006B9C4D4700570F4000000000000000002C
:104350003A24B55032A91DC0419B1C3EE9B414C09B
:1043600096986725AD4C40C01B13622EA98A2CC0BD
:104370007023658BA42524C0D200DE0209CA004048
:104380002F34D769A425F43FDCF0BBE9964D1AC061
:104390004E452A8C2D4405C0FC010F0C206C2BC00F
:1043A00065DF15C1FF56EFBF2F34D769A425044040
:1043B0008C67D0D03F8107408C67D0D03F810740C9
:1043C000B43D7AC37D242BC0E99AC937DBDCDABF60
:1043D000C9ACDEE176381EC07023658BA42524C0ED
:1043E00024B5503239952AC0F7B0170AD8663C4038
:1043F0003E75AC527AAE3CC0F111312592E8F13FE6
:10440000761BD47E6BE728C0F609A01859AA26C0EF
:1044100027BD6F7CED19FDBF761BD47E6BE728C0EE
:104420006D567DAEB6620640E99AC937DBDCDABF6D
:1044300099D6A6B1BD4E23C0F111312592E8C1BF76
:10444000A71FD4450AB93AC0295FD04202DE2340F3
:104450006C79E57ADBDC1A401171732A19802EC061
:1044600081E84999D4F02DC07F164B917C353140BD
:104470009ECE15A5841028C0D89FC4E74E483BC0E7
:104480003752B648DAED3040FC010F0C206C1BC0EF
:1044900046CEC29E76380EC0BDDF68C70D2F1940CC
:1044A00078465B9544E62FC03A24B55032A91D40AA
:1044B00078F01307D08B35C04D68925852BE29C092
:1044C0003201BF4692E831C067817687141B2640CF
:1044D00000AC8E1CE9B424C059350873BBC71EC09C
:1044E0009301A08A1B0713C0AB7823F3C89FF83F42
:1044F00000AC8E1CE9B42440A0F99CBB5D0F2FC01A
:10450000E99AC937DBDCEA3F511212691B072340E5
:10451000E7A90EB919CC43C05C1D0071576F474025
:1045200064AC36FFAF7639C09ECE15A58410184016
:1045300027BD6F7CED190DC0952C27A1F4052AC06D
:1045400099D6A6B1BD4E2340880E8123819A39C0E9
:104550001B13622EA98A1C4008AC1C5A64FB0BC0BA
:1045600081E84999D4F02DC08C67D0D03F8107C035
:10457000B8E7F9D3466D2440419B1C3EE9B414C012
:1045800062D7F6764BD23CC027BD6F7CED19FD3F5C
:10459000EDB8E177D30134C02F34D769A42504C026
:1045A000DCF0BBE9964D2A40228E75711B0743C093
:1045B000FED64E94841038403A24B55032A93DC0FE
:1045C000F609A01859AA26406B9C4D4700570FC00A
:1045D000CB2BD7DB668230C0B43D7AC37D242B4021
:1045E000357D76C0754934C0102384471B070340CE
:1045F0003CF9F4D8964D3AC0F111312592E8F13FDB
:104600003D0CAD4ECE5046C046CEC29E76380E40D2
:10461000EDB8E177D30134C013F06B2409CA30C080
:10462000B212F3ACA425144099D6A6B1BD4E33C046
:104630006005F86EF31630C08F34B8AD2D4425C038
:1046400045F0BF95EC2A43C0AE450BD0B66226407C
:104650003752B648DAED40C0DCF0BBE9964D2A404F
:10466000A0F99CBB5D0F3FC01FBDE13E72D325C0CA
:10467000D34ECDE506432CC059350873BBC72EC0B9
:104680007023658BA4252440EA3C2AFEEFA021C0BC
:104690007D410B09189134C09ECE15A5841028C009
:1046A0006C79E57ADBDC1AC084674293C43A40C077
:1046B00007793D98141B3640ACC5A700189144C03B
:1046C0006B9C4D4700570FC0C7DADFD91E7D31C044
:1046D000C0B4A84F72D335C02E573F36C99F28C0EB
:1046E000094E7D2079BF32C0C289E8D7D67732C063
:1046F00069FD2D01F87B38C02A1DACFF730E45C043
:104700001171732A19802E4023A298BC01924EC0C9
:10471000548EC9E2FE6735400E9F7422C1C431C079
:10472000BB63B14D2ACE36C0B43D7AC37D243B4035
:10473000F25F200890614DC0F03499F1B66216C066
:1047400027BD6F7CED19FDBF295FD04202DE23C07B
:104750007D410B09189134C03A24B55032A91DC0CF
:10476000F609A01859AA26C0C9ACDEE176381EC0E9
:10477000AA9B8BBFED192DC01897AAB4C5293AC0C2
:10478000F03499F1B6621640B612BA4BE2C837C09F
:104790003A24B55032A92DC04AECDADE6E5D37C03E
:1047A000DCF0BBE9964D1AC0A37895B54D5921C0F0
:1047B00059350873BBC72EC03082C64CA29E2FC08D
:1047C00002284696CC1537C0E692AAED265828C096
:1047D00078F01307D08B35C08B8A389D64FB2BC0D3
:1047E0007F164B917C3531C043C6A354C2B32BC056
:1047F0007AC5538F343032C03201BF4692E831C09F
:10480000CB2BD7DB668220C075745C8DEC2A33C05D
:104810005E30B8E68E7233C05663096B630C32C0EB
:10482000E99AC937DBDC0AC043C6A354C2B32BC024
:1048300062D7F6764BD22CC0AA9B8BBFED192DC048
:10484000228AC91B609613C0EF8D210038A630C0A4
:104850004D68925852BE29C024B5503239952AC0AD
:104860008B8A389D64FB1BC099D6A6B1BD4E23C070
:10487000094E7D2079BF22C0BB63B14D2ACE36C020
:104880006B9C4D4700570FC0BDDF68C70D2F19C087
:10489000A0F99CBB5D0F2FC04D68925852BE29C035
:1048A00059350873BBC71EC08B8A389D64FB1BC07B
:1048B0007AC5538F343022C0BDDF68C70D2F19C0B1
:1048C000B8E7F9D3466D24C005A4FD0FB07629C022
:1048D0007FBDC282FBF1164099D6A6B1BD4E23C062
:1048E000228AC91B609613C0487023658BFC244044
:1048F0008192020B609633C0EDB8E177D30134406A
:10490000223999B8553438C03A24B55032A92D40CF
:104910009701672959AA36C06C79E57ADBDC1A4021
:104920003A24B55032A92DC0F03499F1B66216C0C0
:10493000F111312592E801C0C556D0B4C43A10C077
:10494000E99AC937DBDC0AC08692C9A99D3927C01C
:10495000EA3C2AFEEFA02140419B1C3EE9B414C072
:10496000228AC91B609613406C79E57ADBDC2AC089
:104970009ECE15A58410184081E84999D4F02DC029
:10498000E99AC937DBDCFA3FC289E8D7D67722C07B
:10499000E46723D74D59114099D6A6B1BD4E23C027
:1049A0006D567DAEB662F63FEA3C2AFEEFA021C00E
:1049B00084674293C43A2040E8BD310400571FC0C9
:1049C0006C79E57ADBDC1A40F609A01859AA26C0F2
:1049D000E8BD310400571F40487023658BFC24C09C
:1049E000094E7D2079BF22409ECE15A5841028C097
:1049F000B8E7F9D3466D24408692C9A99D3927C0EE
:104A0000228AC91B60961340A37895B54D5921C0E1
:104A100059350873BBC71E4067817687141B26C0B3
:104A200008AC1C5A64FB0B40BDDF68C70D2F19C0D2
:104A30004D68925852BE1940D200DE0209CA00C029
:104A4000D12346CF2D441540DCF0BBE9964D1AC06A
:104A50002E573F36C99F1840A37895B54D5921C0B0
:104A60006C79E57ADBDC1A40C556D0B4C43A10C084
:104A700059350873BBC71E405663096B630C32C0BF
:104A8000570A815CE2C827401B13622EA98A1CC00A
:104A9000419B1C3EE9B4144027BD6F7CED19FDBF5E
:104AA00060AC6F6072D31540D12346CF2D4415C042
:104AB000D200DE0209CA00C06D567DAEB662E6BF06
:104AC000E99AC937DBDC0AC0F111312592E8D13F00
:104AD0006D567DAEB662E63F65DF15C1FF56FF3FFE
:104AE0007FBDC282FBF116C0CA89761552BE09404D
:104AF000E99AC937DBDC0AC0F111312592E801409F
:104B0000102384471B0703C02F34D769A425F43F23
:104B100008AC1C5A64FB0B40C556D0B4C43A10C054
:104B2000419B1C3EE9B414C0B8E7F9D3466D24405C
:104B30001B13622EA98A1CC07FBDC282FBF11640E6
:104B40006D567DAEB662E63F74F04C6892E8114057
:104B50004D68925852BE19C060AC6F6072D3154058
:104B6000D12346CF2D4415C06D567DAEB6620640AA
:104B700013F06B2409CA20C06D567DAEB6620640A4
:104B8000419B1C3EE9B414C0F111312592E8C13FAC
:104B9000E99AC937DBDC0A4027BD6F7CED19FD3F80
:104BA000102384471B0703C0F111312592E8C13F50
:104BB00055DFF94509CA10C0B212F3ACA425144060
:104BC0006B9C4D4700570FC0E99AC937DBDCFABF31
:104BD0007FBDC282FBF116406B9C4D4700570FC052
:104BE00065DF15C1FF56FF3FCA89761552BE09C061
:104BF000F111312592E8F13F27BD6F7CED19FDBF22
:104C000008AC1C5A64FB0BC008AC1C5A64FB0B407C
:104C1000F111312592E801402F34D769A425F43FE2
:104C200008AC1C5A64FB0B40AB7823F3C89F08C048
:104C30002F34D769A425F43F6B9C4D4700570FC014
:104C4000D200DE0209CA004065DF15C1FF56EFBF82
:104C5000CA89761552BE0940F111312592E8F13F1B
:104C6000E99AC937DBDCDA3FF111312592E8C1BF9F
:104C7000F111312592E8F1BFE99AC937DBDCEA3F4F
:104C80006D567DAEB662F6BF27BD6F7CED19FD3F58
:104C9000F111312592E8E1BFF111312592E8C13FD0
:104CA000AB7823F3C89F08406D567DAEB662F6BF61
:104CB000AB7823F3C89FF83F2F34D769A425F4BFFE
:104CC000F111312592E8F13FE99AC937DBDCEABFFF
:104CD000E99AC937DBDCDA3F6D567DAEB662E63F56
:104CE000F111312592E8E1BF6D567DAEB662E63F27
:104CF000F111312592E8E1BFF111312592E8D13F60
:104D0000F111312592E8E1BFF111312592E8C1BFDF
:104D10008C67D0D03F81074065DF15C1FF56EF3F5C
:104D20006D567DAEB662F63FAB7823F3C89FF8BFF1
:104D3000E99AC937DBDCEA3F27BD6F7CED19FD3FFF
:104D40006B9C4D4700570FC06C79E57ADBDC1A404D
:104D500027BD6F7CED190DC04E452A8C2D440540B2
:104D6000F111312592E8F13FAB7823F3C89FF8BFEA
:104D70006B9C4D4700570F40D200DE0209CA00C0AD
:104D800055DFF94509CA104065DF15C1FF56EFBF71
:104D90008C67D0D03F8107C065DF15C1FF56EF3F5C
:104DA000F111312592E8E1BFF111312592E8E1BF1F
:104DB0006D567DAEB662F63FF111312592E8F1BF36
:104DC0006D567DAEB662E6BF65DF15C1FF56EF3F9B
:104DD000D200DE0209CA00C065DF15C1FF56EF3FF1
:104DE00065DF15C1FF56EF3FF111312592E8E1BFB4
:104DF00065DF15C1FF56EFBFF111312592E801C003
:104E0000E99AC937DBDCFABF27BD6F7CED19FDBF1E
:104E1000F111312592E8F1BF65DF15C1FF56FF3F63
:104E200065DF15C1FF56FFBF6D567DAEB662E63F2A
:104E3000F111312592E8C1BFF111312592E8C13F4E
:104E4000F111312592E8C13F27BD6F7CED190DC0EE
:104E500065DF15C1FF56EF3FE99AC937DBDCEABFD2
:104E6000E99AC937DBDCEABF65DF15C1FF56EF3FC2
:104E7000F111312592E801C000000000000000009F
:104E8000102384471B0703C0D200DE0209CA00407A
:104E9000102384471B0703C0D200DE0209CA00C0EA
:104EA000F111312592E8C13FF111312592E8F1BFAE
:104EB0006D567DAEB662E6BF65DF15C1FF56EFBF2A
:104EC000F111312592E8C1BFF111312592E8E1BF1E
:104ED000F111312592E8C13FF111312592E8F1BF7E
:104EE0002F34D769A425F4BFE99AC937DBDCEA3F40
:104EF000AB7823F3C89FF8BF27BD6F7CED19FD3F4A
:104F000027BD6F7CED19FDBFF111312592E8F13F0E
:104F1000F111312592E8C13F6D567DAEB662E6BF14
:104F20006D567DAEB662E63FE99AC937DBDCEABF73
:104F3000F111312592E8C13F2F34D769A425F4BF80
:104F4000F111312592E8D13F65DF15C1FF56FFBF52
:104F5000F111312592E8C1BFE99AC937DBDCEABF1C
:104F600065DF15C1FF56EFBF000000000000000024
:104F7000F111312592E8C13FF111312592E8D13F7D
:104F8000F111312592E8C13FF111312592E8E1BFDD
:104F900000000000000000006D567DAEB662E63FE6
:104FA000E99AC937DBDCEABFF111312592E8C1BFCC
:104FB0006D567DAEB662F6BF2F34D769A425F43F97
:104FC000F111312592E8F1BF65DF15C1FF56EFBF42
:104FD000F111312592E8F1BFE99AC937DBDC0AC04B
:104FE0000000000000000000F111312592E8E1BF4F
:104FF000F111312592E8C13FF111312592E8C1BF8D
:10500000F111312592E8E1BFF111312592E8C13F5C
:1050100065DF15C1FF56EFBFE99AC937DBDCDA3F20
:10502000F111312592E8E13FE99AC937DBDCDABFBB
:10503000F111312592E8C13FF111312592E8D13FBC
:1050400065DF15C1FF56FFBFE99AC937DBDCDA3FE0
:105050006D567DAEB662E6BFF111312592E8E13FB3
:10506000F111312592E8E1BFF111312592E8D1BF6C
:1050700065DF15C1FF56EFBF65DF15C1FF56EFBFF6
:10508000E99AC937DBDCEABF65DF15C1FF56EFBF20
:105090000000000000000000000000000000000010
:1050A000F111312592E8C13F6D567DAEB662F6BF73
:1050B000E99AC937DBDCDABF65DF15C1FF56EFBF00
:1050C000F111312592E8D1BFE99AC937DBDCEABF9B
:1050D000F111312592E8D13FE99AC937DBDCEA3F8B
:1050E000E99AC937DBDCDABFF111312592E8C13F1B
:1050F000E99AC937DBDCFA3F6D567DAEB662E6BF92
:10510000F111312592E8C1BFF111312592E8D1BFEB
:105110006D567DAEB662E6BF65DF15C1FF56EF3F47
:10512000F111312592E8E13F65DF15C1FF56EF3FF0
:10513000E99AC937DBDCEA3FF111312592E8C1BFBA
:1051400065DF15C1FF56EF3FF111312592E8D13FE0
:10515000F111312592E8E13FF111312592E8E13F6B
:10516000E99AC937DBDCEABFF111312592E8E1BFEA
:1051700000000000000000006D567DAEB662F6BF74
:105180002F34D769A425F4BFE99AC937DBDCEABF1D
:105190006D567DAEB662E6BFF111312592E8C1BF12
:1051A000F111312592E8E1BFF111312592E8C1BF3B
:1051B000F111312592E8E13FF111312592E8E13F0B
:1051C000E99AC937DBDCDA3FF111312592E8D13FAA
:1051D000E99AC937DBDCDABFF111312592E8E1BF8A
:1051E000E99AC937DBDCDA3F00000000000000006C
:1051F00000000000000000006D567DAEB662E63F84
:10520000E99AC937DBDCDABFF111312592E8C1BF79
:10521000F111312592E8C1BFF111312592E8C13F6A
:10522000F111312592E8C13FF111312592E8C13FDA
:10523000F111312592E8E13FF111312592E8E13F8A
:105240006D567DAEB662E63F6D567DAEB662E63F08
:10525000F111312592E8C13FF111312592E8D1BF1A
:105260002F34D769A425F4BF6D567DAEB66206C053
:10527000E99AC937DBDC0A406D567DAEB662F6BFEF
:1052800065DF15C1FF56EF3FAB7823F3C89FF83FAA
:10529000F111312592E801C02F34D769A425F43FDC
:1052A000E99AC937DBDCEA3FF111312592E8E13FA9
:1052B000F111312592E8C13FF111312592E8E1BFAA
:1052C00027BD6F7CED190D406D567DAEB662E6BF11
:1052D0000000000000000000F111312592E801C03B
:1052E000F111312592E8D13F65DF15C1FF56EF3F3F
:1052F0006D567DAEB662E6BFF111312592E8E1BF91
:10530000F111312592E8E1BFF111312592E8D1BFC9
:10531000E99AC937DBDCDA3FE99AC937DBDCEABF57
:10532000F111312592E8D13FF111312592E8E13FA9
:10533000F111312592E8D1BF00000000000000000B
:105340006D567DAEB662E6BFF111312592E8E13FC0
:10535000F111312592E8D1BFF111312592E8D13F09
:10536000F111312592E8E13FF111312592E8F1BFC9
:10537000E99AC937DBDCDA3FF111312592E8C1BF88
:10538000F111312592E8D1BFE99AC937DBDCEABFD8
:10539000F111312592E8C1BFE99AC937DBDCDABFE8
:1053A0000000000000000000E99AC937DBDCEABF1A
:1053B000F111312592E8C1BFE99AC937DBDCDA3F48
:1053C000F111312592E8C13FF111312592E8E13F19
:1053D000E99AC937DBDCEABFE99AC937DBDCDABF17
:1053E000F111312592E8D1BFF111312592E8E1BFE9
:1053F000F111312592E8D13FF111312592E8D1BF69
:10540000000000000000000065DF15C1FF56EFBF7F
:10541000F111312592E8C1BF00000000000000003A
:105420000000000000000000F111312592E8C13FAA
:10543000F111312592E8C1BF00000000000000001A
:10544000E99AC937DBDCDABFF111312592E8D13FA7
:10545000E99AC937DBDCDA3F0000000000000000F9
:10546000F111312592E8C13FF111312592E8F1BFE8
:10547000F111312592E8C13F6D567DAEB662E6BFAF
:105480006D567DAEB662E6BFE99AC937DBDCDABF9E
:10549000E99AC937DBDCDABFB85400080000002401
:1054A00028000000FC020008E05400082800002446
:1054B000500700001C03000884A400000000000046
:1054C00000000000000059C000000000000059C0AA
:1054D00001000000100000000090D0030090D003F5
:040000050800029954
:00000001FF
