:020000040800F2
:100000002008002439030008C9380008B93800085E
:10001000C138000841040008B13F0008000000009A
:10002000000000000000000000000000593C000833
:100030007105000800000000D1380008613C00088C
:100040005303000853030008530300085303000838
:100050005303000853030008530300085303000828
:100060005303000853030008530300084904000821
:100070005303000853030008530300085303000808
:1000800053030008530300085303000853030008F8
:1000900053030008530300085303000853030008E8
:1000A00053030008530300085303000853030008D8
:1000B00053030008530300085303000853030008C8
:1000C00053030008530300085303000853030008B8
:1000D00053030008530300085303000853030008A8
:1000E00079050008530300080000000053030008CE
:1000F0005303000853030008530300085303000888
:10010000530300085303000853030008193B000879
:100110005303000853030008530300085303000867
:100120005303000853030008530300085303000857
:100130005303000853030008530300085303000847
:1001400000000000000000000000000000000000AF
:100150005303000853030008530300085303000827
:100160005303000853030008530300085303000817
:100170005303000853030008530300080000000065
:1001800053030008530300085303000853030008F7
:1001900053030008530300085303000853030008E7
:1001A00053030008530300085303000853030008D7
:1001B00053030008530300085303000853030008C7
:1001C00053030008530300085303000853030008B7
:1001D00053030008530300085303000853030008A7
:1001E0005303000853030008530300085303000897
:1001F0005303000853030008530300085303000887
:100200005303000853030008530300085303000876
:100210005303000853030008530300085303000866
:1002200053030008530300085303000800000000B4
:1002300053030008530300080000000053030008A4
:100240005303000853030008530300085303000836
:100250005303000853030008530300085303000826
:100260005303000853030008530300085303000816
:100270005303000853030008530300080000000064
:100280005303000853030008530300080000000054
:10029000000000005303000800F002F800F03CF8F2
:1002A0000AA090E8000C82448344AAF10107DA45D1
:1002B00001D100F031F8AFF2090EBAE80F0013F0E7
:1002C000010F18BFFB1A43F001031847D85A00006A
:1002D000F85A0000103A24BF78C878C1FAD85207FB
:1002E00024BF30C830C144BF04680C6070470000B0
:1002F0000023002400250026103A28BF78C1FBD82F
:10030000520728BF30C148BF0B6070471FB504F0CB
:10031000AFF81FBD10B510BD00F058F81146FFF73B
:10032000F5FF03F0A9FF00F076F803B4FFF7F2FF42
:1003300003BC00F07DF800000948804709480047E9
:10034000FEE7FEE7FEE7FEE7FEE7FEE7FEE7FEE785
:10035000FEE7FEE704480549054A064B70470000E2
:10036000A13D000899020008200200242008002472
:1003700020040024200400244FF0000200B513469E
:1003800094469646203922BFA0E80C50A0E80C50B5
:10039000B1F12001BFF4F7AF090728BFA0E80C5066
:1003A00048BF0CC05DF804EB890028BF40F8042B5F
:1003B00008BF704748BF20F8022B11F0804F18BFCC
:1003C00000F8012B7047704770477047754600F082
:1003D0002BF8AE4605006946534620F007008546D7
:1003E00018B020B5FFF7B6FFBDE820404FF000067B
:1003F0004FF000074FF000084FF0000BAC46ACE8A0
:10040000C009ACE8C009ACE8C009ACE8C00921F0FB
:1004100007018D46704710B50446AFF300802046B3
:10042000BDE81040FFF781BF004870472800002456
:1004300001491820ABBEFEE726000200704700000D
:10044000FEE700000000000040F29C00C2F2004005
:1004500000F0EEB90000000040F20F42D0F800C0FA
:10046000C4F20202944510DC6F22C4F202029445E9
:1004700020DC3F22C4F20202944536DC1022C4F292
:100480000202944554D028224EE040F26F42C4F25A
:10049000020294451ADC40F23F42C4F20202944543
:1004A0002ADC40F21042C4F20202944540D040F2ED
:1004B000284239E09F22C4F20202944525DC7022D2
:1004C000C4F20202944533D088222DE040F29F42CC
:1004D000C4F2020294451FDC40F27042C4F20202F0
:1004E000944525D040F288421EE04022C4F2020228
:1004F00094451DD0582217E040F24042C4F2020257
:10050000944515D040F258420EE0A022C4F20202F7
:1005100094450DD0B82207E040F2B842C4F202027E
:10052000944505D040F2A042C4F20202944518D18D
:100530006FF00F024AF6AB2352FA8CF2CAF6AA23E6
:10054000A2FB033108A35F2AC1F302115B5C40F2F6
:10055000FF312CEA0101C36588BF0431816508467B
:1005600070472CF0FF01F9E7000610160006101680
:1005700070470000000000004FF4806001F090B868
:10058000EFF3108072B600BFFEE70000000000002D
:1005900080B5D8B190F83510022919D140F20F4238
:1005A0000168C4F20202914216DC6F23C4F2020316
:1005B000994226DC3F23C4F2020399423CDC10231B
:1005C000C4F2020399425AD0282354E0012080BD8E
:1005D00080214165012080BD40F26F43C4F20203D7
:1005E00099421ADC40F23F43C4F2020399422ADCEA
:1005F00040F21043C4F20203994240D040F2284333
:1006000039E09F23C4F20203994225DC7023C4F22F
:100610000203994233D088232DE040F29F43C4F275
:10062000020399421FDC40F27043C4F20203994274
:1006300025D040F288431EE04023C4F202039942D1
:100640001DD0582317E040F24043C4F20203994200
:1006500015D040F258430EE0A023C4F202039942A1
:100660000DD0B82307E040F2B843C4F20203994228
:1006700005D040F2A043C4F2020399426ED19142E8
:100680004FF0040280F8352010DC6F20C4F2020025
:10069000814220DC3F20C4F20200814236DC10207F
:1006A000C4F20200814253D028204EE040F26F4055
:1006B000C4F2020081421ADC40F23F40C4F2020060
:1006C00081422ADC40F21040C4F2020081423FD055
:1006D00040F2284039E09F20C4F20200814225DC2C
:1006E0007020C4F20200814232D088202DE040F216
:1006F0009F40C4F2020081421FDC40F27040C4F20D
:100700000200814224D040F288401EE04020C4F222
:10071000020081421CD0582017E040F24040C4F251
:100720000200814214D040F258400EE0A020C4F2F2
:10073000020081420CD0B82007E040F2B840C4F279
:100740000200814204D040F2A040C4F20200814283
:10075000086820F001000860002080BD0A6822F0CF
:100760000E020A6045F25742C5F6020291420A683B
:1007700022F001020A600EDC45F22F42C5F60202A9
:10078000914217DC45F20842C5F60202914226D09A
:1007900045F21C421FE045F27F42C5F6020291423B
:1007A00011DC45F25842C5F60202914217D045F2DB
:1007B0006C4210E045F23042C5F6020291420ED082
:1007C00045F2444207E045F29442C5F602029142E6
:1007D00005D045F28042C5F6020291421AD1D0E915
:1007E000181CD0E916E30A6822F480720A6003F04C
:1007F0001F01012202FA01F1CEF80410816ECCF83B
:100800000410C16E31B10A6822F480720A60D0E926
:100810001C124A60012180F83510026D002180F819
:1008200034100AB190470021084680BD0000000046
:100830002DE9F04782B00021019140F20401044605
:10084000C2F2004148F2B512C1F64E32A56D0968F8
:1008500040F26F490068C4F20209A1FB0218484542
:100860002E68296815DC9F21C4F2020188422BDC26
:100870005721C4F2020188424FDC1021C4F2020168
:10088000884278D02821C4F20201884273D04021E6
:100890006CE045F22F42C5F60202904227DC40F29E
:1008A000B742C4F20202904243DC40F27041C4F20B
:1008B000020188425FD040F28841C4F202018842BE
:1008C00059D040F2A04151E040F22741C4F2020168
:1008D00088423DDCA021C4F2020188424BD0B821FD
:1008E000C4F20201884246D040F210413EE045F297
:1008F0006B42C5F60202904273DC45F23042C5F607
:100900000202904200F0808045F24442C5F60202A5
:10091000904279D045F2584271E05821C4F2020168
:10092000884228D07021C4F20201884223D0882155
:100930001CE040F2B842C4F2020290421BD045F2E1
:100940000842C5F6020290425ED045F21C4256E0D3
:1009500040F22841C4F2020188420CD040F24041EA
:10096000C4F20201884206D040F25841C4F20201AA
:10097000884240F04383E16D082201F01F0140F2FC
:100980000F4A8A40C4F2020A324200F0E080504529
:100990004FF0040312DC6F27C4F20207B84268DC90
:1009A0003F27C4F20207B84200F3A1801027C4F227
:1009B0000207B84200F0BF802827B7E0484564DC52
:1009C00040F23F47C4F20207B84200F3978040F27A
:1009D0001047C4F20207B84200F0AD8040F2284749
:1009E000A4E045F26C42C5F6020290420CD045F2FA
:1009F0008042C5F60202904206D045F29442C5F606
:100A00000202904240F0FA820268E36D570703F059
:100A10001F0312D504279F4017EA01060DD01104C9
:100A20006F6041D4910603D4016821F00401016094
:100A3000216C002940F0D482E0E297073CD50227E0
:100A40009F4017EA010637D011046F6000F1CD8294
:100A5000910609D4016821F00A010160012084F89F
:100A60003500002084F83400E16B002940F0B882A2
:100A7000C4E29F27C4F20207B84248DC7027C4F2E0
:100A80000207B84257D0882750E040F29F47C4F28F
:100A90000207B84242DC40F27047C4F20207B84293
:100AA00049D040F2884741E0D00300F1A482A16C14
:100AB000002940F09582A1E2120740F19F820822AE
:100AC0009A40114000F09A82016821F00E01016005
:100AD000012000FA03F16960606584F835000020A8
:100AE000E16C84F83400002940F07A8286E24027E5
:100AF000C4F20207B8421ED0582717E040F2404720
:100B0000C4F20207B84216D040F258470EE0A027C0
:100B1000C4F20207B8420ED0B82707E040F2A0475F
:100B2000C4F20207B84206D040F2B847C4F2020746
:100B3000B84218BF082307681F4208D0036823F093
:100B400004030360AA60626D42F001026265012243
:100B50008A4032426AD0504510DC6F23C4F202034F
:100B600098421CDC3F23C4F20203984232DC10237B
:100B7000C4F20203984251D028234AE048451ADCC7
:100B800040F23F43C4F2020398422ADC40F2104391
:100B9000C4F20203984241D040F2284339E09F2337
:100BA000C4F20203984225DC7023C4F20203984287
:100BB00034D088232DE040F29F43C4F202039842D0
:100BC0001FDC40F27043C4F20203984226D040F288
:100BD00088431EE04023C4F2020398421ED05823EB
:100BE00017E040F24043C4F20203984216D040F2AC
:100BF00058430EE0A023C4F2020398420ED0B8235B
:100C000007E040F2A043C4F20203984206D040F24B
:100C1000B843C4F20203984240F0F78143691B06CF
:100C200004D5AA60626D42F00202626504228A4025
:100C300032426AD0504510DC6F23C4F2020398425E
:100C40001CDC3F23C4F20203984232DC1023C4F2BE
:100C50000203984251D028234AE048451ADC40F26A
:100C60003F43C4F2020398422ADC40F21043C4F22C
:100C70000203984241D040F2284339E09F23C4F256
:100C80000203984225DC7023C4F20203984234D058
:100C900088232DE040F29F43C4F2020398421FDCF8
:100CA00040F27043C4F20203984226D040F28843D7
:100CB0001EE04023C4F2020398421ED0582317E0DE
:100CC00040F24043C4F20203984216D040F2584327
:100CD0000EE0A023C4F2020398420ED0B82307E02E
:100CE00040F2A043C4F20203984206D040F2B84357
:100CF000C4F20203984240F08A8103689B0704D53E
:100D0000AA60626D42F004026265102202FA01F1EB
:100D1000314279D050454FF0080210DC6F23C4F205
:100D2000020398421CDC3F23C4F20203984232DCE7
:100D30001023C4F20203984251D028234AE04845C8
:100D40001ADC40F23F43C4F2020398422ADC40F22C
:100D50001043C4F20203984241D040F2284339E0E4
:100D60009F23C4F20203984225DC7023C4F20203DD
:100D7000984234D088232DE040F29F43C4F202030E
:100D800098421FDC40F27043C4F20203984226D01E
:100D900040F288431EE04023C4F2020398421ED072
:100DA000582317E040F24043C4F20203984216D0A1
:100DB00040F258430EE0A023C4F2020398420ED042
:100DC000B82307E040F2A043C4F20203984206D0E1
:100DD00040F2B843C4F20203984218BF04220368E9
:100DE000134211D0A96001684903016806D4C905FE
:100DF00006D4016821F00801016001E008034DD428
:100E0000216C09B120468847E06D00F01F012020C9
:100E100000FA01F2324200F0A6802068102350450B
:100E200010DC6F27C4F20207B8421CDC3F27C4F273
:100E30000207B84236DC1027C4F20207B84255D088
:100E400028274EE048451ADC40F23F47C4F202072B
:100E5000B8422EDC40F21047C4F20207B84245D037
:100E600040F228473DE09F27C4F20207B84229DC40
:100E70007027C4F20207B84238D0882731E040F228
:100E80009F47C4F20207B84223DC40F27047C4F225
:100E90000207B8422AD040F2884722E0A16C00291C
:100EA000B0D1B1E74027C4F20207B8421ED058279C
:100EB00017E040F24047C4F20207B84216D040F2B1
:100EC00058470EE0A027C4F20207B8420ED0B82758
:100ED00007E040F2A047C4F20207B84206D040F251
:100EE000B847C4F20207B84218BF022307681F427E
:100EF00039D0AA6094F83520042A02681BD122F068
:100F000016020260426922F080024261226C0AB934
:100F1000A26C1AB1026822F0080202603F208840E9
:100F2000A860012084F83500216D0020002984F894
:100F3000340055D162E0510301680CD4C9050ED4C8
:100F4000016821F010010160012084F835000020C3
:100F500084F8340003E0080301D4616C00E0E16B25
:100F600009B120468847606D002847D0606DC007F2
:100F700034D0042084F8350020684FEA98210268B4
:100F800022F001020260019A013201928A421AD8CB
:100F90000268D20717D0019A013201928A4212D810
:100FA0000268D2070FD0019A013201928A420AD810
:100FB0000268D20707D0019A013201928A4202D810
:100FC0000268D207DFD10068C0074FF0030008BFF6
:100FD000012084F83500002084F83400E16C69B108
:100FE0002046884702B0BDE8F087D00309D4616C81
:100FF0000029F5D102E0216C0029F1D102B0BDE851
:10100000F087E16B0029EBD1F8E702680EE6026891
:101010007BE6000000000000F0B581B0044600F05F
:101020004FFC002C00F00C8140F26F470546206811
:10103000C4F20207B84215DC9F21C4F202018842C3
:101040002BDC5721C4F20201884251DC1021C4F28A
:10105000020188427BD02821C4F20201884276D066
:1010600040216FE045F22F41C5F60201884227DC9E
:1010700040F2B741C4F20201884245DC40F27041BF
:10108000C4F20201884262D040F28841C4F20201F7
:1010900088425CD040F2A04154E040F22741C4F2C3
:1010A0000201884240DCA021C4F2020188424ED0F5
:1010B000B821C4F20201884249D040F2104141E017
:1010C00045F26B41C5F60201884200F3BC8045F24F
:1010D0003041C5F60201884200F0C88045F2444123
:1010E000C5F60201884200F0C18045F25841B8E0DF
:1010F0005821C4F20201884229D07021C4F20201B1
:10110000884224D088211DE040F2B841C4F2020197
:1011100088421CD045F20841C5F60201884200F021
:10112000A58045F21C419CE040F22841C4F2020136
:1011300088420CD040F24041C4F20201884206D0FD
:1011400040F25841C4F20201884240F07D820221FF
:1011500084F83510002184F83410016821F0010171
:10116000016000BF0168C90707D000F0A9FB401B60
:10117000052800F260802068F4E748F23F0204F19D
:1011800008060168CFF6106211406CCE1143A269C7
:101190001943E3692943256A0E43616A164304290A
:1011A00043EA060343EA050303D1D4E90B6533435D
:1011B0002B4341F20006C5F600463668B6F1005FE3
:1011C0001DD36668A6F12905292D18D8DFE805F09A
:1011D00015151515151517171717171717171717AB
:1011E000171717171717151515151717171715159B
:1011F0001717171717171515151543F480130360E4
:101200000429436923F0070341EA030140F08B807E
:10121000D4E90A53002B41EA050100F08480B2F5BD
:10122000005F67D0002A71D1022D72D0012D67D0E6
:10123000002D6ED077E020206065032084F8350013
:10124000012001B0F0BD45F26C41C5F602018842B3
:101250000CD045F28041C5F60201884206D045F225
:101260009441C5F60201884240F0EE81022184F8E3
:101270003510002184F834100168A268A2F18003BF
:10128000E668B3FA83F3402A4FEA53134FEA8333F5
:101290006FF3101108BF1023226941EAD601666975
:1012A0001943A36941EAD201E26941EAD60141EA60
:1012B000D3014CF6CD4341EAD2014AF6F832CAF2E4
:1012C000FD72266A0244CCF6CC43A2FB032341EA1A
:1012D000161101606FF0030000EA9300E0652046FC
:1012E000FFF7BAF8E16D012201F01F0102FA01F1E6
:1012F000416023E0032D16D8DFE805F00E0B0E0247
:10130000A3F1C072B2FA82F2520904E0032D03D3B2
:1013100009D1C3F3006232B140206065012084F836
:10132000350001B0F0BD41612046FFF795F8E16D51
:101330003F2201F01F0102FA01F181602068B842EA
:1013400019DC9F21C4F20201884231DC5721C4F22A
:101350000201884256DC1021C4F20201884200F0EA
:1013600092802821C4F20201884200F08C80402142
:10137000C4F2020184E045F22F41C5F60201884221
:101380002BDC40F2B741C4F20201884248DC40F253
:101390007041C4F20201884275D040F28841C4F223
:1013A000020188426FD040F2A041C4F2020167E01E
:1013B00040F22741C4F20201884240DCA021C4F27D
:1013C000020188425FD0B821C4F2020188425AD09B
:1013D00040F21041C4F2020152E045F26B41C5F601
:1013E000020188423CDC45F23041C5F602018842E8
:1013F00049D045F24441C5F60201884243D045F246
:1014000058413BE05821C4F2020188423BD0702190
:10141000C4F20201884236D08821C4F202012FE0D2
:1014200040F2B841C4F2020188422CD045F2084192
:10143000C5F60201884226D045F21C411EE040F26A
:101440002841C4F2020188421DD040F24041C4F25A
:101450000201884217D040F25841C4F202010FE065
:1014600045F26C41C5F6020188420CD045F2944128
:10147000C5F60201884206D045F28041C5F6020158
:10148000884240F0DA8045F2574C45F6FC0EC5F62E
:10149000020CC5F6020E60450EDC45F22F41C5F682
:1014A0000201884217DC45F20841C5F60201884274
:1014B00026D045F21C411FE045F27F41C5F60201EE
:1014C000884211DC45F25841C5F60201884217D026
:1014D00045F26C4110E045F23041C5F60201884208
:1014E0000ED045F2444107E045F29441C5F60201B1
:1014F000884205D045F28041C5F60201884254D1A8
:101500006FF007014CF6CD4251FA80F1CCF6CC4297
:10151000A1FB0212AEF1FC05AEF17C061309A26834
:1015200003F01F01802A4FF0010205EB83052566B9
:1015300002FA01F26666A26602D10021616000E053
:101540006168CBB2013907292B60726015D85E1E25
:10155000082E17D260450EF1440217DC45F22F41E8
:10156000C5F60201884241DC45F20841C5F6020198
:10157000884258D045F21C4149E000206067C4E928
:101580001B005AE0D4E91B02616F53E045F27F4132
:10159000C5F60201884232DC45F25841C5F6020127
:1015A000884240D045F26C4131E06FF00F014AF6BD
:1015B000AB2251FA80F1CAF6AA22A1FB021240F234
:1015C0000F43C4F2020308251109984203F1AA0649
:1015D0000B4688BF05EB121340F60005B042C4F27B
:1015E000020505F1800628BF0B4698E745F2304119
:1015F000C5F60201884216D045F2444107E045F2A3
:101600008041C5F6020188420DD045F29441C5F6ED
:101610000201884207D040F60000C4F2020000F147
:10162000FC0E00F5A07201210EEB8300B140E066D4
:10163000226761670023036051600020606501211B
:1016400084F8351001B0F0BD4020F5E50000000041
:10165000B0F5806F18BF704710B5242040F28804A1
:10166000C4F20100C2F200444FF40071002200688D
:10167000208040F60000C5F6020000F011F940F2AB
:10168000900040F28E02C2F200402188C2F2004275
:101690000088081A1080BDE8104070470000000064
:1016A0008821C5F600010A68024208BF7047086039
:1016B000FFF7CEBF000000002DE9F04F85B00D68A8
:1016C0000290002D00F0E68002988E4600F126423E
:1016D0000A2102F1FF7342F20042C5F60202002421
:1016E00090424FEAB32208BF0921092A4FF00107AF
:1016F00038BF4FEAB32100264FF000080091CDF823
:101700000CE00DE0DEF8005008F1010835FA07F0B2
:1017100006F1020607F1010704F1040400F0BA80A3
:10172000A7F1010A012000FA0AF315EA0309E9D03A
:10173000DEF804B00BF003056A1E012A22D80298D5
:101740004FEA4801D0F808C00191032101FA06F2DE
:1017500003992CEA020CD1F80CE00EFA06F1DDF840
:101760000CE041EA0C01816041686FEA020CCBF3A6
:10177000001299430346019802FA0AF21143596094
:101780000CE000BF0320032D00FA06F0029B6FEA75
:10179000000C304602D13046032526E0D968DEF839
:1017A000082001EA0C018240022D41EA0201D960C1
:1017B0001BD102466FF0030000EA5A010F201944C2
:1017C00004F01C0300FA03F51046D1F820E0039A58
:1017D0002EEA0505DDF80CE012699A40029B2A43C7
:1017E0000A62DEF804B00BF00305196805FA00F090
:1017F00001EA0C011BF4403F40EA010018603FF48D
:1018000081AF44F2F44140F20845C5F60201C5F645
:1018100000050F23086840F002000860086800F027
:10182000020004902AF00300049904F00C014259CC
:101830008B409A43009B03FA01F1114341514FF051
:10184000B0452868DEF8041040EA0902CB0258BF10
:1018500020EA09028B022A6040F20405C5F6000561
:10186000286840EA090258BF20EA09028B032A606F
:10187000D5F8800040EA090258BF20EA0902C903EE
:10188000C5F88020E86F40EA090258BF20EA090243
:10189000EA6737E705B0BDE8F08F00000000000000
:1018A000002A08BF090481617047000000000000A1
:1018B00041F20000C5F600400068000C70470000CF
:1018C00040F21820C2F2004000687047000000009B
:1018D00040F2200040F21821C2F20040C2F2004162
:1018E00000780A681044086070470000000000009B
:1018F00080B5032000F0ACF800F0EEFE44F2184191
:1019000044F28A43C5F60201C0F600030A6809687A
:1019100001F00F01C2F30322595C9A5C01F01F0130
:1019200002F01F02D04040F20802C2F2004220FA48
:1019300001F1116040F20401C2F2004108600F2081
:1019400000F00AF800281CBF012080BD00F030F82C
:10195000002080BD00000000B0B540F22001C2F2BE
:101960000041097801B3044640F20400C2F200408D
:101970004FF47A72B2FBF1F10068B0FBF1F001F0C4
:1019800087FD0F2C4FF001050CD858B94FF0FF30F0
:1019900000222146002500F02BF840F22400C2F27C
:1019A000004004602846B0BD0120B0BD000000002A
:1019B00081B044F2F440C5F60200016841F0020132
:1019C0000160006800F002000090009801B07047CC
:1019D000002848BF704700F01F01012202FA01F100
:1019E0004EF200124009CEF2000242F82010704779
:1019F00070B54EF60C5C4FF0FF36CEF2000C00F1E5
:101A00006045DCF80030C3F3022E8EF00703042B90
:101A100028BF0423BEF1030406FA03F321EA0301FD
:101A200000F00F0338BF0024043BB0F1FF3F6344D4
:101A300006FA04F003F10C0301FA04F1C8BF05F53E
:101A4000644322EA000008430001187070BD0000E2
:101A50004EF60C514FF6FF03CEF200010A681A4011
:101A600060F30A2242F0806040F0FD700860704729
:101A7000B0B544F60C05C5F6020529684907296882
:101A800005D401F00701081A18BF0120B0BD21F0EC
:101A9000070108432860FFF713FF044655F8080CB8
:101AA000800407D4FFF70CFF001BB0F57A7FF5D94F
:101AB0000120B0BD0020B0BD2DE9F0470446C0783C
:101AC00044F22C480007C5F6020826D5A06E4FEA5E
:101AD000305103290AD8DFE801F0020B1119D8F8B8
:101AE000001041F40031C8F800100FE0012615E0A5
:101AF00004F10800022101F0EFFE04E004F12800E7
:101B0000022101F079FF064640B9A06ED8F82410F2
:101B100021F440110843C8F8240000266078C0076B
:101B200001D135462AE0A06D04280DD83546DFE8FE
:101B300000F0030E141A1A00D8F80000354640F4DD
:101B40000030C8F800000EE00125012717E004F17D
:101B50000800002101F0C0FE04E004F1280000218B
:101B600001F04AFF05462F464DB9D8F82400A16D73
:101B700020F0070000250843C8F8240037466078A5
:101B800080072AD5E06D4FEAB01004280BD8DFE8B3
:101B900000F0030D13191900D8F8000040F40030CC
:101BA000C8F800000EE00125012617E004F1080046
:101BB000002101F091FE04E004F12800002101F071
:101BC0001BFF05462E464DB9D8F82400E16D20F4E0
:101BD000E07000250843C8F824003E4660784007BE
:101BE0002DD5D4F8A8004FEA705004280BD8DFE8B0
:101BF00000F0030E141A1A00D8F8000040F4003068
:101C0000C8F800000FE001254FF0010918E004F1C9
:101C10000800002101F060FE04E004F1280000212A
:101C200001F0EAFE0546A94655B9D8F82C00D4F8CB
:101C3000A81020F4600000250843C8F82C00B14625
:101C4000607800072CD5D4F8AC004FEA3060042847
:101C50000BD8DFE800F0030D13191900D8F80000C5
:101C600040F40030C8F800000EE00125012718E01C
:101C700004F10800002101F02FFE04E004F1280027
:101C8000002101F0B9FE05462F4655B9D8F82C00C1
:101C9000D4F8AC1020F0E06000250843C8F82C0010
:101CA0004F46E078800723D5E06C4FEA30100328D8
:101CB0000AD8DFE800F012020C12D8F8000040F455
:101CC0000030C8F8000008E00125012611E004F109
:101CD0000800022101F000FE05462E464DB9D8F855
:101CE0002000E16C20F0300000250843C8F82000F7
:101CF0003E466078C0062AD5206E4FEA3030042870
:101D00000BD8DFE800F0030D13191900D8F8000014
:101D100040F40030C8F800000EE00125012717E06C
:101D200004F10800002101F0D7FD04E004F12800CF
:101D3000002101F061FE05462F464DB9D8F8240078
:101D4000216E20F4E04000250843C8F824003746FF
:101D50006078800623D5606E4FEA304005280AD8A7
:101D6000DFE800F012030C12121204F10800012146
:101D700001F0B2FD07E00125012611E004F1280081
:101D8000012101F039FE05462E464DB9D8F8240050
:101D9000616E20F4E02000250843C8F824003E4688
:101DA0006078400625D5D4F8B0004FEA3070052899
:101DB0000AD8DFE800F012030C12121204F1080036
:101DC000012101F089FD07E00125012712E004F15E
:101DD0002800012101F010FE05462F4655B9D8F81C
:101DE0002C00D4F8B01020F0E04000250843C8F8DB
:101DF0002C003746607800061FD5206F90B1B0F1F7
:101E0000005F09D0B0F1805F29D1D8F8000040F41C
:101E10000030C8F8000005E004F10800012101F0DD
:101E20005BFD05462E464DB9D8F82400216F20F001
:101E3000405000250843C8F824003E46E078C0071B
:101E400025D0A06C03280DD8DFE800F0160210168C
:101E5000D8F8000040F40030C8F800000CE001257C
:101E60000126EBE701254FF0010911E004F108001C
:101E7000022101F031FD0546A9464DB9D8F82000F0
:101E8000A16C20F0030000250843C8F82000B146EB
:101E9000A078400601D44F4616E0D8F8D40340F4A9
:101EA0008070C8F8D403FFF70BFD0646D8F8D403BA
:101EB000C00507D4FFF704FD801B6428F6D903256D
:101EC000032701E02F4695B12078C00753D0E06F7B
:101ED0004FEAF00005283AD8DFE800F042033C4220
:101EE000424204F10800012101F0F6FC37E0D8F885
:101EF0004410D4F8B400414011F4407F11D0D8F818
:101F00004410D8F8442042F48032C8F84420D8F86D
:101F1000442021F4407122F48032C8F84420C8F8EB
:101F20004410B0F5807F40F08582FFF7C9FC06467B
:101F300041F2883A03250327D8F84400800700F1CE
:101F40007782FFF7BDFC801B5045F5D9BCE7012621
:101F5000012511E004F12800012101F04DFD0546A5
:101F60002E464DB9D8F82800E16F20F03800002542
:101F70000843C8F828003E462078800721D5A06F86
:101F800005280AD8DFE800F012030C12121204F13F
:101F90000800012101F0A0FC07E00127012511E064
:101FA00004F12800012101F027FD05462F464DB917
:101FB000D8F82800A16F20F0070000250843C8F8D2
:101FC000280037462078400723D5D4F89400052808
:101FD0000AD8DFE800F012030C12121204F1080014
:101FE000012101F079FC07E00126012512E004F14E
:101FF0002800012101F000FD05462E4655B9D8F80C
:102000002C00D4F8941020F0070000250843C8F8ED
:102010002C003E462078800625D5D4F890004FEA63
:10202000307005280AD8DFE800F012030C121212F3
:1020300004F10800002101F04FFC07E00127012511
:1020400012E004F12800022101F0D6FC05462F46DB
:1020500055B9D8F82800D4F8901020F0E0400025B9
:102060000843C8F8280037462078400625D5D4F81C
:102070009C004FEAB02005280AD8DFE800F01203E0
:102080000C12121204F10800002101F025FC07E0F7
:102090000126012512E004F12800022101F0ACFC28
:1020A00005462E4655B9D8F82C00D4F89C1020F4DB
:1020B000E05000250843C8F82C003E462078000672
:1020C00025D5D4F8A0004FEA703005280AD8DFE8FB
:1020D00000F012030C12121204F10800002101F0AA
:1020E000FBFB07E00127012512E004F12800022193
:1020F00001F082FC05462F4655B9D8F82C00D4F8DB
:10210000A01020F4604000250843C8F82C00374692
:102110002068010704D4C1061BD4000332D452E066
:10212000D4F88410B1F5805F0AD104F128000221AF
:1021300001F062FC002818BF01272068D4F8841041
:10214000D8F8282022F440521143C8F82810C106BC
:10215000E3D5D4F89810B1F5807F0AD104F12800B6
:10216000022101F049FC002818BF01272068D4F89B
:102170009810D8F82C2022F440721143C8F82C1083
:10218000000320D5D4F8A400B0F5003F0FD0B0F57F
:10219000803F06D070BB04F10800002101F09CFBD9
:1021A00004E004F12800022101F026FC05462E4639
:1021B00055B9D8F82C00D4F8A41020F440300025EC
:1021C0000843C8F82C003E46A078400727D5D4F82D
:1021D0008800B0F5401F16D0B0F5001F0DD0B0F547
:1021E000801F40F01D81D8F8000040F40030C8F88E
:1021F000000008E001260125E6E704F1280001219E
:1022000001F0FAFB05462F4655B9D8F82800D4F856
:10221000881020F4401000250843C8F828003746ED
:10222000A078C00701D13E461FE0206DB0F5803F89
:1022300007D0C0B9D8F8000040F40030C8F800005A
:1022400005E004F10800022101F046FB05462E4698
:102250005DB9D8F82000216D20F4803000250843B6
:10226000C8F82000DFE7012601252168880003D493
:1022700060688A030CD450E004F12800022101F0C8
:10228000BBFB002818BF0126D4E900108A0344D5FF
:10229000D4F880206FF0010303EB3223022B0BD321
:1022A0004FEA322343B1012B40F0BD80D8F8003013
:1022B00043F40033C8F8003045B3CA0230D4CA0032
:1022C00038D48A0241D44A0049D4B1F1FF3F56DDE7
:1022D00009025ED4C10767D1810770D441077AD45F
:1022E000010700F18480C10600F18D80800607D5CA
:1022F00004F12800022101F07FFB002818BF01250E
:10230000002D18BF01252846BDE8F087D8F82830F1
:1023100023F440731A43C8F828203546CA02CED5A4
:10232000D8F82420636F22F000421A43C8F8242012
:10233000CA00C6D558F81C2CD4F8B83022F4804214
:102340001A4348F81C2C8A02BDD5D8F82420E36E25
:1023500022F080721A43C8F824204A00B5D558F8F4
:102360001C2C22F4004248F81C2CD4F8BC2058F84D
:102370001C3C1A4348F81C2CB1F1FF3FA8DCD8F8EC
:102380002020636D22F040521A43C8F82020090231
:10239000A0D5D8F82810D4F88C2021F4400111439E
:1023A000C8F82810C10797D004F10800002101F0F7
:1023B00093FA002818BF0546606881078ED504F19E
:1023C0000800012101F088FA002818BF054660685E
:1023D00041077FF585AF04F10800022101F07CFA86
:1023E000002818BF0546606801077FF57CAF04F13F
:1023F0002800002101F000FB002818BF0546606896
:10240000C1067FF573AF04F12800012101F0F4FA51
:10241000002818BF0546606880067FF571AF67E742
:1024200001270125FCE60125CA027FF548AF77E7C1
:10243000D4F8B4004FF6CF7358F81C2CC0F2FF0349
:1024400000F4407122F47C5203EA10136FF31F3042
:10245000B1F5407F08BF1A43002548F81C2CD8F876
:1024600044100843C8F8440015E5000000000000CF
:102470002DE9F04381B0002800F0288142F20008E5
:102480000446C5F200288946D8F8000000F00F0085
:1024900088420ED2D8F8000020F00F0040EA090070
:1024A000C8F80000D8F8000000F00F00484540F0E0
:1024B0000D81206844F218474107C5F602070AD586
:1024C00021693A6802F07002914204D93A6822F018
:1024D00070021143396001070AD561697A6802F018
:1024E0007002914204D97A6822F070021143796037
:1024F000C1060AD5A1697A6802F4E062914204D962
:102500007A6822F4E0621143796081060AD5E169B4
:10251000BA6802F07002914204D9BA6822F07002DF
:102520001143B96010F002010AD0E2683B6803F081
:102530000F039A4204D93B6823F00F031A433A6011
:10254000C20745D0386820F47061D4E9010201283F
:1025500041EA0201396009D003280DD0022811D1C7
:1025600057F8181C890340F1B18010E057F8181C87
:10257000C90540F1AB800AE057F8181C890140F109
:10258000A58004E057F8181C490740F19F8057F8D0
:10259000081C21F00701084347F8080CFFF790F9E1
:1025A000064641F2883500BF57F8080C616800F014
:1025B0003800B0EBC10F08D0FFF782F9801BA842AA
:1025C000F2D9032001B0BDE8F083206800F00201D9
:1025D00051B1E1683A6802F00F02914204D23A68C0
:1025E00022F00F0211433960D8F8001001F00F01FA
:1025F00049450DD9D8F8001021F00F0141EA090131
:10260000C8F80010D8F8001001F00F0149455DD15D
:1026100041070AD521693A6802F07002914204D25A
:102620003A6822F070021143396001070AD56169E6
:102630007A6802F07002914204D27A6822F0700245
:1026400011437960C1060AD5A1697A6802F4E06293
:10265000914204D27A6822F4E062114379608006E4
:102660000AD5E069B96801F07001884204D2B968FE
:1026700021F070010843B86000F02EF8396844F288
:102680008A433A68C0F60003C1F3032102F00F0247
:10269000595C9A5C01F01F0120FA01F102F01F0061
:1026A00040F2080221FA00F0C2F20042106040F24B
:1026B000240040F20402C2F20040C2F2004200686C
:1026C000116001B0BDE8F043FFF746B9012001B049
:1026D000BDE8F0830000000044F20041C5F60201AD
:1026E0000869C0F3C20003280FD002282AD070BBAB
:1026F0000868800649F20000C0F2D03058BF704729
:102700000968C1F3C101C84070478A6A886AC0F38A
:10271000051CC86ABCF1000F4B6B1DD0C3F3CC0382
:1027200000F00100584302F00302022A00EE100AF2
:10273000B8EE400A12D0A2B90868800614D49FED02
:10274000261A1EE046F60040C0F2DC20704740F634
:102750000010C0F23D007047002070479FED1D1A29
:102760000FE09FED1B1A0CE0086849F20002C0F26E
:10277000D032C0F3C10022FA00F001EE100AB8EE28
:10278000411A086B9FED153A6FF35F2002EE100AB5
:10279000086BC0F34620B8EE422A013000EE032A4F
:1027A00000EE10CAB7EE003AB8EE400A81EE000A19
:1027B00032EE031A20EE010A01EE100AB8EE411AB9
:1027C00080EE010ABCEEC00A10EE100A704700BF8E
:1027D0000024744A001B374C0024744C000000395C
:1027E000F0B581B0002800F070810446007844F212
:1027F0000046C007C5F6020621D12078800740F1C7
:10280000B380306910F03801B06A3CD0182908BF95
:102810005FEA807037D0E068316800285CD021F032
:10282000190108433060FFF74BF805463068400750
:1028300043D4FFF745F8401B0228F7D983E13069FC
:1028400000F03801B06A102905D018290AD100F02B
:102850000300022806D130688003CED560680028C6
:10286000CBD132E16068002847D0B0F5A02F5BD013
:10287000B0F5803F5CD0306820F480303060306844
:1028800020F4802057E030684007E06802D5002837
:1028900000F01B81316821F0190108433060FFF717
:1028A0000FF805463068400707D4FFF709F8401BCA
:1028B00002284FF00300F5D92FE2FEF7F9FF41F2AD
:1028C0000301884246D820697168402821F47C3190
:1028D00047D141F4003046E021F001003060FEF7BE
:1028E000EFFF0546306840073ED5FEF7E9FF401B85
:1028F00002284FF00300F5D90FE2306820F4803051
:102900003060306820F480203060FEF7D9FF054643
:10291000306880037FF571AFFEF7D2FF401B64285B
:102920004FF00300F4D9F8E1306840F480203060C3
:10293000306840F480303060FEF7C2FF054600BFCB
:10294000306880033FF559AFFEF7BAFF401B64289B
:10295000F6D9F8E07068216920F0FE4040EA016095
:1029600001E041EA003070602078C00654D530693B
:1029700000F03801B06A082905D0182919D100F0F3
:102980000300012815D13068C00503D5E06980280F
:1029900040F09B80FEF78CFF41F2030188421ED875
:1029A000206A7168202821F0F84132D141F080403E
:1029B00031E0E0690028306819D040F080003060D4
:1029C000FEF77EFF054600BF3068C005E2D4FEF783
:1029D00077FF401B02284FF00300F5D99DE1F06816
:1029E000216A20F07C5040EA0160F06014E020F0A1
:1029F00080003060FEF764FF054600BF3068C00508
:102A00000AD5FEF75DFF401B02284FF00300F5D901
:102A100083E141EA806070602078000758D4207814
:102A2000800668D4207840077AD4656A002D49D0A2
:102A3000306900F03800182840F0BC80012DB16AE0
:102A4000306B42D001F00302A36A9A423DD1C1F338
:102A50000511E26A914238D10146226B6FF35F2182
:102A6000013A914231D1C0F34622616B01398A4269
:102A70002BD1C0F30642A16B01398A4225D1C0F3A4
:102A80000660E16B013988421FD1706BA16CC0F305
:102A9000CC00814216D0F06A20F00100F062FEF70F
:102AA0000FFF0546FEF70CFFA842FBD0706B4FF6F8
:102AB000F871A26C884340EAC2007063F06A40F08B
:102AC0000100F062002001B0F0BD012001B0F0BDB6
:102AD00060690028706F39D040F001007067FEF720
:102AE000EFFE0546706F800799D4FEF7E9FE401BA4
:102AF0000228F7D927E0A0690028306847D040F4C1
:102B000080503060FEF7DCFE054600BF3068800470
:102B10003FF588AFFEF7D4FE401B0228F6D912E03D
:102B2000D6F8000440F48070C6F80004FEF7C8FE32
:102B3000054600BFD6F80004C00519D4FEF7C0FE54
:102B4000401B6428F6D9032001B0F0BD20F001003D
:102B50007067FEF7B5FE0546706F80077FF55FAFC3
:102B6000FEF7AEFE401B02284FF00300F4D9D4E07C
:102B7000A068002840D0052857D0012859D0306FD0
:102B800020F001003067306F20F0040054E020F4A2
:102B900080503060FEF794FE054600BF3068800428
:102BA0007FF540AFFEF78CFE401B02284FF003007C
:102BB000F4D9B2E0306820F080703060FEF780FE1B
:102BC000022D05460CD100BF3068800146D5FEF7C6
:102BD00077FE401B02284FF00300F5D99DE000BFAF
:102BE000306880017FF56EAFFEF76AFE401B022859
:102BF0004FF00300F4D990E0306F20F0010030670F
:102C0000306F20F004003067FEF75AFE054641F2AF
:102C10008837306F80077FF508AFFEF751FE401B05
:102C2000B8424FF00300F4D977E0306F40F0040071
:102C30003067306F40F001003067FEF741FE054617
:102C400041F28837306F80073FF5EFAEFEF738FE70
:102C5000401BB8424FF00300F4D95EE004F12807AE
:102C6000B06A40F2F33188438ECF0843591E40EAE0
:102C700002104FF47E426FF35F21B06202EB4720F7
:102C80004FF4FE0280B2E36B0844A16B02EB0141FA
:102C90004FF0FE4201F4FE0102EB0362084402F031
:102CA000FE4108443063F06A4FF6F87120F00100ED
:102CB000F062706BA26C884340EAC2007063F06AF5
:102CC000216C20F00C000843F062F06A616C20F087
:102CD00002000843F062F06A40F48030F062F06A6B
:102CE00040F40030F062F06A40F48020F062F06A54
:102CF00040F00100F062306840F080703060FEF714
:102D0000DFFD0446306880013FF5DCAEFEF7D8FDFC
:102D1000001B02284FF00300F4D901B0F0BD000001
:102D20007047000000000000704700000000000035
:102D30002DE9F04381B00446066830697169D6F820
:102D4000089094F88180020709D511F4006206D03A
:102D5000B06940F40060B061D4F8A8101CE001EA4A
:102D6000000505F06407042F05D1616F20468847F0
:102D7000216F2046884705F04500012807D1216FC3
:102D80002046884705F02600022804D00BE005F015
:102D90002600022805D1616F204601B0BDE8F0434E
:102DA0000847042F02D101B0BDE8F083280771D491
:102DB00015F4587FF7D015F040000AD02068D4F8F9
:102DC000841041F00401C4F88410816941F040018D
:102DD0008161A8050AD52068D4F8841041F001016A
:102DE000C4F88410816941F400718161E80505F03F
:102DF00020000AD52168D4F8842042F00802C4F8E3
:102E000084208A6942F480728A6150B12068D4F8C3
:102E1000841041F08001C4F88410816941F02001E0
:102E20008161D4F884000028BDD0206809F44042B4
:102E300040F26B33B2F5404F016821F001010160AF
:102E4000016921EA0301016174D1816843F6E1352A
:102E500021F440418160E06FC0F6000548B105658E
:102E6000FDF796FB28B1D4F8840040F04000C4F888
:102E70008400A06F002896D00565FDF789FB002827
:102E800091D0D4F8840040F04000C4F8840001B030
:102E9000BDE8F0832068816941F0080181618169A2
:102EA00041F010018161816941F400618161016932
:102EB00021F008010161806810F4404F16D02046CF
:102EC00000F032FE012084F88100D4F8840020B3A1
:102ED000D4F8A01060E72068616E006B41F8040B25
:102EE0006166B4F86A000138A4F86A00B4F86A00B0
:102EF0000028E4D0E0681028EDD2082804D3308EF2
:102F0000616E21F8020BEBE7206890F83000616EEB
:102F10000870606E01306066E3E7B8F1030F0FD010
:102F2000B8F1040F0FD0B8F1050F7FF43CAFD4F81F
:102F3000901031E7012084F88100D4F8A0102BE72D
:102F4000D4F8881028E7D4F88C1025E7000000009A
:102F50002DE9F047002800F0988043F6000304466E
:102F60000068C4F2000343F2000E43F6004C98429E
:102F7000C4F2010EC4F2000C4FF00001A16203D0B4
:102F8000604518BF70457CD1E16B0122E56898422D
:102F900002EB511105F108024FEAD20202FB01F1E6
:102FA00018BF704564D110296FD894F8811000299A
:102FB00042D1002084F8800043F2C13043F2D9218D
:102FC000C0F60000C0F60001C4F8880043F2D1301A
:102FD000C4F88C1043F2C931C0F60000C0F60001FD
:102FE000C4F8900043F2E120C4F8941043F2894100
:102FF000C0F60000C0F60001C4F8980042F629505F
:10300000C4F89C1042F62151C0F60000C0F6000141
:10301000C4E92801D4F8AC1043F2E920C0F600005E
:10302000C4F8A80029B943F28111C0F60001C4F820
:10303000AC10204688472068022184F8811001687E
:1030400021F0010101608168D4F81880B8F1806F27
:1030500001F4F81CD4F804A022D1BAF1000F17D063
:10306000BAF5800F1CD1A36BB3B14FF4800A1FE0F7
:10307000604518BF082908D8704518BF604592D030
:1030800093E7E1680F297FF67FAF0120BDE8F08765
:10309000A36BB3F1805F6ED1036843F48053036088
:1030A0005FEA4A2304D4D4F80C904FF0010E0FE0ED
:1030B000D4F80C90B9F1070F08D3056825F4807E89
:1030C000256D45EA0E054FF0000E04E04FF0000EAE
:1030D000056825F480750560BAF1000FE769A26AFA
:1030E00047EA0C07E36B42EA0702A56842EA0302DB
:1030F0002669676942EA090282604AEA0803626B4C
:10310000616A42EA0302A36B41EA020141EA030158
:10311000226A41EA0601E36C41EA070141EA020141
:10312000A26C41EA0301A36D41EA050141EA0201F3
:1031300041EA0301C16009D18168012262F3CC2117
:1031400081608168022262F34A218160016DBEF1D3
:10315000000F21F00101016505D1C168626D21F008
:1031600000411143C1600020C4F88400012184F8AB
:103170008110BDE8F0874FF0000A94E700000000DE
:103180002DE9F043B7B0044602A828309821002565
:103190003295CDE93555CDE93355FDF7EDF843F6D8
:1031A00000412068C4F20001884202D037B0BDE877
:1031B000F0834FF4805002901A9002A803950321E7
:1031C000049109210591012106914FF00208CDE9F2
:1031D0000788C021099120210A914FF440610B9189
:1031E000FEF76AFC08B1FDF7CBF944F2E04040F28B
:1031F0000045C5F60200C5F6020532AE002781681B
:1032000041F400418160816801F40041019101991C
:10321000016841F002010160016801F002010191C1
:103220000199016841F0040101600068314600F035
:103230000400019001980420CDE93208072036905F
:103240002846CDE93477FEF737FA4FF4006031466F
:10325000CDE9320805F580604FF00609CDE93477F5
:10326000CDF8D890FEF728FA08203146CDE932088B
:103270002846CDF8D890CDE93477FEF71DFA40F214
:103280009C051020C2F20045C4F2020028603E20D6
:1032900068604020C5E902074FF48060AF61C5E96E
:1032A00004074FF480706F62C5E907072846FDF7F1
:1032B000B3FE08B1FDF764F9332000210022A567B1
:1032C000AC63FEF795FB3320FEF782FB37B0BDE819
:1032D000F0830000000000007047000000000000C4
:1032E0007047000000000000704700000000000070
:1032F00010B590F880C0BCF1010F01D1022010BDC3
:103300004FF0010C80F880C090F881C0BCF1010F33
:1033100032D14FF0050C80F881C04FF0000CC0F89E
:1033200084C0C16543F6294EA0F86030C0F6000E97
:10333000A0F86230426643F6F932A0F86830C0F671
:103340000002A0F86A30B0F862C002670468C0F8F2
:1033500074E0BCF1000FE26822F4C022E260D4F80D
:1033600004E04FF6FF722EEA02021A4462602268FD
:1033700042F00102226010E0022119E0097884F88D
:103380002010C16D04680131C165B0F86220013AB6
:10339000A0F86220B0F86220002A636918BF13F019
:1033A0000202EBD1216940F26C72114321610021CC
:1033B000002280F88020084610BD000000000000B8
:1033C000704700000000000070470000000000008F
:1033D000B0B540F21411C2F20041884200D0B0BD35
:1033E00040F28A001022C2F20040C0F6005201688A
:1033F00091421DD050210068CFF60041884218BF8D
:10340000B0BD40F2980445F22010C2F20044C0F66C
:103410000000256800EB850090ED000A012000F017
:10342000CBFDB6EE000B40F21801C2F2004115E0F0
:1034300040F2940444F29C40C2F20044C0F6000002
:10344000256800EB850090ED000A002000F0B4FD37
:10345000B6EE000B40F21001C2F20041020E91EDF7
:10346000001B31EE000B81ED000B40F21421C2F283
:1034700000410A70020C4A70020A8A70C870681C07
:103480002060B0BD00000000704700000000000098
:10349000411E0020B0EB116F01D0012070474EF2A9
:1034A0001002F023CEF2000251604EF62351CEF20C
:1034B00000010B7007219060116070470000000050
:1034C000B0B590F83C20012A4FF0020259D080F8A4
:1034D0003D2040F2004C0268C4F2010C42F48063CB
:1034E00063455368D2F808E002BF23F470034C68C8
:1034F000234341F2FF740D68C4F2000423F070030B
:10350000A24243EA050353600BDC40F2FF73C4F2AE
:1035100000039A4215DCB2F1804F27D040F20043FD
:1035200017E040F2FF33C4F201039A4216DC41F681
:103530000003C4F200039A4218D00023C4F201032E
:1035400009E040F60003C4F200039A420ED040F6B0
:103550000043C4F200039A4208D00CE044F2000396
:10356000C4F201039A4201D0624504D12EF08003D7
:103570008968194391600022012180F83D1080F88C
:103580003C201046B0BD000060B310B5044690F872
:103590003D0028B9002084F83C00204600F024F8C3
:1035A000022084F83D002068211D00F061FC01200C
:1035B00084F8480084F83E0084F83F0084F8400016
:1035C00084F8410084F8420084F8430084F8440001
:1035D00084F8450084F8460084F8470084F83D00EC
:1035E000002010BD0120704781B000210068C4F2A6
:1035F0000101884201D001B0704744F2F040C5F6A5
:103600000200016841F001010160006800F0010062
:103610000090009801B0704790F83D10012917D133
:10362000022180F83D10016841F2FF70C4F20000F1
:1036300081420FDC40F2FF70C4F20000814217DCCF
:10364000B1F1804F2BD040F20040C4F2000024E0E2
:103650000120704740F2FF30C4F20100814212DCC9
:1036600041F60000C4F20000814218D0002012E0B0
:1036700040F60000C4F20000814210D040F6004045
:10368000C4F2000009E044F20000C4F201008142EB
:1036900005D040F20040C4F2010081420BD1072264
:1036A0008868C0F2010202400020062A18BFB2F565
:1036B000803F00D17047086840F00100086000209A
:1036C000704700000000000080B590F83C20012AFF
:1036D0004FF0020200F0A18080F83D208822D0F84F
:1036E00000C0CFF6CE72DCF808301A40CCF80820C3
:1036F0000B686F2B0CDDB3F1101F34DAB3F5005FEC
:1037000042DA702B00F08B80B3F5805F7ED0CEE084
:103710002F2B32DD4F2B3CDC302B6BD0402B40F07D
:10372000C680D1F804E0C968DCF82030DCF820203D
:1037300022F00102CCF82020DCF8182022F0F00260
:1037400042EA011123F00A02CCF8181042EA0E01F5
:10375000CCF820104FF68872DCF80810CFF6CF7244
:103760001140473150E02F21C0F210018B4237DC6D
:10377000B3F1101F3ED0202138E0002B18BF102BD2
:1037800038D0202B36D092E05CD0B3F5801F31D0FA
:103790008DE0502B69D0602B40F08980D1F804E097
:1037A000C968DCF8203023F01003CCF82030DCF8B6
:1037B0001830DCF8202023F4704322F0A00243EA02
:1037C0000131CCF8181042EA0E11CCF820104FF657
:1037D0008872DCF80810CFF6CF721140673113E021
:1037E0003021C0F210018B4204D04021C0F2100100
:1037F0008B425CD14FF68872DCF80810CFF6CF729E
:103800001140194341F00701CCF8081000220121B2
:1038100080F83D10002180F83C10104680BDD1E9B1
:1038200001E3C968DCF8082043EA0E0322F47F4272
:1038300043EA01211143CCF80810DCF8081041F0EC
:103840007701E1E7D1E901E3C968DCF8082043EA40
:103850000E0322F47F4243EA01211143CCF8081001
:10386000DCF8081041F48041CEE7D1F804E0C968E3
:10387000DCF82030DCF8202022F00102CCF82020F7
:10388000DCF8182022F0F00242EA011123F00A02CB
:10389000CCF8181042EA0E01CCF820104FF68872CE
:1038A000DCF80810CFF6CF7211405731ACE7012297
:1038B000ADE7000000000000FEE70000000000008F
:1038C000FEE7000000000000FEE70000000000002E
:1038D0007047000000000000F0B581B044F22C47B2
:1038E000C5F6020757F8042C02F00302032A02D19E
:1038F000012001B0F0BD054657F82C0C0C4620F015
:10390000806047F82C0CFDF7DBFF064657F82C0CBF
:10391000000105D5FDF7D4FF801B0228F6D964E02D
:1039200057F8040CEE6895E80E0020F47C30012C6A
:1039300040EA0130A2F101016FF35F214FF47E42B2
:1039400002EB432247F8040C92B24FF0FE4302EB25
:1039500001004FF4FE012A6901EB064101F4FE016A
:1039600003EB0262084402F0FE410844F860386844
:10397000696920F0C00040EA010038603868A96930
:1039800020F0200040EA0100386038684FF6F871F6
:1039900020F0100038603869EA6920EA01004FF42D
:1039A000001140EAC2003861386808BF4FF4801146
:1039B00040F01000002C386008BF4FF40021386838
:1039C0000843386057F82C0C40F0806047F82C0C06
:1039D000FDF776FF044600BF57F82C0C000107D412
:1039E000FDF76EFF001B0328F6D3032001B0F0BDE6
:1039F000002001B0F0BD0000F0B581B044F22C47CA
:103A0000C5F6020757F8042C02F00302032A02D17C
:103A1000012001B0F0BD054657F82C0C0C4620F0F3
:103A2000805047F82C0CFDF74BFF064657F82C0C3E
:103A3000800005D5FDF744FF801B0228F6D964E01D
:103A400057F8040CEE6895E80E0020F07C70012C0D
:103A500040EA0150A2F101016FF35F214FF47E4271
:103A600002EB432247F8040C92B24FF0FE4302EB04
:103A700001004FF4FE012A6901EB064101F4FE0149
:103A800003EB0262084402F0FE41084478613868A2
:103A9000696920F4406040EA010038603868A9692B
:103AA00020F4007040EA0100386038684FF6F87181
:103AB00020F480703860B869EA6920EA01004FF0AC
:103AC000807140EAC200B861386808BF4FF4000155
:103AD00040F48070002C386008BF4FF480013868D3
:103AE0000843386057F82C0C40F0805047F82C0CF5
:103AF000FDF7E6FE044600BF57F82C0C800007D403
:103B0000FDF7DEFE001B0328F6D3032001B0F0BD55
:103B1000002001B0F0BD000040F21410C2F20040DD
:103B2000FFF706B900000000016840F26F32D1F8DB
:103B300014C08B6943F008038B618B6943F0100359
:103B40008B610B6823F001030B600B6923EA02020F
:103B50000A618A6822F440428A6090F881305FEA04
:103B60008C620BD5042B09D0D0F8842042F080025F
:103B7000C0F884208A6942F020028A6190F881307E
:103B80005FEA4C620BD5032B09D0D0F8842042F0B9
:103B90000402C0F884208A6942F040028A615FEA28
:103BA0008C5209D5D0F8842042F00102C0F884205C
:103BB0008A6942F400728A615FEACC5209D5D0F872
:103BC000842042F00802C0F884208A6942F480729E
:103BD0008A610021A0F86210A0F86A107047000006
:103BE000806B0021A0F86A10A0F86210012180F813
:103BF0008110D0F8A0100847016891F83010426E8B
:103C00001170416E01314166B0F86A100139A0F8B7
:103C10006A10B0F86A10002918BF7047006801697F
:103C200021F0010101617047C16D0268097882F8D5
:103C30002010C16D0131C165B0F862100139A0F8E2
:103C40006210B0F86210002918BF7047006801695F
:103C500021F0020101617047704700000000000080
:103C6000FDF736BE0000000070B59CB044F61804A5
:103C700040F22C4509A84C21C5F60204C5F6000502
:103C8000FCF77AFB02200026CDE90766CDE9056640
:103C9000CDE90366CDE90166FDF7EAFE00962868E6
:103CA00020F001002860286800F0010000902068E2
:103CB00040F440402060206800F4404000900098AC
:103CC000206880045FBF20685FEA804020685FEA68
:103CD000804002D420688004F2D54FF6DC40CFF655
:103CE000FF70215841F002012150205800F00200DD
:103CF0000090009800200090206840F44040206030
:103D0000206800F440400090286840F001002860DE
:103D1000286800F001000090009800BF206880042F
:103D20005FBF20685FEA804020685FEA804002D47D
:103D300020688004F2D5012009904FF480300A9069
:103D400002203C21CDE91200CDE91510CDE9170084
:103D50000C20199009A8032414940025CDE91A55C4
:103D6000FEF73EFD18B1EFF3108072B6FEE701A931
:103D70003F2031C10820049040204FF48061CDE9FC
:103D80000500CDE9071001A80421FEF771FB20B161
:103D9000EFF3108072B600BFFEE71CB070BD0000EC
:103DA0004EF6885042F2000CCEF20000C5F2002C14
:103DB000016841F470010160DCF8000000F00F00C0
:103DC000062806D8DCF80000072161F30300CCF8D0
:103DD000000044F200404EF67F52C5F60200CEF6D7
:103DE000F622016841F001010160002101610368D0
:103DF0001A400260DCF80020120706D5DCF800202B
:103E0000072363F30302CCF8002040F20022816113
:103E1000C161C0F20222016282620022C0F2FF127E
:103E2000C26240F28022C0F20112026341638263E7
:103E3000C16302644164026822F480220260016668
:103E400041F20000C5F600400068B1EB507F05D19B
:103E500048F208100121C5F20010016044F2000090
:103E600043F2D201C5F2002001607047000000005B
:103E700010B540F6FF32C4F20002904202680FDC37
:103E8000B0F1804F1DD040F20043C4F200039842CD
:103E900017D040F60003C4F20003984211D014E09A
:103EA00040F60043C4F2000398420AD040F20043B7
:103EB000C4F20103984204D00023C4F201039842E3
:103EC00003D122F070024B681A434FF6FF7343F69A
:103ED000FF7CC4F20003C4F2010C984210DD60457F
:103EE0001ADD44F20003C4F2010398422CD044F6D8
:103EF0000003C4F20103984226D044F2004312E0CA
:103F000040F2FF73C4F20003984211DCB0F1804F1D
:103F10001AD040F2004313E00023C4F20103984298
:103F200012D040F20043C4F2010398420CD00FE0DB
:103F300040F60003C4F20003984205D040F6004367
:103F4000C4F20003984203D122F44072CB681A43B2
:103F500022F080024C696045D1F800E08B6842EAAB
:103F600004020260C362C0F828E00EDD44F20002E1
:103F7000C4F20102904213D044F60002C4F20102DE
:103F800090420DD044F2004206E00022C4F2010249
:103F9000904205D040F20042C4F20102904201D1A9
:103FA000096901630121416110BD000000000000AA
:103FB000FEE70000000000002DE9F04FB7EEC00A58
:103FC0009FEDAB1B20EE010BBCFEC00B10EE102AC8
:103FD000002A04D41101C9B2C2F3071206E000217D
:103FE000A1EB02131101FF2282EA132240F2010326
:103FF00040F20006C2F20043C2F2004600284FF031
:10400000004A18BF1E46D3B24FF0FF3E3078FF265D
:104010006FF020094FF0000840EA9310C1F38113BC
:1040200062F3870397228902C1EA034141EA006CE7
:104030002820614687B21EFA80F5C7F1210721FAD0
:1040400005F506FA07F719FA80F43D43002C58BF2E
:1040500026FA04F505F00104644204EA0A05144056
:1040600069406640B1F5807476F10004C0F0FB80D1
:10407000451E5FEA520BAFB24FEA3A041EFA85F3CF
:10408000C7F1210721FA03F306FA07F719FA85F5B4
:104090003B43002D58BF26FA05F303F001035B42B2
:1040A0001C4003EA0B0361405E40D1F1FF0378EB53
:1040B000060380F0D880831E9CB21EFA83F5C4F1FB
:1040C000210421FA05F506FA04F419FA83F32C43C6
:1040D000002B58BF26FA03F44FEA9A0304F00104B8
:1040E00043EA82736442234004EA920459406640E2
:1040F000B1F5807376F10003C0F0B580C31E9CB2A9
:104100001EFA83F5C4F1210421FA05F506FA04F438
:1041100019FA83F32C43002B58BF26FA03F44FEA15
:10412000DA0304F0010443EA42736442234004EAE0
:10413000D20459406640B1F5807376F10003C0F0B7
:104140009280031F9CB21EFA83F5C4F1210421FA68
:1041500005F506FA04F419FA83F32C43002B58BF33
:1041600026FA03F44FEA1A1304F0010443EA027337
:104170006442234004EA121459406640B1F580734A
:1041800076F100036FD3431F9CB21EFA83F5C4F18E
:10419000210421FA05F506FA04F419FA83F32C43F5
:1041A000002B58BF26FA03F44FEA5A1304F0010417
:1041B00043EAC2636442234004EA52145940664011
:1041C000B1F5807376F100034DD3831F9CB21EFAC4
:1041D00083F5C4F1210421FA05F506FA04F419FA6D
:1041E00083F32C43002B58BF26FA03F44FEA9A13AB
:1041F00004F0010443EA82636442234004EA921417
:1042000059406640B1F5807376F100032BD3C31F8C
:104210009CB21EFA83F5C4F1210421FA05F506FAD1
:1042200004F419FA83F32C43002B58BF26FA03F445
:104230004FEADA1304F0010443EA42636442234084
:1042400004EAD21459406640B1F5807376F1000358
:1042500009D34FEA1A23083843EA026A03044FEAF3
:1042600012227FF4E7AEC8B240EA0C00BDE8F08F3E
:10427000B81E85EB5178344088B040F6000943F60B
:104280000048C5F60209C4F20008FDF731FBFFF74C
:10429000EBFC44F2E0460027C5F6020604974FF413
:1042A0000071002230684FF4007440F080003060EC
:1042B000306800F0800005900598306840F00200FA
:1042C0003060306800F0020005900598306840F0DA
:1042D00004003060306800F00400059005984846FE
:1042E000FDF7DEFA6D460120CDE901074846294673
:1042F00000940397FDF7E0F94FF4806000904FF4CD
:10430000881001900220029048462946FDF7D4F912
:10431000282000210022FDF76BFB2820FDF758FB29
:1043200056F8080C002140F0010046F8080C56F839
:10433000080C002200F00100009000980B20FDF70F
:1043400057FB0B20FDF744FB40F2C8100397C2F265
:1043500000400797CDE90177CDE9057708F544419D
:104360000160EF21C0E901174FF6FF71C0E90317A3
:10437000C0E90577FFF708F918B1EFF3108072B6BE
:10438000FEE74FF48050009040F2C8106946C2F238
:104390000040FFF799F920B1EFF3108072B600BF2B
:1043A000FEE740F2C81005A9C2F200400024CDE9A2
:1043B00005440794FFF784F818B1EFF3108072B644
:1043C000FEE740F214150720C2F200452821C5E996
:1043D00003044FF08060A86105F13400AC60C5E9CA
:1043E00000846C61C5E90844C5E90A44FBF7C4FFD1
:1043F0002846FEF7ADFD20B1EFF3108072B600BF86
:10440000FEE740F2C810C2F20040FFF705F940F2A3
:10441000100440F2240840F2900A40F2141540F2D1
:10442000142640F28A07C2F20044C4F20108C2F224
:10443000004AC2F20045C2F20046C2F2004705E05F
:104440000423284631463A46FEF752FF94ED000B0E
:10445000B5EE400BF1EE10FAF2D14FF400710122EB
:104460004846FDF71DFAD8F80000AAF80000E7E773
:10447000F1EE100A4FF6FF71C0F2C03120EA0100E0
:1044800040F04070E1EE100A7047000000000102A9
:10449000030401020304060708090000AF2E1FC031
:1044A000C0D115C0D0740CC09E8B28C0C0D115C01F
:1044B000AF2E1FC0AF2E1FC0D0740CC0C0D115C00E
:1044C000E11703C0AF2E1FC0D0740CC0C0D115C0FF
:1044D000C0D115C0AF2E1FC0D0740CC0D0740CC09A
:1044E000AF2E1FC0D0740CC0C0D115C0AF2E1FC0DE
:1044F000C0D115C0C0D115C0C0D115C0C0D115C024
:10450000AF2E1FC0C0D115C0D0740CC09E8B28C068
:10451000C0D115C0C0D115C0AF2E1FC0C0D115C0AD
:10452000AF2E1FC0D0740CC0C0D115C0C0D115C0F3
:10453000C0D115C0D0740CC0C0D115C0AF2E1FC0E3
:10454000C0D115C0C0D115C0AF2E1FC0D0740CC0D3
:10455000D0740CC0AF2E1FC0D0740CC0C0D115C019
:10456000D0740CC0C0D115C0AF2E1FC0C0D115C0B3
:10457000AF2E1FC0C0D115C0C0D115C0D0740CC0A3
:10458000C0D115C0D0740CC0D0740CC0C0D115C03F
:10459000C0D115C0D0740CC0C0D115C0AF2E1FC083
:1045A000C0D115C0C0D115C0AF2E1FC0D0740CC073
:1045B000C0D115C0AF2E1FC0D0740CC0C0D115C063
:1045C000C0D115C0E11703C0AF2E1FC0AF2E1FC052
:1045D000E11703C0C0D115C0AF2E1FC0AF2E1FC042
:1045E000C0D115C0C0D115C0AF2E1FC0C0D115C0DD
:1045F000C0D115C0C0D115C0AF2E1FC0C0D115C0CD
:10460000AF2E1FC0C0D115C0D0740CC0AF2E1FC0BC
:10461000AF2E1FC0C0D115C0AF2E1FC0C0D115C056
:10462000AF2E1FC0AF2E1FC0C0D115C0D0740CC09C
:10463000AF2E1FC0C0D115C0D0740CC0AF2E1FC08C
:10464000C0D115C0C0D115C0D0740CC0C0D115C028
:10465000D0740CC0C0D115C0E11703C0D0740CC019
:10466000AF2E1FC0C0D115C0C0D115C0AF2E1FC006
:10467000D0740CC0AF2E1FC0AF2E1FC0D0740CC0A2
:10468000AF2E1FC0AF2E1FC0C0D115C0C0D115C0E6
:10469000C0D115C0D0740CC0C0D115C0C0D115C0D8
:1046A000C0D115C0AF2E1FC0D0740CC0AF2E1FC01C
:1046B000C0D115C0D0740CC0C0D115C0C0D115C0B8
:1046C000C0D115C0C0D115C0AF2E1FC0D0740CC052
:1046D000AF2E1FC0C0D115C0D0740CC0C0D115C042
:1046E000C0D115C0C0D115C0D0740CC0AF2E1FC032
:1046F000AF2E1FC0C0D115C0D0740CC0C0D115C022
:10470000AF2E1FC0D0740CC0AF2E1FC0AF2E1FC065
:10471000D0740CC0C0D115C0C0D115C0D0740CC0AD
:10472000D0740CC0AF2E1FC0C0D115C0D0740CC047
:10473000C0D115C0C0D115C0AF2E1FC0D0740CC0E1
:10474000C0D115C09E8B28C0E11703C0AF2E1FC07B
:10475000C0D115C0E11703C0AF2E1FC0C0D115C016
:10476000D0740CC0AF2E1FC0C0D115C0C0D115C0B1
:10477000C0D115C0D0740CC0C0D115C0AF2E1FC0A1
:10478000D0740CC0C0D115C0C0D115C0AF2E1FC091
:10479000C0D115C0C0D115C0AF2E1FC0C0D115C02B
:1047A000D0740CC0C0D115C0AF2E1FC0C0D115C071
:1047B000AF2E1FC0C0D115C0C0D115C0C0D115C00B
:1047C000C0D115C0C0D115C0C0D115C09E8B28C0A6
:1047D0006CA244C0B038ADC0F60255C1F3C487C066
:1047E00005BCE0BFB8720CC1B038ADC01958D74095
:1047F000FD372DC185EF88C11958D7404C6B6CC16E
:104800008E5DA7C13A6F0C403CC875C188C26EC1AD
:1048100007862840DCF13FC1D5BC67C1C0D115C0B7
:10482000C8B6E0C1D27E9AC0D0BD4F424BD1CCC1F8
:10483000724EC9C18FCD95407685D8C121B760C170
:10484000F46FF341CBA17BC278B611C2A2A9D240CA
:104850009E0D94C264433BC1B8720CC1189C74C2D3
:10486000919BF44133113342E2FA65C2DA8A10C2F5
:1048700068131BC2B911B3C1D4757A42A3B36040A7
:10488000BB7D69C2E08EAFC116E212C221CF15C254
:1048900038F58FC1962C1FC1F4010642C3EFBF400B
:1048A000D1E981C1398F2FC1F8A1FBC166E2E1C115
:1048B0004C66E5C0737F02C2D27E9AC088C26EC1C8
:1048C000FE0944C24C6B6CC1A09A3DC141961EC208
:1048D000CB4E49C1C9CCE0BE771F78C1DB5CA74194
:1048E000A973C341D09D0DC2FCF03F426B738CC0D5
:1048F000F61A0AC271CA7C408C5FDEC18A136AC292
:1049000013A0E03EEDE286C24FBC67C2A92011C2EF
:104910006B7813C14A8558C288DA23C201080DC2D8
:10492000E04004C2388AA8C0A79E81C29394B6C151
:104930004C41BB40EB2D07C268131BC2A92011C21A
:1049400096CDFCC1523915C2C37FD1C1EFCD7CC118
:1049500041961EC2744C92C1007173C1FD372DC1C6
:10496000046D05C13D2C9FC12A20F8C05AD832B928
:10497000996565C1C9CCE0BEFE413B41D1E981C129
:10498000F6FDCDC0868928C172001EC25E728CC140
:104990005E728CC15C74C3C1FFD6D3C13B2ED6C13D
:1049A000F031A6C17983A1C1B2DCDAC1553FEBC1B8
:1049B000D65301C2CDEDEFC1060CACC166E2E1C138
:1049C000724EC9C1B911B3C1AB6C85C143FD4DC1B4
:1049D000046D05C1EFCD7CC1C314EAC0868928C12E
:1049E0005E728CC16DACD2C0B13D34C16DACD2C071
:1049F0005BD51CC17E4FC9C0C91503C1ED9436C13A
:104A0000771F78C1A7CF15C1F3C487C0492D9FC0B8
:104A10002F2111C14C66E5C04FE595BEC1DBA3C097
:104A20008DBE00C106A1C4C08FF2BFC09CC160BFD3
:104A3000AC1A83BF08D07CC0F6FDCDC05BFF4DC073
:104A40006CA244C07D453BC09E8B28C0E11703C0CB
:104A50003EA2153EF9F6CD3F2702CEBF1744BBC09C
:104A60007F0F833F6B738CC06B738CC028E7B1C022
:104A7000007173C1D0740CC04FE595BE8DBE00C1EE
:104A80007F0F833FB4565740A2CEFCC0B66AF33FB7
:104A9000F6FDCDC0AF2E1FC013A0E03E7B1683C035
:104AA000F3C487C005BCE0BFAF2E1FC0D59C4440F7
:104AB0006A8EA8BF4848BBBF05BCE0BF4B5C57C06F
:104AC0007F0F833F8BD495BF492D9FC0AC1A83BF06
:104AD0005EC9953F3C83A83F4FE595BE4A1203400F
:104AE000C7C3153FAC1A83BF8BD495BF8DE831C0C7
:104AF0006CA244C018291F405AD832B929CC15409D
:104B000005BCE0BF9CC160BF84373B3F7D453BC0D7
:104B10004848BBBF4FE595BE9E8B28C09E8B28C0E2
:104B20002702CEBF99B8953E6CA244C0AC1A83BF91
:104B300041AB603F2702CEBF8DE831C0D0740CC0BE
:104B40008DE831C0E475F3BF22DA15BF7D453BC067
:104B50009CC160BFC0D115C06B738CC02702CEBF93
:104B60008BD495BF05BCE0BF3C83A83FAC1A83BF84
:104B70007B1683C08BD495BFC0D115C06A8EA8BFE9
:104B80009E8B28C06A8EA8BFC0D115C0D0740CC03F
:104B9000E11703C0E11703C04FE595BE6A8EA8BFB9
:104BA0006B738CC07D453BC0492D9FC04848BBBF3F
:104BB0006CA244C09E8B28C0D0740CC0187373C004
:104BC0006CA244C029166AC029166AC08BD495BF4E
:104BD0009CC160BF3AB960C07D453BC04848BBBF7F
:104BE0008DE831C08DE831C02702CEBF5BFF4DC0DC
:104BF0004848BBBF08D07CC07D453BC06CA244C0C8
:104C0000AF2E1FC0C0D115C04848BBBFD0740CC068
:104C1000D0740CC0AF2E1FC07D453BC07D453BC04E
:104C20008DE831C02702CEBF4FE595BED0740CC0D1
:104C30008BD495BF4848BBBF4848BBBF7D453BC0F0
:104C40008DE831C0AC1A83BF8DE831C0E475F3BF85
:104C50008DE831C0AF2E1FC0D0740CC06CA244C010
:104C60007D453BC0E475F3BF5BFF4DC0AF2E1FC059
:104C70002702CEBF6A8EA8BF8BD495BF2702CEBFB6
:104C80008BD495BF05BCE0BF4848BBBFE11703C04C
:104C9000C0D115C05BFF4DC04848BBBFE475F3BF32
:104CA000E475F3BF8DE831C0C0D115C0E11703C072
:104CB000E475F3BFC0D115C0D0740CC0E11703C0B8
:104CC0002702CEBF2702CEBFAF2E1FC08BD495BF09
:104CD0005BFF4DC07D453BC0E11703C06CA244C0E3
:104CE0006CA244C09E8B28C0C0D115C02702CEBF85
:104CF0002702CEBF7D453BC0E11703C02702CEBFD0
:104D0000AF2E1FC0C0D115C0E11703C06A8EA8BF67
:104D10007D453BC029166AC09E8B28C0AF2E1FC0A0
:104D20008DE831C0D0740CC0AF2E1FC0E475F3BF46
:104D3000E475F3BF2702CEBFE475F3BF4848BBBF9D
:104D4000D0740CC0C0D115C0AF2E1FC04B5C57C073
:104D5000E475F3BFE11703C0E11703C0E11703C017
:104D6000D0740CC0AF2E1FC06CA244C0E475F3BF5A
:104D7000E475F3BF2702CEBF4FE595BE4B5C57C02D
:104D80004848BBBF4848BBBF6CA244C0E11703C042
:104D9000E11703C005BCE0BFE475F3BFE475F3BFE2
:104DA00005BCE0BFE475F3BFC0D115C07D453BC075
:104DB000E475F3BF2702CEBFAC1A83BF3AB960C017
:104DC0009E8B28C08DE831C02702CEBF6A8EA8BF57
:104DD0004848BBBF6CA244C0E475F3BF4848BBBFA2
:104DE0009E8B28C005BCE0BFD0740CC02702CEBF8C
:104DF000E11703C0C0D115C0E475F3BFAF2E1FC0CB
:104E00009E8B28C04848BBBFE11703C0E475F3BFC1
:104E1000C0D115C08DE831C0E11703C0D0740CC0FB
:104E2000D0740CC0C0D115C0AF2E1FC0AF2E1FC094
:104E3000D0740CC0AF2E1FC0AF2E1FC0E11703C02F
:104E4000E475F3BFD0740CC0E11703C0E11703C0D1
:104E5000C0D115C0D0740CC09E8B28C07D453BC00E
:104E60006CA244C0E11703C0C0D115C08DE831C0A9
:104E70009E8B28C07D453BC0D0740CC0E475F3BF49
:104E80007D453BC0C0D115C08DE831C06CA244C087
:104E9000AF2E1FC08DE831C0C0D115C0D0740CC07A
:104EA000AF2E1FC08DE831C0C0D115C0AF2E1FC0BE
:104EB0008DE831C08DE831C0AF2E1FC09E8B28C059
:104EC000C0D115C0D0740CC0AF2E1FC0D0740CC0A0
:104ED000E475F3BFAF2E1FC0D0740CC0C0D115C095
:104EE000E11703C0E11703C0E475F3BFAF2E1FC085
:104EF000C0D115C08DE831C0C0D115C0AF2E1FC0C4
:104F0000C0D115C0AF2E1FC0D0740CC08DE831C009
:104F10009E8B28C08DE831C0AF2E1FC09E8B28C04D
:104F2000AF2E1FC0AF2E1FC0D0740CC0D0740CC0E9
:104F3000C0D115C0AF2E1FC0AF2E1FC0AF2E1FC0D7
:104F4000E11703C0AF2E1FC0AF2E1FC0AF2E1FC072
:104F5000C0D115C0C0D115C0AF2E1FC09E8B28C0B8
:104F60009E8B28C0D0740CC0C0D115C0AF2E1FC0FE
:104F7000C0D115C0E475F3BFE11703C0D0740CC0F5
:104F8000D0740CC0D0740CC0D0740CC0AF2E1FC035
:104F9000AF2E1FC09E8B28C0AF2E1FC0C0D115C022
:104FA0009E8B28C09E8B28C0C0D115C0AF2E1FC0BD
:104FB0008DE831C09E8B28C09E8B28C09E8B28C058
:104FC0008DE831C0C0D115C09E8B28C0C0D115C09E
:104FD0008DE831C09E8B28C09E8B28C09E8B28C038
:104FE0009E8B28C0C0D115C0C0D115C0C0D115C07E
:104FF000C0D115C0AF2E1FC0AF2E1FC0C0D115C06D
:10500000AF2E1FC0E11703C0E11703C0D0740CC05E
:10501000C0D115C0AF2E1FC0AF2E1FC0AF2E1FC0F6
:10502000AF2E1FC0AF2E1FC0C0D115C0C0D115C03C
:10503000C0D115C0C0D115C0AF2E1FC0C0D115C082
:10504000AF2E1FC07D453BC0C0D115C0AF2E1FC0C5
:10505000E11703C0E11703C0C0D115C0C0D115C00E
:10506000AF2E1FC0AF2E1FC0AF2E1FC0AF2E1FC050
:10507000D0740CC0D0740CC0D0740CC0C0D115C09A
:10508000AF2E1FC0AF2E1FC0C0D115C0C0D115C0DC
:10509000E11703C0C0D115C0D0740CC0AF2E1FC023
:1050A000AF2E1FC0AF2E1FC09E8B28C0C0D115C011
:1050B0008DE831C0C0D115C08DE831C0C0D115C058
:1050C000D0740CC0D0740CC0AF2E1FC0AF2E1FC048
:1050D000AF2E1FC0D0740CC0C0D115C0AF2E1FC0E2
:1050E000AF2E1FC0AF2E1FC0D0740CC0C0D115C0D2
:1050F000E11703C0AF2E1FC0AF2E1FC09E8B28C06C
:105100009E8B28C0AF2E1FC0AF2E1FC0C0D115C0B0
:10511000D0740CC0D0740CC0AF2E1FC0C0D115C04D
:10512000725215BFD6F95FBFC4A682BF725215BFB7
:1051300024A63ABF24A63ABF24A63ABF24A63ABF63
:10514000725215BF24A63ABF24A63ABF725215BFA9
:10515000D6F95FBF725215BF725215BF24A63ABF6F
:1051600024A63ABF725215BF725215BF81FDDFBE31
:1051700081FDDFBED6F95FBF81FDDFBE24A63ABF49
:1051800024A63ABF725215BF24A63ABF24A63ABF3E
:10519000725215BF81FDDFBED6F95FBF24A63ABFAC
:1051A000D6F95FBF24A63ABF81FDDFBED6F95FBF47
:1051B00024A63ABF24A63ABF24A63ABF24A63ABFE3
:1051C00081FDDFBED6F95FBF24A63ABF725215BF7C
:1051D000725215BF725215BF24A63ABF725215BF44
:1051E000725215BF24A63ABF725215BF725215BF34
:1051F000D6F95FBF725215BF24A63ABF24A63ABFA4
:1052000081FDDFBE24A63ABF725215BF24A63ABF65
:10521000725215BF24A63ABFD6F95FBF24A63ABF83
:1052200024A63ABF725215BF725215BF725215BFF3
:1052300024A63ABF24A63ABF725215BF725215BFB8
:10524000D6F95FBF81FDDFBED6F95FBF725215BFD1
:1052500024A63ABFD6F95FBF24A63ABF24A63ABF18
:10526000D6F95FBF24A63ABF24A63ABF24A63ABF08
:10527000725215BFD6F95FBF24A63ABF24A63ABF23
:1052800024A63ABF725215BF24A63ABF24A63ABF3D
:1052900024A63ABF725215BF725215BF24A63ABF58
:1052A00024A63ABF725215BF24A63ABF24A63ABF1D
:1052B00024A63ABF24A63ABF24A63ABF725215BF0D
:1052C00024A63ABF24A63ABF725215BF24A63ABFFD
:1052D000725215BF24A63ABF725215BFD6F95FBFEE
:1052E00024A63ABF1E5695BED6F95FBFD6F95FBF5A
:1052F000725215BF24A63ABF24A63ABF81FDDFBE75
:10530000D6F95FBF725215BF81FDDFBE24A63ABF3A
:10531000725215BF24A63ABF24A63ABF725215BFD7
:10532000725215BF24A63ABF725215BF24A63ABFC7
:10533000725215BF81FDDFBE24A63ABF24A63ABF34
:10534000725215BF725215BF24A63ABF725215BFD2
:10535000D6F95FBF81FDDFBE24A63ABF24A63ABFBF
:10536000725215BFD6F95FBF81FDDFBE725215BF05
:10537000725215BF725215BF24A63ABF24A63ABF77
:10538000D6F95FBF81FDDFBED6F95FBF24A63ABF65
:1053900081FDDFBE24A63ABF24A63ABF725215BFD4
:1053A00024A63ABFD6F95FBF725215BF24A63ABFF2
:1053B00024A63ABF81FDDFBEC4A682BF725215BFCC
:1053C000D6F95FBFD6F95FBF81FDDFBED6F95FBFFB
:1053D00024A63ABF725215BFD6F95FBF725215BFED
:1053E000725215BFD6F95FBF725215BFD6F95FBFB3
:1053F000725215BF725215BF24A63ABF81FDDFBE9F
:10540000D6F95FBF24A63ABF81FDDFBED6F95FBFE4
:1054100024A63ABF1E5695BED6F95FBF725215BF7D
:10542000725215BFD6F95FBF725215BF24A63ABF9C
:10543000725215BF24A63ABF24A63ABF24A63ABF8B
:10544000725215BF81FDDFBED6F95FBF725215BF24
:1054500081FDDFBE7047953E189F7240C84B544196
:1054600081FDDFBE794CBF4004F47B40B3A1D6C0C0
:1054700002F6EDC0B3A40241E47988418CA06BC16F
:10548000AACCC2410CFA844178A0F2C0C89F7241F4
:1054900047CDB441EEA072C0DC4A69416ECF834172
:1054A0006F4DB14191A40942C5FA0BC06FA0EBC189
:1054B000CC8E13423C4F95C00BA582C103A156412F
:1054C000034D38414875F141E7F8A04269240D4287
:1054D000F84E8E41CC8E1342BD77B941014F15C1B4
:1054E0008376D54169B914424C8E21C2CDB47D4238
:1054F000DC4A6941420F0942979FF941DAF57BC0C6
:10550000088C5242CDF5664216F82E41C8A21E40C4
:10551000F14C953F16A248C1B9614A42A5CD2D4232
:105520002BA0E4400CFA8441DAF57BC09176554219
:1055300047A3A541BD239B4192A0644247F7C341C5
:105540006A8B6042D122B04152A14F4152F56D4168
:105550001BCC504215F9A7C052F56D41F8A2AC41E1
:105560004263274233A3ACC129A49EC0654A7EC1D1
:105570008D9FF240F30E10425F6327C21A2414423B
:10558000BD4DAA41A5CD2D4203F57441F8239BC121
:1055900036F99942B44DA3405318AE42F8789D4174
:1055A00033CE9F412EF91942827996C1BD4DAA4151
:1055B0002AF74341B82406428BA3ACC0C8A0D6400A
:1055C000BDF98B413422BE41A40E17427DF912422F
:1055D0007B4ACD3F2E641242189F72407A9F7941D8
:1055E00082F8A741C89F72413E4A77414875F14110
:1055F000CAF6A73F484BE241F8789D41AA78A441FA
:105600007DCF0342F920DA4117F5ED409775EA4165
:1056100047F7C341BD4DAA41F94AE941DBA22C41FC
:10562000AA78A44164A409412023A941EFA14141E2
:10563000EF4D234153A0564065F98B4078A31E419E
:10564000DB4E0E41A0A1484115F9A7C00C78B2412C
:1056500064A40941794B5B41CAF6A73F8EA13A4049
:10566000DBF64A41D9A502C003A2BA4015F75FC0D4
:105670002BA0E44002F9194152F6D140174DB14038
:1056800063A33AC0664B4D40DC4BCD4075FAA7BFD3
:10569000DBA390408AF927C08DF7B5408D9FF2407B
:1056A00024A63ABF78A31E413C4D4DC0B3A402418D
:1056B00065F98B40274ECDBF3EA39E4029A256C020
:1056C0003E4BDB40B5F727407047953E3EA39E40DA
:1056D00050FA8BC052A14F4124A63ABF4EA4BABF84
:1056E0001940153ED6F95FBFC8A0D6408BE16AB815
:1056F000274ECDBF7B4ACD3F3C4D4DC018A3823FC6
:1057000078A4824000F8DFBF54F4DF3FCD9E3A3FDB
:10571000F14C953F81FDDFBE7FF25F3FEEA072C08E
:10572000DC4D15409EA41EC0DC4D15408EA13A40B4
:1057300029A256C0B5F7274024A63ABF9EA41EC092
:10574000C4A682BF54F4DF3FDA4F87C07B4ACD3F07
:1057500075FAA7BF294CDBC0755D15BEC74CCDC01F
:105760007047953E644DBFC050F843C04EA4BABFC9
:1057700029A502C17FF25F3F29A49EC054F4DF3FF8
:10578000B24F15C01B4B153FCD9E3A3F63A33AC0A5
:105790001B4B153F7FF25F3F03A4024000F8DFBFC1
:1057A00081FDDFBE29A256C01940153E9C5095BF11
:1057B00000F8DFBF9C5095BF1940153ED9A502C027
:1057C000EEA072C0D6F95FBF63A33AC0F14C953F1B
:1057D000D9A1F2BFC4A682BFDAF57BC01940153E3D
:1057E000C4A682BF00F8DFBFB5F72740D6F95FBF78
:1057F00000F8DFBFDC4D154015F75FC01E5695BEA3
:10580000D3EEDF3ED9A502C07047953ECD9E3A3F0C
:1058100003A40240C5FA0BC003A402407047953EA2
:1058200054F4DF3FC4A682BFC4A682BFC5FA0BC032
:1058300081FDDFBECAF6A73F7B4ACD3FD6F95FBFE9
:105840007B4ACD3F274ECDBF81FDDFBE1E5695BEA4
:10585000755D15BE7FF25F3F1E5695BED3EEDF3EEF
:10586000274ECDBF8BE16AB8D6F95FBFB24F15C0E6
:105870008BE16AB8D9A1F2BF8BE16AB824A63ABF1E
:1058800081FDDFBEA3A0BA3F18A3823F7047953EBB
:105890001B4B153FF14C953F24A63ABF81FDDFBE5F
:1058A00075FAA7BF1940153E725215BF75FAA7BF0A
:1058B000C4A682BF7047953E24A63ABFD9A502C0B0
:1058C0008BE16AB8C4A682BF24A63ABFC4A682BF31
:1058D00075FAA7BF274ECDBF8BE16AB824A63ABFA1
:1058E000D6F95FBFD9A1F2BF4EA4BABFC4A682BF8A
:1058F0009C5095BF8BE16AB8D9A502C0725215BF02
:1059000081FDDFBE75FAA7BF274ECDBF774E31C0F0
:105910004EA4BABF75FAA7BF274ECDBF00F8DFBFB0
:1059200024A63ABF75FAA7BF9C5095BF81FDDFBE84
:1059300081FDDFBE8BE16AB84EA4BABF1B4B153F99
:10594000F14C953F1940153E24A63ABF1B4B153F1D
:10595000CD9E3A3F9C5095BF725215BFC5FA0BC001
:105960007047953E9C5095BFD9A502C01940153E81
:1059700081FDDFBE1E5695BE725215BFC4A682BF02
:105980001B4B153F755D15BE1940153E1E5695BE45
:10599000D6F95FBFD6F95FBFD6F95FBFD6F95FBF53
:1059A00024A63ABF8BE16AB81E5695BE1B4B153F25
:1059B0007FF25F3F1940153ECD9E3A3FC4A682BF9D
:1059C0001B4B153F1940153E274ECDBFC4A682BFC5
:1059D000725215BF755D15BE1E5695BE1E5695BEFC
:1059E0001940153E81FDDFBE1B4B153F24A63ABF73
:1059F0004EA4BABF18A3823F755D15BE755D15BE76
:105A000024A63ABF725215BFD9A1F2BF8BE16AB882
:105A1000274ECDBF24A63ABF755D15BE24A63ABF5A
:105A20001940153E755D15BE7047953E1940153EEF
:105A300024A63ABF8BE16AB824A63ABF1E5695BE8B
:105A4000D6F95FBF274ECDBFD6F95FBF1940153ECF
:105A500024A63ABF81FDDFBE4EA4BABF725215BF65
:105A60004EA4BABFD6F95FBFD6F95FBF1E5695BE2A
:105A70008BE16AB8D6F95FBF24A63ABFD6F95FBFFB
:105A8000725215BF1E5695BE24A63ABF81FDDFBED9
:105A90001E5695BE24A63ABF8BE16AB81E5695BE27
:105AA0001940153E755D15BE8BE16AB881FDDFBEFC
:105AB0008BE16AB8D6F95FBF755D15BE1E5695BEFF
:105AC0001E5695BE1E5695BE7047953E8BE16AB830
:105AD0007047953E1940153E24A63ABF755D15BE28
