:020000040800F2
:10000000900800243903000861490008514900089C
:100010005949000841040008C950000800000000C8
:10002000000000000000000000000000B14D0008CA
:10003000B10800080000000069490008B94D000837
:100040005303000853030008530300085303000838
:100050005303000853030008530300085303000828
:100060005303000853030008530300084904000821
:100070005904000853030008530300085303000801
:1000800053030008530300085303000853030008F8
:1000900053030008530300085303000853030008E8
:1000A00053030008530300085303000853030008D8
:1000B00053030008530300085303000853030008C8
:1000C000530300085303000853030008C14B000802
:1000D00053030008530300085303000853030008A8
:1000E000B90800085303000800000000530300088B
:1000F0005303000853030008530300085303000888
:100100005303000853030008530300085303000877
:100110005303000853030008530300085303000867
:100120005303000853030008530300085303000857
:100130005303000853030008530300085303000847
:1001400000000000000000000000000000000000AF
:100150005303000853030008530300085303000827
:100160005303000853030008530300085303000817
:100170005303000853030008530300080000000065
:1001800053030008530300085303000853030008F7
:1001900053030008530300085303000853030008E7
:1001A00053030008530300085303000853030008D7
:1001B00053030008530300085303000853030008C7
:1001C00053030008530300085303000853030008B7
:1001D00053030008530300085303000853030008A7
:1001E0005303000853030008530300085303000897
:1001F0005303000853030008530300085303000887
:100200005303000853030008530300085303000876
:100210005303000853030008530300085303000866
:1002200053030008530300085303000800000000B4
:1002300053030008530300080000000053030008A4
:100240005303000853030008530300085303000836
:100250005303000853030008530300085303000826
:100260005303000853030008530300085303000816
:100270005303000853030008530300080000000064
:100280005303000853030008530300080000000054
:10029000000000005303000800F002F800F03CF8F2
:1002A0000AA090E8000C82448344AAF10107DA45D1
:1002B00001D100F031F8AFF2090EBAE80F0013F0E7
:1002C000010F18BFFB1A43F00103184764690000CF
:1002D00084690000103A24BF78C878C1FAD8520760
:1002E00024BF30C830C144BF04680C6070470000B0
:1002F0000023002400250026103A28BF78C1FBD82F
:10030000520728BF30C148BF0B6070471FB504F0CB
:10031000F3FF1FBD10B510BD00F058F81146FFF7F0
:10032000F5FF04F0D5FE00F076F803B4FFF7F2FF16
:1003300003BC00F07DF800000948804709480047E9
:10034000FEE7FEE7FEE7FEE7FEE7FEE7FEE7FEE785
:10035000FEE7FEE704480549054A064B70470000E2
:10036000A14E000899020008900200249008002481
:1003700090040024900400244FF0000200B51346BE
:1003800094469646203922BFA0E80C50A0E80C50B5
:10039000B1F12001BFF4F7AF090728BFA0E80C5066
:1003A00048BF0CC05DF804EB890028BF40F8042B5F
:1003B00008BF704748BF20F8022B11F0804F18BFCC
:1003C00000F8012B7047704770477047754600F082
:1003D0002BF8AE4605006946534620F007008546D7
:1003E00018B020B5FFF7B6FFBDE820404FF000067B
:1003F0004FF000074FF000084FF0000BAC46ACE8A0
:10040000C009ACE8C009ACE8C009ACE8C00921F0FB
:1004100007018D46704710B50446AFF300802046B3
:10042000BDE81040FFF781BF004870472800002456
:1004300001491820ABBEFEE726000200704700000D
:10044000FEE700000000000040F2E800C2F20040B9
:1004500000F0A2BB0000000040F26010C2F20040B9
:1004600000F09ABB0000000040F20F42D0F800C03C
:10047000C4F20202944511DC6F22C4F202029445D8
:1004800022DC3F22C4F20202944539DC1022C4F27D
:10049000020294455AD0282254E000BF40F26F4235
:1004A000C4F2020294451BDC40F23F42C4F2020255
:1004B00094452DDC40F21042C4F20202944545D02E
:1004C00040F228423EE000BF9F22C4F2020294455F
:1004D00028DC7022C4F20202944537D0882231E031
:1004E00040F29F42C4F20202944523DC40F2704283
:1004F000C4F20202944529D040F2884222E000BFB3
:100500004022C4F20202944520D058221AE000BFD3
:1005100040F24042C4F20202944517D040F25842E1
:1005200010E000BFA022C4F2020294450ED0B8220F
:1005300008E000BF40F2B842C4F20202944505D080
:1005400040F2A042C4F20202944519D16FF00F02AA
:100550004AF6AB2352FA8CF2CAF6AA23A2FB033165
:100560000AA35F2AC1F302115B5C40F2FF312CEA5F
:100570000101C36588BF043181650846704700BF2B
:100580002CF0FF0181650846704700BF0006101679
:10059000000610160000000070B540F26F44D0F85D
:1005A00000C0C4F20204D0F858E0A4451ADC9F252C
:1005B000C4F20205AC4533DC5725C4F20205AC4554
:1005C0005ADC1025C4F20205AC4500F098802825BD
:1005D000C4F20205AC4500F092804025C4F2020549
:1005E0008AE000BF45F22F45C5F60205AC452DDC7B
:1005F00040F2B745C4F20205AC454BDC40F2704511
:10060000C4F20205AC457AD040F28845C4F2020536
:10061000AC4574D040F2A045C4F202056CE000BFC6
:1006200040F22745C4F20205AC4543DCA025C4F2E4
:100630000205AC4563D0B825C4F20205AC455ED0D6
:1006400040F21045C4F2020556E000BF45F26B458A
:10065000C5F60205AC453FDC45F23045C5F602055E
:10066000AC454CD045F24445C5F60205AC4546D0F4
:1006700045F258453EE000BF5825C4F20205AC459E
:100680003DD07025C4F20205AC4538D08825C4F2AF
:10069000020531E040F2B845C4F20205AC452ED067
:1006A00045F20845C5F60205AC4528D045F21C4583
:1006B00020E000BF40F22845C4F20205AC451ED040
:1006C00040F24045C4F20205AC4518D040F258450E
:1006D000C4F2020510E000BF45F26C45C5F6020504
:1006E000AC450CD045F29445C5F60205AC4506D0A4
:1006F00045F28045C5F60205AC4540F0D580456E13
:10070000C66E002E866E6E601CBFD0E91C566E60F1
:10071000A44515DC9F24C4F20204A4452CDC572414
:10072000C4F20204A44551DC1024C4F20204A4451E
:100730007AD02824C4F20204A44575D040246FE086
:1007400045F22F44C5F60204A44529DC40F2B74423
:10075000C4F20204A44545DC40F27044C4F2020431
:10076000A44561D040F28844C4F20204A4455BD0A1
:1007700040F2A04454E000BF40F22744C4F2020417
:10078000A4453FDCA024C4F20204A4454CD0B82404
:10079000C4F20204A44547D040F2104440E000BF38
:1007A00045F26B44C5F60204A44555DC45F23044DD
:1007B000C5F60204A44561D045F24444C5F60204DE
:1007C000A4455BD045F2584454E000BF5824C4F21D
:1007D0000204A44528D07024C4F20204A44523D006
:1007E00088241DE040F2B844C4F20204A4451BD0A2
:1007F00045F20844C5F60204A4453FD045F21C4426
:1008000038E000BF40F22844C4F20204A4450BD0F3
:1008100040F24044C4F20204A44505D040F25844DA
:10082000C4F20204A4453FD18468C06D00F01F00EB
:100830003F2505FA00F0CEF80800DCF80000402C57
:1008400020F48020CCF80000CCF8043023D0CCF881
:100850000810CCF80C2070BD45F26C44C5F60204BB
:10086000A4450BD045F28044C5F60204A44505D04A
:1008700045F29444C5F60204A44515D1C46D8068C0
:1008800004F01F040125402805FA04F4CEF80440C2
:10089000CCF8043004D1CCF80820CCF80C1070BD92
:1008A000CCF80810CCF80C2070BD0000000000004F
:1008B00070470000000000004FF4806001F0C0BAF3
:1008C000EFF3108072B600BFFEE7000000000000EA
:1008D00080B5D8B190F83510022919D140F20F42F5
:1008E0000168C4F20202914216DC6F23C4F20203D3
:1008F000994227DC3F23C4F2020399423EDC1023D5
:10090000C4F2020399425FD0282359E0012080BD40
:1009100080214165012080BD40F26F43C4F2020393
:1009200099421BDC40F23F43C4F2020399422DDCA2
:1009300040F21043C4F20203994245D040F22843EA
:100940003EE000BF9F23C4F20203994228DC7023DB
:10095000C4F20203994237D0882331E040F29F432A
:10096000C4F20203994223DC40F27043C4F2020352
:10097000994229D040F2884322E000BF4023C4F2CC
:100980000203994220D058231AE000BF40F24043AE
:10099000C4F20203994217D040F2584310E000BF5E
:1009A000A023C4F2020399420ED0B82308E000BF8E
:1009B00040F2B843C4F20203994205D040F2A0438A
:1009C000C4F20203994275D191424FF0040280F8BB
:1009D000352011DC6F20C4F20200814222DC3F206E
:1009E000C4F20200814239DC1020C4F202008142CC
:1009F00059D0282054E000BF40F26F40C4F20200FA
:100A000081421BDC40F23F40C4F2020081422DDCF7
:100A100040F21040C4F20200814244D040F228402B
:100A20003EE000BF9F20C4F20200814228DC70201B
:100A3000C4F20200814236D0882031E040F29F406B
:100A4000C4F20200814223DC40F27040C4F2020092
:100A5000814228D040F2884022E000BF4020C4F20A
:100A6000020081421FD058201AE000BF40F24040EF
:100A7000C4F20200814216D040F2584010E000BF9C
:100A8000A020C4F2020081420DD0B82008E000BFCF
:100A900040F2B840C4F20200814204D040F2A040CB
:100AA000C4F202008142086820F0010008600020C2
:100AB00080BD00BF0A6822F00E020A6045F257426C
:100AC000C5F6020291420A6822F001020A600FDCB8
:100AD00045F22F42C5F60202914219DC45F2084266
:100AE000C5F60202914229D045F21C4222E000BF25
:100AF00045F27F42C5F60202914213DC45F25842AC
:100B0000C5F60202914219D045F26C4212E000BFD4
:100B100045F23042C5F6020291420FD045F24442FE
:100B200008E000BF45F29442C5F60202914205D0AA
:100B300045F28042C5F6020291421AD1D0E9181C52
:100B4000D0E916E30A6822F480720A6003F01F01FC
:100B5000012202FA01F1CEF80410816ECCF80410E3
:100B6000C16E31B10A6822F480720A60D0E91C12A9
:100B70004A60012180F83510026D002180F83410A0
:100B80000AB190470021084680BD00000000000027
:100B9000406D7047000000002DE9F04782B0002151
:100BA000019140F220010446C2F2004148F2B51220
:100BB000C1F64E32A56D096840F26F490068C4F273
:100BC0000209A1FB021848452E68296816DC9F21FE
:100BD000C4F2020188422DDC5721C4F2020188428E
:100BE00052DC1021C4F2020188427BD02821C4F2D9
:100BF0000201884276D0402170E000BF45F22F42CA
:100C0000C5F60202904229DC40F2B742C4F2020269
:100C1000904245DC40F27041C4F20201884261D04A
:100C200040F28841C4F2020188425BD040F2A04108
:100C300054E000BF40F22741C4F2020188423FDC89
:100C4000A021C4F2020188424CD0B821C4F20201B2
:100C5000884247D040F2104140E000BF45F26B426D
:100C6000C5F60202904275DC45F23042C5F602023A
:100C7000904200F0818045F24442C5F60202904263
:100C80007AD045F2584273E05821C4F202018842FA
:100C900028D07021C4F20201884223D088211DE0AF
:100CA00040F2B842C4F2020290421BD045F2084220
:100CB000C5F6020290425FD045F21C4258E000BFE8
:100CC00040F22841C4F2020188420BD040F2404178
:100CD000C4F20201884205D040F25841C4F2020138
:100CE000884261D1E16D082201F01F0140F20F4AF4
:100CF0008A40C4F2020A324200F0E98050454FF0C7
:100D0000040313DC6F27C4F20207B8426CDC3F27F0
:100D1000C4F20207B84200F3A7801027C4F202070A
:100D2000B84200F0C8802827C0E000BF484567DC13
:100D300040F23F47C4F20207B84200F39D8040F200
:100D40001047C4F20207B84200F0B58040F22847CD
:100D5000ACE000BF45F26C42C5F6020290420BD0F7
:100D600045F28042C5F60202904205D045F2944217
:100D7000C5F60202904217D10268E36D570703F0EF
:100D80001F0315D504279F4017EA010610D0110450
:100D90006F6045D4910603D4016821F0040101601D
:100DA000216C002940F0F68202B0BDE8F08700BF58
:100DB00097073DD502279F4017EA010638D0110456
:100DC0006F6000F1ED82910609D4016821F00A01FB
:100DD0000160012084F83500002084F83400E16BC4
:100DE000002940F0D782DFE79F27C4F20207B8420C
:100DF0004CDC7027C4F20207B8425CD0882755E06B
:100E000040F29F47C4F20207B84247DC40F2704705
:100E1000C4F20207B8424ED040F2884746E000BF15
:100E2000D00300F1C382A16C002940F0B382BBE77C
:100E30001207B9D508229A401140B5D0016821F0B7
:100E40000E010160012000FA03F16960606584F819
:100E500035000020E16C84F834000029A4D020463D
:100E6000884702B0BDE8F0874027C4F20207B842C5
:100E700021D058271AE000BF40F24047C4F20207D1
:100E8000B84218D040F2584710E000BFA027C4F283
:100E90000207B8420FD0B82708E000BF40F2A047D1
:100EA000C4F20207B84206D040F2B847C4F20207C3
:100EB000B84218BF082307681F4208D0036823F010
:100EC00004030360AA60626D42F0010262650122C0
:100ED0008A4032426FD0504510DC6F23C4F20203C7
:100EE00098421DDC3F23C4F20203984234DC1023F5
:100EF000C4F20203984256D028234FE048451BDC39
:100F000040F23F43C4F2020398422DDC40F210430A
:100F1000C4F20203984246D040F228433EE000BFAC
:100F20009F23C4F20203984228DC7023C4F2020318
:100F3000984238D0882331E040F29F43C4F2020344
:100F4000984223DC40F27043C4F2020398422AD054
:100F500040F2884322E000BF4023C4F202039842DB
:100F600021D058231AE000BF40F24043C4F20203EC
:100F7000984218D040F2584310E000BFA023C4F2BA
:100F8000020398420FD0B82308E000BF40F2A0430C
:100F9000C4F20203984206D040F2B843C4F20203FE
:100FA000984240F00B8243691B0604D5AA60626D2B
:100FB00042F00202626504228A4032426FD05045FC
:100FC00010DC6F23C4F2020398421DDC3F23C4F2FD
:100FD0000203984234DC1023C4F20203984256D034
:100FE00028234FE048451BDC40F23F43C4F2020394
:100FF00098422DDC40F21043C4F20203984246D0DE
:1010000040F228433EE000BF9F23C4F2020398420F
:1010100028DC7023C4F20203984238D0882331E0E0
:1010200040F29F43C4F20203984223DC40F2704333
:10103000C4F2020398422AD040F2884322E000BF63
:101040004023C4F20203984221D058231AE000BF83
:1010500040F24043C4F20203984218D040F2584391
:1010600010E000BFA023C4F2020398420FD0B823BF
:1010700008E000BF40F2A043C4F20203984206D049
:1010800040F2B843C4F20203984240F09F810368E3
:101090009B0704D5AA60626D42F0040262651022CB
:1010A00002FA01F1314200F0818050454FF0080210
:1010B00010DC6F23C4F2020398421DDC3F23C4F20C
:1010C0000203984234DC1023C4F20203984256D043
:1010D00028234FE048451BDC40F23F43C4F20203A3
:1010E00098422DDC40F21043C4F20203984246D0ED
:1010F00040F228433EE000BF9F23C4F2020398421F
:1011000028DC7023C4F20203984238D0882331E0EF
:1011100040F29F43C4F20203984223DC40F2704342
:10112000C4F2020398422AD040F2884322E000BF72
:101130004023C4F20203984221D058231AE000BF92
:1011400040F24043C4F20203984218D040F25843A0
:1011500010E000BFA023C4F2020398420FD0B823CE
:1011600008E000BF40F2A043C4F20203984206D058
:1011700040F2B843C4F20203984218BF0422036845
:10118000134213D0A96001684903016808D4C90556
:1011900008D4016821F008010160216C21B905E043
:1011A00008034FD4216C09B120468847E06D00F058
:1011B0001F01202000FA01F2324200F0AB802068CB
:1011C0001023504510DC6F27C4F20207B8421DDC23
:1011D0003F27C4F20207B84238DC1027C4F20207E6
:1011E000B8425AD0282753E048451BDC40F23F471D
:1011F000C4F20207B84231DC40F21047C4F20207E1
:10120000B8424AD040F2284742E000BF9F27C4F2CC
:101210000207B8422CDC7027C4F20207B8423CD067
:10122000882735E040F29F47C4F20207B84227DC26
:1012300040F27047C4F20207B8422ED040F288470D
:1012400026E000BFA16C0029AED1AFE74027C4F271
:101250000207B84221D058271AE000BF40F24047A9
:10126000C4F20207B84218D040F2584710E000BF5D
:10127000A027C4F20207B8420FD0B82708E000BF89
:1012800040F2A047C4F20207B84206D040F2B84785
:10129000C4F20207B84218BF022307681F4239D0C0
:1012A000AA6094F83520042A02681BD122F01602A5
:1012B0000260426922F080024261226C0AB9A26C8B
:1012C0001AB1026822F0080202603F208840A8603C
:1012D000012084F83500216D0020002984F83400B5
:1012E00058D161E5510301680CD4C9050ED40168D9
:1012F00021F010010160012084F83500002084F8FD
:10130000340003E0080301D4616C00E0E16B09B133
:1013100020468847606D00283FF446AD606DC007E9
:1013200034D0042084F8350020684FEA9821026800
:1013300022F001020260019A013201928A421AD817
:101340000268D20717D0019A013201928A4212D85C
:101350000268D2070FD0019A013201928A420AD85C
:101360000268D20707D0019A013201928A4202D85C
:101370000268D207DFD10068C0074FF0030008BF42
:10138000012084F83500002084F83400E16C002945
:101390003FF40AAD2046884702B0BDE8F08700BFA1
:1013A000D00307D4616C0029F4D1FDE4216C00293D
:1013B000F0D1F9E4E16B0029ECD1F5E402680422F4
:1013C0008A4032427FF4FBAD69E600BF026866E600
:1013D000F0B581B0044600F043FE002C00F0178108
:1013E00040F26F4705462068C4F20207B84217DC96
:1013F0009F21C4F2020188422EDC5721C4F202016F
:10140000884255DC1021C4F20201884200F07F803E
:101410002821C4F20201884279D0402172E000BF45
:1014200045F22F41C5F60201884229DC40F2B7415E
:10143000C4F20201884247DC40F27041C4F202016A
:10144000884264D040F28841C4F2020188425ED0F2
:1014500040F2A04156E000BF40F22741C4F2020131
:10146000884241DCA021C4F2020188424FD0B82159
:10147000C4F2020188424AD040F2104142E000BF6B
:1014800045F26B41C5F60201884200F3C38045F284
:101490003041C5F60201884200F0CF8045F2444158
:1014A000C5F60201884200F0C88045F25841BFE00D
:1014B0005821C4F20201884229D07021C4F20201ED
:1014C000884224D088211DE040F2B841C4F20201D4
:1014D00088421CD045F20841C5F60201884200F05E
:1014E000AC8045F21C41A3E040F22841C4F2020165
:1014F00088420CD040F24041C4F20201884206D03A
:1015000040F25841C4F20201884240F0A182022117
:1015100084F83510002184F83410016821F00101AD
:1015200001600168C90709D000F09AFD401B052839
:1015300000F2688020680168C907F5D148F23F02CF
:1015400004F108060168CFF6106211406CCE114319
:10155000A2691943E3692943256A0E43616A164368
:10156000042943EA060343EA050303D1D4E90B65E2
:1015700033432B4341F20006C5F600463668B6F108
:10158000005F1DD36668A6F12905292D18D8DFE86C
:1015900005F0151515151515171717171717171720
:1015A00017171717171717171515151517171717D3
:1015B00015151717171717171515151543F4801359
:1015C00003600429436923F0070341EA030140F063
:1015D000F180D4E90A53002B41EA050100F0EA80CA
:1015E000B2F5005F00F0CC80002A40F0D580022DDB
:1015F00000F0D580012D00F0C980002D00F0CF80D3
:10160000D8E000BF20206065032084F83500012069
:1016100001B0F0BD45F26C41C5F6020188420CD024
:1016200045F28041C5F60201884206D045F2944158
:10163000C5F60201884240F00B82022184F8351081
:10164000002184F834100168A268A2F18003E668E2
:10165000B3FA83F3402A4FEA53134FEA83336FF30D
:10166000101108BF1023226941EAD60166691943A7
:10167000A36941EAD201E26941EAD60141EAD30114
:101680004CF6CD4341EAD2014AF6F832CAF2FD7275
:10169000266A0244CCF6CC43A2FB032341EA16118E
:1016A00001606FF0030000EA9300E0652046FEF75A
:1016B000DBFEE16D012201F01F0102FA01F1416040
:1016C0002068B84240F3858045F22F41C5F60201FB
:1016D000884217DC40F2B741C4F20201884229DC9B
:1016E00040F27041C4F20201884200F0BC8040F236
:1016F0008841C4F20201884200F0B58040F2A04166
:10170000ACE000BF45F26B41C5F60201884223DC24
:1017100045F23041C5F60201884200F0A48045F24E
:101720004441C5F60201884200F09D8045F25841CF
:1017300022E000BF40F2B841C4F20201884200F04A
:10174000928045F20841C5F60201884200F08B8084
:1017500045F21C4110E000BF45F26C41C5F60201A4
:10176000884200F0808045F29441C5F6020188422B
:1017700000F0798045F28041C5F6020170E000BFBB
:10178000032D17D8DFE805F00E0B0E02A3F1C0728F
:10179000B2FA82F2520904E0032D03D30AD1C3F353
:1017A00000623AB140206065012084F8350001B044
:1017B000F0BD00BF41612046FEF756FEE16D3F22BD
:1017C00001F01F0102FA01F181602068B8423FF781
:1017D0007BAF9F21C4F20201884211DC5721C4F281
:1017E0000201884220DC1021C4F2020188423AD072
:1017F0002821C4F20201884235D040212EE000BFEA
:1018000040F22741C4F20201884219DCA021C4F24F
:101810000201884227D0B821C4F20201884222D0B6
:1018200040F210411AE000BF5821C4F20201884280
:1018300019D07021C4F20201884214D088210DE031
:1018400040F22841C4F2020188420CD040F24041EB
:10185000C4F20201884206D040F25841C4F20201AB
:10186000884240F0ED8045F2574C45F6FC0EC5F637
:10187000020CC5F6020E604512DC45F22F41C5F69A
:101880000201884220DC45F20841C5F60201884287
:1018900034D045F21C41C5F6020188422ED085E0C5
:1018A00045F27F41C5F6020188421BDC45F25841F2
:1018B000C5F60201884221D045F26C41C5F602010D
:1018C00088421BD072E000BF45F23041C5F60201EC
:1018D000884213D045F24441C5F6020188420DD03A
:1018E00064E000BF45F29441C5F60201884205D08C
:1018F00045F28041C5F60201884257D16FF00701D9
:101900004CF6CD4251FA80F1CCF6CC42A1FB02124A
:10191000AEF1FC05AEF17C061309A26803F01F01CD
:10192000802A4FF0010205EB8305256602FA01F2D9
:101930006666A26602D10021616000E06168CBB2F8
:10194000013907292B60726016D85E1E082E19D245
:1019500060450EF1440219DC45F22F41C5F6020143
:10196000884245DC45F20841C5F6020188425DD057
:1019700045F21C414EE000BF00206067C4E91B0037
:101980005EE000BFD4E91B02616F56E045F27F4183
:10199000C5F60201884235DC45F25841C5F6020120
:1019A000884243D045F26C4134E000BF6FF00F0134
:1019B0004AF6AB2251FA80F1CAF6AA22A1FB021222
:1019C00040F20F43C4F2020308251109984203F1C3
:1019D000AA060B4688BF05EB121340F60005B0427D
:1019E000C4F2020505F1800628BF0B4695E700BF4B
:1019F00045F23041C5F60201884217D045F2444114
:101A000008E000BF45F28041C5F6020188420DD0D2
:101A100045F29441C5F60201884207D040F6000025
:101A2000C4F2020000F1FC0E00F5A07201210EEBE1
:101A30008300B140E0662267616700230360516064
:101A400000206065012184F8351001B0F0BD00BFB1
:101A50004020D8E500000000B0B500283CD0054685
:101A600090F83400012801D10220B0BD012085F892
:101A7000340095F83500012828D1022085F835007A
:101A8000002068652868046824F001040460284682
:101A9000FEF782FD40F20F422868C4F2020240F2D3
:101AA0006F419042C4F2020118DC6F23C4F20203BA
:101AB000984225DC3F23C4F2020398423CDC102309
:101AC000C4F2020398425ED0282357E04FF400602E
:101AD0006865002085F834000120B0BD88421BDC19
:101AE00040F23F43C4F2020398422DDC40F210431F
:101AF000C4F20203984246D040F228433EE000BFC1
:101B00009F23C4F20203984228DC7023C4F202032C
:101B1000984238D0882331E040F29F43C4F2020358
:101B2000984223DC40F27043C4F2020398422AD068
:101B300040F2884322E000BF4023C4F202039842EF
:101B400021D058231AE000BF40F24043C4F2020300
:101B5000984218D040F2584310E000BFA023C4F2CE
:101B6000020398420FD0B82308E000BF40F2B84308
:101B7000C4F20203984206D040F2A043C4F202032A
:101B8000984240F02F8103680B2464F34403036000
:101B90002B6C1BB1036843F008030360884219DC17
:101BA0009F23C4F20203984232DC5723C4F202039B
:101BB000984259DC1023C4F20203984200F0968048
:101BC0002823C4F20203984200F090804023C4F21C
:101BD000020389E045F22F43C5F6020398422DDC4B
:101BE00040F2B743C4F2020398424BDC40F2704328
:101BF000C4F20203984279D040F28843C4F202034F
:101C0000984273D040F2A043C4F202036CE000BFDC
:101C100040F22743C4F20203984243DCA023C4F2FB
:101C20000203984262D0B823C4F2020398425DD006
:101C300040F21043C4F2020356E000BF45F26B438A
:101C4000C5F6020398423FDC45F23043C5F6020375
:101C500098424BD045F24443C5F60203984245D022
:101C600045F258433EE000BF5823C4F202039842B5
:101C70003CD07023C4F20203984237D08823C4F2C8
:101C8000020331E040F2B843C4F2020398422DD07F
:101C900045F20843C5F60203984227D045F21C439B
:101CA00020E000BF40F22843C4F2020398421DD056
:101CB00040F24043C4F20203984217D040F2584326
:101CC000C4F2020310E000BF45F26C43C5F6020304
:101CD00098420BD045F29443C5F60203984205D0D2
:101CE00045F28043C5F60203984274D12B6E1C68FE
:101CF000E40303D51C6844F480741C60EB6E1BB1D4
:101D00001D6845F480751D60904211DC6F21C4F29E
:101D1000020188421EDC3F21C4F20201884235DC08
:101D20001021C4F20201884255D0282150E000BFA2
:101D300088421BDC40F23F41C4F2020188422DDCA4
:101D400040F21041C4F20201884244D040F22841DE
:101D50003EE000BF9F21C4F20201884228DC7021CE
:101D6000C4F20201884236D0882131E040F29F411E
:101D7000C4F20201884223DC40F27041C4F2020145
:101D8000884228D040F2884122E000BF4021C4F2BE
:101D9000020188421FD058211AE000BF40F24041A2
:101DA000C4F20201884216D040F2584110E000BF50
:101DB000A021C4F2020188420DD0B82108E000BF82
:101DC00040F2B841C4F20201884204D040F2A0417E
:101DD000C4F202018842016841F001010160002063
:101DE000B0BD00BF0368052464F3430303602B6C9C
:101DF000002B3FF4D3AE036843F00403CDE60000AC
:101E0000B0F5806F18BF704710B5242040F28804E9
:101E1000C4F20100C2F200444FF4007100220068D5
:101E2000E08040F60000C5F6020000F009F9E08805
:101E3000A188401A2081BDE81040704700000000D2
:101E40008821C5F600010A68024208BF7047086091
:101E5000FFF7D6BF000000002DE9F04F85B00D68F8
:101E60000290002D00F0E68002988E4600F1264296
:101E70000A2102F1FF7342F20042C5F60202002479
:101E800090424FEAB32208BF0921092A4FF0010707
:101E900038BF4FEAB32100264FF000080091CDF87B
:101EA0000CE00DE0DEF8005008F1010835FA07F00B
:101EB00006F1020607F1010704F1040400F0BA80FC
:101EC000A7F1010A012000FA0AF315EA0309E9D093
:101ED000DEF804B00BF003056A1E012A22D802982E
:101EE0004FEA4801D0F808C00191032101FA06F237
:101EF00003992CEA020CD1F80CE00EFA06F1DDF899
:101F00000CE041EA0C01816041686FEA020CCBF3FE
:101F1000001299430346019802FA0AF211435960EC
:101F20000CE000BF0320032D00FA06F0029B6FEACD
:101F3000000C304602D13046032526E0D968DEF891
:101F4000082001EA0C018240022D41EA0201D96019
:101F50001BD102466FF0030000EA5A010F2019441A
:101F600004F01C0300FA03F51046D1F820E0039AB0
:101F70002EEA0505DDF80CE012699A40029B2A431F
:101F80000A62DEF804B00BF00305196805FA00F0E8
:101F900001EA0C011BF4403F40EA010018603FF4E5
:101FA00081AF44F2F44140F20845C5F60201C5F69E
:101FB00000050F23086840F002000860086800F080
:101FC000020004902AF00300049904F00C01425925
:101FD0008B409A43009B03FA01F1114341514FF0AA
:101FE000B0452868DEF8041040EA0902CB0258BF69
:101FF00020EA09028B022A6040F20405C5F60005BA
:10200000286840EA090258BF20EA09028B032A60C7
:10201000D5F8800040EA090258BF20EA0902C90346
:10202000C5F88020E86F40EA090258BF20EA09029B
:10203000EA6737E705B0BDE8F08F00000000000058
:10204000002A08BF090481617047000000000000F9
:1020500041F20000C5F600400068000C7047000027
:1020600040F28C20C2F2004000687047000000007F
:1020700040F2180040F28C21C2F20040C2F200414E
:1020800000780A68104408607047000000000000F3
:1020900080B5032000F0A8F800F0B2FF44F2184128
:1020A00045F21233C5F60201C0F600030A6809685A
:1020B00001F00F01C2F30322595C9A5C01F01F0189
:1020C00002F01F02D04040F22402C2F2004220FA85
:1020D00001F1116040F22001C2F2004108600F20BE
:1020E00000F00AF800281CBF012080BD00F02CF889
:1020F000002080BD0000000070B540F21806C2F25A
:1021000000463178E1B1044640F22000C2F20040BE
:102110004FF47A72B2FBF1F10068B0FBF1F002F01B
:10212000F3F90F2C4FF0010508D838B94FF0FF3004
:1021300000222146002500F027F87460284670BD73
:10214000012070BD0000000081B044F2F440C5F6EB
:102150000200016841F002010160006800F0020025
:102160000090009801B07047002848BF704700F009
:102170001F01012202FA01F14EF200124009CEF2D3
:10218000000242F82010704770B54EF60C5C4FF01C
:10219000FF36CEF2000C00F16045DCF80030C3F3EE
:1021A000022E8EF00703042B28BF0423BEF1030484
:1021B00006FA03F321EA030100F00F0338BF0024FD
:1021C000043BB0F1FF3F634406FA04F003F10C0353
:1021D00001FA04F1C8BF05F5644322EA0000084390
:1021E0000001187070BD00004EF60C514FF6FF0351
:1021F000CEF200010A681A4060F30A2242F08060C1
:1022000040F0FD7008607047B0B544F60C05C5F6A7
:10221000020529684907296806D401F00701081A50
:1022200018BF0120B0BD00BF21F00701084328609E
:10223000FFF716FF044600BF55F8080C800407D4CA
:10224000FFF70EFF001BB0F57A7FF5D90120B0BD76
:102250000020B0BD000000002DE9F0470446C07822
:1022600044F22C480007C5F6020833D5A06E4FEAA9
:10227000305103290CD8DFE801F003111D2600BFFF
:10228000D8F8001041F40031C8F800101BE000BF7E
:1022900001266078C0070BD020E000BF04F10800E1
:1022A000022102F065FB064660B16078C00715D1D7
:1022B000354646E004F12800022102F0EDFB064617
:1022C0000028F2D1A06ED8F8241021F44011084360
:1022D000C8F8240000266078C007E9D0A06D042863
:1022E0000ED83546DFE800F00412181E1E0000BFAD
:1022F000D8F80000354640F40030C8F8000011E07E
:1023000001250127607880071FD452E004F10800FE
:10231000002102F02DFB04E004F12800002102F06E
:10232000BBFB05462F461DB1607880070DD440E009
:10233000D8F82400A16D20F0070000250843C8F854
:10234000240037466078800733D5E06D4FEAB0103F
:1023500004280DD8DFE800F00412181E1E0000BF8C
:10236000D8F8000040F40030C8F8000012E000BFC8
:1023700001250126607840071FD455E004F10800CC
:10238000002102F0F5FA04E004F12800002102F037
:1023900083FB05462E461DB1607840070DD443E00F
:1023A000D8F82400E16D20F4E07000250843C8F857
:1023B00024003E466078400736D5D4F8A8004FEA9E
:1023C000705004280CD8DFE800F00313191F1F0019
:1023D000D8F8000040F40030C8F8000014E000BF56
:1023E00001254FF001096078000721D456E000BFB5
:1023F00004F10800002102F0BBFA04E004F1280017
:10240000002102F049FB0546A9461DB1607800078E
:102410000ED443E0D8F82C00D4F8A81020F46000C3
:1024200000250843C8F82C00B1466078000735D570
:10243000D4F8AC004FEA306004280DD8DFE800F093
:102440000412181E1E0000BFD8F8000040F400302F
:10245000C8F8000012E000BF01250127E0788007DE
:1024600020D44EE004F10800002102F081FA04E0DB
:1024700004F12800002102F00FFB05462F461DB194
:10248000E07880070ED43CE0D8F82C00D4F8AC10EB
:1024900020F0E06000250843C8F82C004F46E078A3
:1024A00080072ED5E06C4FEA301003280ED8DFE805
:1024B00000F00903130900BFD8F8000040F4003011
:1024C000C8F800002E467DB912E000BF01250126A4
:1024D0006078C00619D44CE004F10800022102F033
:1024E00047FA05462E461DB16078C0060DD440E07F
:1024F000D8F82000E16C20F0300000250843C8F82F
:1025000020003E466078C00633D5206E4FEA30305A
:1025100004280DD8DFE800F00412181E1E0000BFCA
:10252000D8F8000040F40030C8F8000012E000BF06
:1025300001250127607880061FD44EE004F10800D1
:10254000002102F015FA04E004F12800002102F055
:10255000A3FA05462F461DB1607880060DD43CE0F5
:10256000D8F82400216E20F4E04000250843C8F884
:1025700024003746607880062FD5606E4FEA3040E1
:10258000052809D8DFE800F0040E1404040400BF95
:102590002E46ADB918E000BF01250126607840063F
:1025A0001FD44FE004F10800012102F0E1F904E03A
:1025B00004F12800012102F06FFA05462E461DB1F4
:1025C000607840060DD43DE0D8F82400616E20F418
:1025D000E02000250843C8F824003E466078400605
:1025E00030D5D4F8B0004FEA3070052808D8DFE8BD
:1025F00000F0030D130303032F46ADB918E000BF2D
:10260000012501276078000620D442E004F108008B
:10261000012102F0ADF904E004F12800012102F0EB
:102620003BFA05462F461DB1607800060ED430E017
:10263000D8F82C00D4F8B01020F0E0400025084372
:10264000C8F82C0037466078000622D5206F58B1B4
:10265000B0F1005F0CD0B0F1805F2FD1D8F800004E
:1026600040F40030C8F800002E469DB908E000BFD5
:1026700004F10800012102F07BF905462E464DB910
:10268000D8F82400216F20F0405000250843C8F8F6
:1026900024003E46E078C00733D0A06C032813D84E
:1026A000DFE800F008021A08D8F8000040F4003013
:1026B000C8F80000A946BDB91AE000BF01250126EF
:1026C000E078C007E9D11CE001254FF00109A078AE
:1026D00040061AD51CE000BF04F10800022102F0F8
:1026E00047F90546A9461DB1A07840060DD50FE073
:1026F000D8F82000A16C20F0030000250843C8F89A
:102700002000B146A078400602D44F4618E000BF32
:10271000D8F8D40340F48070C8F8D403FFF7A0FCC5
:10272000064600BFD8F8D403C00507D4FFF798FCCD
:10273000801B6428F6D90325032701E02F468DB1BD
:102740002078C00761D0E06F4FEAF00005283BD841
:10275000DFE800F004404604040400BF002D2E46CC
:1027600046D149E0D8F84410D4F8B400414011F4FF
:10277000407F11D0D8F84410D8F8442042F4803279
:10278000C8F84420D8F8442021F4407122F4803263
:10279000C8F84420C8F84410B0F5807F40F0E082CB
:1027A000FFF75EFC064641F2883A0325032700BF87
:1027B000D8F84400800700F1D182FFF751FC801B5C
:1027C0005045F5D9BCE700BF0126012520788007D8
:1027D0001FD44CE004F10800012102F0C9F804E024
:1027E00004F12800012102F057F905462E461DB1DB
:1027F000207880070DD43AE0D8F82800E16F20F067
:10280000380000250843C8F828003E462078800795
:102810002DD5A06F052809D8DFE800F0040E1404B8
:10282000040400BF2F46ADB918E000BF0127012501
:10283000207840071FD44DE004F10800012102F088
:1028400097F804E004F12800012102F025F905467B
:102850002F461DB1207840070DD43BE0D8F8280062
:10286000A16F20F0070000250843C8F8280037466C
:10287000207840072ED5D4F89400052808D8DFE842
:1028800000F0030D130303032E46ADB918E000BF9B
:10289000012601252078800620D451E004F10800AB
:1028A000012102F065F804E004F12800012102F0A2
:1028B000F3F805462E461DB1207880060ED43FE081
:1028C000D8F82C00D4F8941020F007000025084315
:1028D000C8F82C003E462078800631D5D4F8900008
:1028E0004FEA3070052809D8DFE800F0040E140420
:1028F000040400BF2F46ADB918E000BF0127012531
:102900002078400620D451E004F10800002102F0B4
:102910002FF804E004F12800022102F0BDF805467A
:102920002F461DB1207840060ED43FE0D8F828008D
:10293000D4F8901020F0E04000250843C8F82800A3
:1029400037462078400631D5D4F89C004FEAB020B5
:10295000052809D8DFE800F0040E1404040400BFC1
:102960002E46ADB918E000BF0126012520780006EB
:1029700020D454E004F10800002101F0F9FF04E044
:1029800004F12800022102F087F805462E461DB109
:10299000207800060ED442E0D8F82C00D4F89C1021
:1029A00020F4E05000250843C8F82C003E4620786B
:1029B000000634D5D4F8A0004FEA703005280FD8AF
:1029C000DFE800F004141A04040400BF2F46E5B148
:1029D0002068010727D4C1063ED4000355D475E012
:1029E0000127012520680107F5D51CE004F1080046
:1029F000002101F0BDFF04E004F12800022102F0F3
:102A00004BF80546002D2F46E2D1D8F82C00D4F81B
:102A1000A01020F4604000250843C8F82C00374679
:102A200020680107D7D5D4F88410B1F5805F0AD1AA
:102A300004F12800022102F02FF8002818BF012716
:102A40002068D4F88410D8F8282022F4405211438A
:102A5000C8F82810C106C0D5D4F89810B1F5807F09
:102A60000AD104F12800022102F016F8002818BF4C
:102A700001272068D4F89810D8F82C2022F440724E
:102A80001143C8F82C10000320D5D4F8A400B0F5E9
:102A9000003F0FD0B0F5803F06D078BB04F10800AE
:102AA000002101F065FF04E004F12800022101F09B
:102AB000F3FF05462E4655B9D8F82C00D4F8A410DB
:102AC00020F4403000250843C8F82C003E46A0788A
:102AD00040072BD5D4F88800B0F5401F0BD0B0F5D7
:102AE000001F11D0B0F5801F2AD1D8F8000040F4A3
:102AF0000030C8F800002F46CDB90DE001260125B1
:102B0000A0784007E6D411E004F12800012101F08B
:102B1000C3FF05462F4655B9D8F82800D4F88810C9
:102B200020F4401000250843C8F828003746A07854
:102B3000C0070AD13E462168880016D533E000BFA1
:102B400001270125A078C007F4D0206DB0F5803FA3
:102B500010D018BBD8F8000040F40030C8F80000CE
:102B60002E4685B1216888001DD460688A0326D46A
:102B70006BE000BF04F10800022101F0F9FE0546F8
:102B8000002D2E46EED1D8F82000216D20F48030A3
:102B900000250843C8F82000CCE700BF0126012526
:102BA00021688800E1D504F12800022101F074FFBA
:102BB000002818BF0126D4E900108A0345D5D4F8AF
:102BC00080206FF0010303EB3223022B0BD34FEA7B
:102BD000322343B1012B40F0BB80D8F8003043F4DE
:102BE0000033C8F800304DB3CA0231D4CA0039D41A
:102BF0008A0242D44A004AD4B1F1FF3F57DD0902AC
:102C00005FD4C10768D1810771D441077BD4010724
:102C100000F18580C10600F18E80800607D504F1A1
:102C20002800022101F038FF002818BF0125002DDF
:102C300018BF01252846BDE8F08700BFD8F8283026
:102C400023F440731A43C8F828203546CA02CDD56C
:102C5000D8F82420636F22F000421A43C8F82420D9
:102C6000CA00C5D558F81C2CD4F8B83022F48042DC
:102C70001A4348F81C2C8A02BCD5D8F82420E36EED
:102C800022F080721A43C8F824204A00B4D558F8BC
:102C90001C2C22F4004248F81C2CD4F8BC2058F814
:102CA0001C3C1A4348F81C2CB1F1FF3FA7DCD8F8B4
:102CB0002020636D22F040521A43C8F820200902F8
:102CC0009FD5D8F82810D4F88C2021F44001114366
:102CD000C8F82810C10796D004F10800002101F0BF
:102CE00047FE002818BF0546606881078DD504F1AE
:102CF0000800012101F03CFE002818BF054660686D
:102D000041077FF584AF04F10800022101F030FE95
:102D1000002818BF0546606801077FF57BAF04F106
:102D20002800002101F0B8FE002818BF05466068A1
:102D3000C1067FF572AF04F12800012101F0ACFE5D
:102D4000002818BF0546606880067FF570AF66E70B
:102D50000125CA027FF54AAF7AE700BFD4F8B40074
:102D60004FF6CF7358F81C2CC0F2FF0300F44071EB
:102D700022F47C5203EA10136FF31F30B1F5407F49
:102D800008BF1A43002548F81C2CD8F84410084303
:102D9000C8F84400FFF7B9BC2DE9F04381B0002822
:102DA00000F02A8142F200080446C5F20028894654
:102DB000D8F8000000F00F0088420ED2D8F80000CA
:102DC00020F00F0040EA0900C8F80000D8F8000021
:102DD00000F00F00484540F00F81206844F218478A
:102DE0004107C5F602070AD521693A6802F0700268
:102DF000914204D93A6822F0700211433960010708
:102E00000AD561697A6802F07002914204D97A6841
:102E100022F0700211437960C1060AD5A1697A686F
:102E200002F4E062914204D97A6822F4E06211432C
:102E3000796081060AD5E169BA6802F070029142B0
:102E400004D9BA6822F070021143B96010F002018F
:102E50000AD0E2683B6803F00F039A4204D93B684A
:102E600023F00F031A433A60C20746D0386820F4B3
:102E70007061D4E90102012841EA0201396009D0F8
:102E800003280DD0022811D157F8181C890340F1EE
:102E9000B38010E057F8181CC90540F1AD800AE076
:102EA00057F8181C890140F1A78004E057F8181C56
:102EB000490740F1A18057F8081C21F00701084399
:102EC00047F8080CFFF7CCF8064641F2883500BFFA
:102ED00057F8080C616800F03800B0EBC10F09D05A
:102EE000FFF7BEF8801BA842F2D9032001B0BDE86D
:102EF000F08300BF206800F0020151B1E1683A6838
:102F000002F00F02914204D23A6822F00F021143FC
:102F10003960D8F8001001F00F0149450DD9D8F8F3
:102F2000001021F00F0141EA0901C8F80010D8F89B
:102F3000001001F00F0149455ED141070AD5216912
:102F40003A6802F07002914204D23A6822F07002AC
:102F50001143396001070AD561697A6802F070028D
:102F6000914204D27A6822F0700211437960C1065E
:102F70000AD5A1697A6802F4E062914204D27A68C3
:102F800022F4E0621143796080060AD5E069B968ED
:102F900001F07001884204D2B96821F07001084341
:102FA000B86000F02DF8396845F212333A68C0F67F
:102FB0000003C1F3032102F00F02595C9A5C01F097
:102FC0001F0120FA01F102F01F0040F2240221FA51
:102FD00000F0C2F20042106040F21C0040F22002F9
:102FE000C2F20040C2F200420068116001B0BDE8C8
:102FF000F043FFF781B800BF012001B0BDE8F083C6
:1030000044F20041C5F602010869C0F3C20003287A
:1030100010D002282CD088BB0868800649F2000036
:10302000C0F2D03058BF70470968C1F3C101C84031
:10303000704700BF8A6A886AC0F3051CC86ABCF181
:10304000000F4B6B20D0C3F3CC0300F001005843BA
:1030500002F00302022A00EE100AB8EE400A15D070
:10306000C2B90868800619D49FED281A23E000BF72
:1030700046F60040C0F2DC20704700BF40F600106A
:10308000C0F23D00704700BF002070479FED1E1A40
:1030900011E000BF9FED1B1A0DE000BF086849F268
:1030A0000002C0F2D032C0F3C10022FA00F001EEFB
:1030B000100AB8EE411A086B9FED153A6FF35F20C6
:1030C00002EE100A086BC0F34620B8EE422A013027
:1030D00000EE032A00EE10CAB7EE003AB8EE400A3E
:1030E00081EE000A32EE031A20EE010A01EE100A08
:1030F000B8EE411A80EE010ABCEEC00A10EE100ACA
:10310000704700BF0024744A001B374C0024744CE5
:103110000000003900000000F0B581B0002800F088
:1031200063810446007844F20046C007C5F60206F3
:1031300022D12078800740F1BC80306910F038013E
:10314000B06A3FD0182908BF5FEA80703AD0E068C3
:103150003168002862D021F0190108433060FEF781
:103160007FFF05463068400748D4FEF779FF401BD3
:103170000228F7D977E100BF306900F03801B06A62
:10318000102905D018290BD100F00300022807D11F
:1031900030688003CDD560680028CAD124E100BF23
:1031A000606800284CD0B0F5A02F61D0B0F5803F0A
:1031B00062D0306820F480303060306820F48020A5
:1031C0005DE000BF30684007E06802D5002800F0ED
:1031D0000B81316821F0190108433060FEF740FF90
:1031E000054600BF3068400708D4FEF739FF401B92
:1031F00002284FF00300F5D921E200BFFEF728FFB7
:1032000041F20301884249D820697168402821F4BD
:103210007C314BD141F400304AE000BF21F0010085
:103220003060FEF71DFF05463068400741D5FEF7C8
:1032300017FF401B02284FF00300F5D9FFE100BF44
:10324000306820F480303060306820F480203060B6
:10325000FEF706FF054600BF306880037FF569AFC3
:10326000FEF7FEFE401B64284FF00300F4D9E6E1B0
:10327000306840F480203060306840F48030306046
:10328000FEF7EEFE054600BF306880033FF551AF04
:10329000FEF7E6FE401B6428F6D9E4E07068216979
:1032A00020F0FE4040EA016002E000BF41EA003049
:1032B00070602078C00654D5306900F03801B06ADB
:1032C000082905D0182919D100F00300012815D1CB
:1032D0003068C00503D5E069802840F08580FEF79E
:1032E000B7FE41F2030188421ED8206A7168202887
:1032F00021F0F84132D141F0804031E0E06900280E
:10330000306819D040F080003060FEF7A9FE054615
:103310003068C005E3D4FEF7A3FE401B02284FF03F
:103320000300F5D98BE100BFF068216A20F07C50E2
:1033300040EA0160F06014E020F080003060FEF7A9
:103340008FFE05463068C0050BD5FEF789FE401B91
:1033500002284FF00300F5D971E100BF41EA806017
:1033600070602078000743D42078800654D42078F9
:10337000400765D4656A9DB3306900F038001828AD
:1033800040F0A880012DB16A306B2DD001F003020E
:10339000A36A9A4228D1C1F30511E26A914223D16E
:1033A0000146226B6FF35F21013A91421CD1C0F3B9
:1033B0004622616B01398A4216D1C0F30642A16BE5
:1033C00001398A4210D1C0F30660E16B01398842AD
:1033D0000AD1706BA16CC0F3CC00814240F0328105
:1033E000002001B0F0BD00BF012001B0F0BD00BF62
:1033F00060690028706F39D040F001007067FEF7F7
:103400002FFE0546706F8007AED4FEF729FE401BE5
:103410000228F7D927E000BFA0690028306847D00C
:1034200040F480503060FEF71BFE05463068800493
:103430009DD4FEF715FE401B0228F7D913E000BF0C
:10344000D6F8000440F48070C6F80004FEF708FEC9
:10345000054600BFD6F80004C00519D4FEF700FEEB
:10346000401B6428F6D9032001B0F0BD20F0010014
:103470007067FEF7F5FD0546706F80077FF574AF46
:10348000FEF7EEFD401B02284FF00300F4D9D6E012
:10349000A068002840D0052858D001285AD0306FA5
:1034A00020F001003067306F20F0040055E000BFCD
:1034B00020F480503060FEF7D3FD0546306880046C
:1034C0007FF555AFFEF7CCFD401B02284FF00300FF
:1034D000F4D9B4E0306820F080703060FEF7C0FDB1
:1034E000022D05460CD100BF3068800148D5FEF79B
:1034F000B7FD401B02284FF00300F5D99FE000BF45
:10350000306880017FF56CAFFEF7AAFD401B0228F2
:103510004FF00300F4D992E0306F20F001003067E3
:10352000306F20F004003067FEF79AFD054641F247
:103530008837306F80077FF51DAFFEF791FD401B88
:10354000B8424FF00300F4D979E000BF306F40F08B
:1035500004003067306F40F001003067FEF780FDF7
:10356000054641F2883700BF306F80073FF502AF54
:10357000FEF776FD401BB8424FF00300F4D95EE041
:1035800004F12807B06A40F2F33188438ECF084334
:10359000591E40EA02104FF47E426FF35F21B06281
:1035A00002EB47204FF4FE0280B2E36B0844A16BAC
:1035B00002EB01414FF0FE4201F4FE0102EB036217
:1035C000084402F0FE4108443063F06A4FF6F87197
:1035D00020F00100F062706BA26C884340EAC200E8
:1035E0007063F06A216C20F00C000843F062F06A0E
:1035F000616C20F002000843F062F06A40F4803011
:10360000F062F06A40F40030F062F06A40F480202A
:10361000F062F06A40F00100F062306840F08070C3
:103620003060FEF71DFD0446306880013FF5D8AEDE
:10363000FEF716FD001B02284FF00300F4D901B07D
:10364000F0BD00BFF06A20F00100F062FEF708FD57
:103650000546FEF705FDA842FBD0706B4FF6F871EA
:10366000A26C884340EAC2007063F06A40F0010037
:10367000F062002001B0F0BD7047000000000000C3
:1036800070470000000000002DE9F04381B00446BF
:10369000066830697169D6F8089094F8818002074D
:1036A0000ED511F400620BD0B06940F40060B06137
:1036B000D4F8A810204601B0BDE8F043084700BF89
:1036C00001EA000505F06407042F05D1616F20466B
:1036D0008847216F2046884705F04500012807D11B
:1036E000216F2046884705F02600022804D00BE011
:1036F00005F02600022805D1616F204601B0BDE823
:10370000F0430847042F03D101B0BDE8F08300BFA8
:10371000280715D415F4587FF6D015F0400065D170
:10372000A80570D4E80505F020007CD4002840F0FE
:103730008880D4F88400002840F09380E4E700BF3C
:103740002068816941F008018161816941F01001BF
:103750008161816941F400618161016921F00801A1
:103760000161806810F4404F27D0204601F030FA04
:10377000012084F88100D4F88400002840F0AB8058
:10378000B8F1030F00F0AE80B8F1040F00F0B28082
:10379000B8F1050FB8D1D4F89010204601B0BDE8BB
:1037A000F04308472068616E006B41F8040B6166C6
:1037B000B4F86A000138A4F86A00B4F86A00002876
:1037C000D3D0E0681028EDD2082805D3308E616E82
:1037D00021F8020BEBE700BF206890F83000616E23
:1037E0000870606E01306066E2E700BF2068D4F8C0
:1037F000841041F00401C4F88410816941F0400153
:103800008161A8058ED52068D4F8841041F00101AB
:10381000C4F88410816941F400718161E80505F004
:1038200020007FF583AF2168D4F8842042F008029D
:10383000C4F884208A6942F480728A6100283FF4C7
:1038400078AF2068D4F8841041F08001C4F8841067
:10385000816941F020018161D4F8840000283FF49F
:1038600053AF206809F4404240F26B33B2F5404F49
:10387000016821F001010160016921EA0301016190
:1038800026D1816844F6A14521F440418160E06F72
:10389000C0F6000548B10565FDF71AF828B1D4F85F
:1038A000840040F04000C4F88400A06F00283FF47A
:1038B0002BAF0565FDF70CF800283FF425AFD4F8D1
:1038C000840040F04000C4F8840001B0BDE8F083FB
:1038D000012084F88100D4F8A010204601B0BDE892
:1038E000F0430847D4F88810204601B0BDE8F04303
:1038F000084700BFD4F88C10204601B0BDE8F04363
:1039000008470000000000002DE9F047002800F003
:10391000978043F6000304460068C4F2000343F2B4
:10392000000E43F6004C9842C4F2010EC4F2000CA3
:103930004FF00001A16203D0604518BF70457BD1F4
:10394000E16B0122E568984202EB511105F1080292
:103950004FEAD20202FB01F118BF704562D1102973
:103960006ED894F88110002942D1002084F880009C
:1039700044F2E94043F65951C0F60000C0F6000198
:10398000C4F8880044F2F940C4F88C1044F2F141C4
:10399000C0F60000C0F60001C4F8900044F269309F
:1039A000C4F8941044F20151C0F60000C0F60001C2
:1039B000C4F8980043F28160C4F89C1043F2796126
:1039C000C0F60000C0F60001C4E92801D4F8AC102C
:1039D00044F27130C0F60000C4F8A80029B943F6DB
:1039E0003131C0F60001C4F8AC1020468847206889
:1039F000022184F88110016821F0010101608168D1
:103A0000D4F81880B8F1806F01F4F81ED4F804A03F
:103A100022D1BAF1000F17D0BAF5800F1CD1A36BD9
:103A200013BB15E0604518BF082909D8704518BFB9
:103A3000604594D095E700BFE1680F297FF680AF1D
:103A40000120BDE8F08700BFA36BB3F1805F06D112
:103A5000036843F4805303605FEA4A2304D4D4F834
:103A60000C904FF0010C0FE0D4F80C90B9F1070F57
:103A700008D3056825F4807C256D45EA0C054FF0D8
:103A8000000C04E04FF0000C056825F4807505601B
:103A9000BAF1000FE769A26A47EA0E07E36B42EA50
:103AA0000702A56842EA03022669676942EA090239
:103AB00082604AEA0803626B616A42EA0302A36B0E
:103AC00041EA020141EA0301226A41EA0601E36C8C
:103AD00041EA070141EA0201A26C41EA0301A36D38
:103AE00041EA050141EA020141EA0301C16009D14D
:103AF0008168012262F3CC2181608168022262F335
:103B00004A218160016DBCF1000F21F001010165C6
:103B100005D1C168626D21F000411143C1600020F0
:103B2000C4F88400012184F88110BDE8F08700000A
:103B30002DE9F043B7B0044602A8283098210025AB
:103B40003295CDE93555CDE93355FCF715FC43F2F7
:103B500000012068C4F20101884203D037B0BDE8FB
:103B6000F08300BF4FF4805002901A9002A8039592
:103B70000321049109210591012106910225CDE936
:103B80000755C021099120210A914FF440610B9102
:103B9000FEF762FB08B1FCF793FE44F2E04040F20E
:103BA0001008C5F602000026C4F20208016941F4BB
:103BB00080510161016901F480510191019901680D
:103BC00041F001010160006832A900F0010001909C
:103BD0000198F020CDE9320505203690002034967A
:103BE000C5F602003596FEF737F940F2E8052520C4
:103BF000C2F200454FF480674FF48079C5E90106B1
:103C00002846C5F80080EE60C5E90476AE61C5E9D6
:103C100007966E62FDF7DCFB08B1FCF751FEE56725
:103C200008F11800AC6340F26015C2F2004505F1DE
:103C300008012860262068604020C1C128466E62C5
:103C4000C5E90566C5E90796FDF7C2FB08B1FCF7B3
:103C500037FE232000210022A567AC63FEF794FA0B
:103C60002320FEF781FA37B0BDE8F08300000000A2
:103C700090F88030012B01D10220704790F88130FC
:103C8000012B09D10123002918BF002A0AD10021E4
:103C900080F88010184670470223002180F88010B9
:103CA00018467047042380F881300023C0F8843020
:103CB0004166A0F86820A0F86A20C365A0F86030CB
:103CC000A0F86230C1684367102905D344F651510A
:103CD000C0F600010CE000BF082905D344F62151CD
:103CE000C0F6000104E000BF44F68151C0F60001B7
:103CF00001678168B1F5C02F016805D10B6823F415
:103D000000630B6007E000BFD1F80CC0022363F32F
:103D1000524CC1F80CC0D1F804C04FF6FF732CEA26
:103D200003031A444A600A6840F2497342F00102F0
:103D30000A600A691A430A614268B2F5800F03D12A
:103D40000A6842F400720A600023002180F88010A3
:103D5000184670470000000040F2D811C2F200413E
:103D6000884218BF70472DE9F04F81B040F28809B2
:103D70001022C2F20049C0F60052D9F80A1091424E
:103D80002ED05021D9F80A00CFF60041884240F0E9
:103D9000DC82B9F8022045F22830C0F6000040F27B
:103DA00000019FEDC31B00EBC200C2F20041009274
:103DB00090ED000B91ED042B20EE010BB6EE001BF5
:103DC000BCFEC00B32EE011B81ED041B10EE103A5D
:103DD000002B00F171811801C2B2C3F3071372E125
:103DE000B9F800C045F22831C0F600019FEDB01BC4
:103DF00001EBCC0191ED000B40F2000120EE010B34
:103E0000C2F20041B6EE001B91ED022BBCFEC00BCE
:103E100032EE011B81ED021B10EE103A002B05D48F
:103E20001A01D2B2C3F3071307E000BF0022A2EBCE
:103E300003171A01FF2383EA1723DBB20978C2F3C1
:103E400081174FF0004A920089F8102041EA93113F
:103E500089F80E1047EA8303FF25D7B228243F02D2
:103E60004FF0FF3E63F317476FF0200847EA016207
:103E7000972189F80F30A0B21EFA84F6C0F1210014
:103E800022FA06F605FA00F018FA84F73043002FFC
:103E900058BF25FA07F000F00100404200EA0A0688
:103EA000084072404540B2F5807075F10000C0F0E6
:103EB000FB80661E5FEA510BB7B24FEA3A001EFA6A
:103EC00086F3C7F1210722FA03F305FA07F718FA78
:103ED00086F63B43002E58BF25FA06F303F0010394
:103EE0005B42184003EA0B0342405D40B2F580702C
:103EF00075F10000C0F0D880A01E83B21EFA80F7D2
:103F0000C3F1210322FA07F705FA03F318FA80F048
:103F10003B43002858BF25FA00F34FEA9A0003F00C
:103F2000010340EA81705B42184003EA910342407A
:103F30005D40B2F5807075F10000C0F0B580E01E04
:103F400083B21EFA80F7C3F1210322FA07F705FABC
:103F500003F318FA80F03B43002858BF25FA00F31A
:103F60004FEADA0003F0010340EA41705B42184077
:103F700003EAD10342405D40B2F5807075F1000064
:103F8000C0F09280201F83B21EFA80F7C3F1210394
:103F900022FA07F705FA03F318FA80F03B430028EA
:103FA00058BF25FA00F34FEA1A1003F0010340EA64
:103FB00001705B42184003EA111342405D40B2F5C4
:103FC000807075F100006FD3601F83B21EFA80F716
:103FD000C3F1210322FA07F705FA03F318FA80F078
:103FE0003B43002858BF25FA00F34FEA5A1003F06C
:103FF000010340EAC1605B42184003EA51134240AA
:104000005D40B2F5807075F100004DD3A01F83B202
:104010001EFA80F7C3F1210322FA07F705FA03F32A
:1040200018FA80F03B43002858BF25FA00F34FEA06
:104030009A1003F0010340EA81605B42184003EAF2
:10404000911342405D40B2F5807075F100002BD3B2
:10405000E01F83B21EFA80F7C3F1210322FA07F7AB
:1040600005FA03F318FA80F03B43002858BF25FAFD
:1040700000F34FEADA1003F0010340EA41605B42CB
:10408000184003EAD11342405D40B2F5807075F1EB
:10409000000009D34FEA1A20083C40EA016A2004D4
:1040A0004FEA11217FF4E7AECE4648E100BF00BFE2
:1040B000B81E85EB5178344000201A01A0EB0310A4
:1040C000FF2383EA102348784FF0004CD9B2FF2732
:1040D000C2F381132824920089F8102040EA91103D
:1040E0004FF0FF3A43EA810189F80F10D3B26FF025
:1040F000200B1B0209F1020E61F31743972143EADB
:10410000006289F80E00A0B21AFA84F5C0F121000D
:1041100022FA05F507FA00F01BFA84F62843002E70
:1041200058BF27FA06F000F00100404200EA0C05F3
:1041300008406A404740B2F5807077F10000C0F057
:10414000FC80651E5FEA5100AEB21AFA85F8C6F12E
:10415000210622FA08F34FEA3C0807FA06F61BFA92
:1041600085F53343002D58BF27FA05F303F001030B
:104170005B4203EA080518406A404740D2F1FF005D
:104180004FF00000B84180F0D880A01E83B21AFA28
:1041900080F5C3F1210322FA05F507FA03F31BFAB0
:1041A00080F02B43002858BF27FA00F34FEA9C0009
:1041B00003F0010340EA81705B42184003EA910377
:1041C00042405F40B2F5807077F10000C0F0B580EA
:1041D000E01E83B21AFA80F5C3F1210322FA05F535
:1041E00007FA03F31BFA80F02B43002858BF27FA85
:1041F00000F34FEADC0003F0010340EA41705B4248
:10420000184003EAD10342405F40B2F5807077F175
:104210000000C0F09280201F83B21AFA80F5C3F12B
:10422000210322FA05F507FA03F31BFA80F02B436A
:10423000002858BF27FA00F34FEA1C1003F00103CF
:1042400040EA01705B42184003EA111342405F40AC
:10425000B2F5807077F100006FD3601F83B21AFA55
:1042600080F5C3F1210322FA05F507FA03F31BFADF
:1042700080F02B43002858BF27FA00F34FEA5C1068
:1042800003F0010340EAC1605B42184003EA5113A6
:1042900042405F40B2F5807077F100004DD3A01F1F
:1042A00083B21AFA80F5C3F1210322FA05F507FA61
:1042B00003F31BFA80F02B43002858BF27FA00F3C2
:1042C0004FEA9C1003F0010340EA81605B42184012
:1042D00003EA911342405F40B2F5807077F100002D
:1042E0002BD3E01F83B21AFA80F5C3F1210322FA1F
:1042F00005F507FA03F31BFA80F02B43002858BF9B
:1043000027FA00F34FEADC1003F0010340EA4160B2
:104310005B42184003EAD11342405F40B2F580701F
:1043200077F1000009D34FEA1C20083C40EA016CF9
:1043300020044FEA11217FF4E6AEDDF800C089F8D1
:1043400011200CF10100AEF8000040F2D81009F184
:104350000E01C2F20040042201B0BDE8F04F00F0AF
:104360000BB80000000000007047000000000000D3
:10437000704700000000000070B5044690F880000F
:10438000012801D1022070BD012084F8800094F83A
:10439000810001282ED1002941D01546002A3ED0A7
:1043A000032084F881000020C4F88400E165A4F8AB
:1043B0006050A4F862506066C4E91C00A4F868006C
:1043C000A4F86A00A068B0F5C02F226818D1106860
:1043D000134640F400601860E368102B1AD2A06FF7
:1043E000082B836920D3B3F5005F2FD0B3F5804F3E
:1043F00020D014E0002084F88000022070BD00BFAF
:104400001346012653F80C0F66F352401860E36818
:10441000102BE4D3A06F8369B3F5804F16D0002032
:1044200084F88000012070BDB3F5804F08D0B3F54B
:10443000005F0BD1B4F8623001335B0804E000BFC9
:10444000B4F8623003339B08A4F8623044F6F943B1
:1044500044F6F146C0F60003C0F60006C0E90F3688
:1044600044F6B9430026C0F60003C36406659368AA
:1044700023F400439360B4F862302032FDF7ECFA85
:1044800060B1D4F8840040F01000C4F8840001202A
:1044900084F8806084F8810070BD00BFA16F4FF682
:1044A000FF76D4E90002C9694368B1F5807F23EA49
:1044B000060318BF2B44B2F5800F4360816841F4B6
:1044C00000418160016941F448710161016841F076
:1044D0000101016003D1016841F400710160002015
:1044E00084F8800070BD00007047000000000000EC
:1044F000704700000000000070470000000000004E
:104500007047000000000000411E0020B0EB116F5A
:1045100002D00120704700BF4EF21002F023CEF20D
:10452000000251604EF62351CEF200010B700721BC
:104530009060116070470000B0B590F83C20012AEF
:104540004FF002025BD080F83D2040F2004C026840
:10455000C4F2010C42F4806363455368D2F808E06A
:1045600002BF23F470034C68234341F2FF740D68CB
:10457000C4F2000423F07003A24243EA050353602F
:104580000CDC40F2FF73C4F200039A4216DCB2F175
:10459000804F29D040F2004318E000BF40F2FF33C3
:1045A000C4F201039A4217DC41F60003C4F200038F
:1045B0009A4219D00023C4F2010309E040F6000337
:1045C000C4F200039A420FD040F60043C4F2000345
:1045D0009A4209D00DE000BF44F20003C4F2010387
:1045E0009A4201D0624504D12EF0800389681943B4
:1045F00091600022012180F83D1080F83C20104697
:10460000B0BD00000000000060B310B5044690F893
:104610003D0028B9002084F83C00204600F024F832
:10462000022084F83D002068211D00F0A1FC01203B
:1046300084F8480084F83E0084F83F0084F8400085
:1046400084F8410084F8420084F8430084F8440070
:1046500084F8450084F8460084F8470084F83D005B
:10466000002010BD0120704781B000210068C4F215
:104670000101884202D001B0704700BF44F2F0400F
:10468000C5F60200016841F001010160006800F018
:1046900001000090009801B0704700000000000089
:1046A00090F83D10012917D1022180F83D100168D2
:1046B00041F2FF70C4F2000081420FDC40F2FF7053
:1046C000C4F20000814217DCB1F1804F2CD040F2DF
:1046D0000040C4F2000025E00120704740F2FF30A6
:1046E000C4F20100814213DC41F60000C4F2000074
:1046F000814219D0002013E040F60000C4F200000F
:10470000814211D040F60040C4F200000AE000BF30
:1047100044F20000C4F20100814205D040F20040A2
:10472000C4F2010081420BD107228868C0F2010265
:1047300002400020062A18BFB2F5803F00D1704722
:10474000086840F001000860002070470000000089
:1047500080B590F83C20012A4FF0020200F0A780BB
:1047600080F83D208822D0F800C0CFF6CE72DCF869
:1047700008301A40CCF808200B686F2B0EDDB3F11F
:10478000101F37DAB3F5005F46DA702B00F0928025
:10479000B3F5805F00F08480D6E000BF2F2B33DDBF
:1047A0004F2B3FDC302B6FD0402B40F0CD80D1F829
:1047B00004E0C968DCF82030DCF8202022F0010297
:1047C000CCF82020DCF8182022F0F00242EA011197
:1047D00023F00A02CCF8181042EA0E01CCF820109F
:1047E0004FF68872DCF80810CFF6CF7211404731CF
:1047F00054E000BF2F21C0F210018B423ADCB3F12C
:10480000101F41D020213BE0002B18BF102B3BD0C4
:10481000202B39D098E000BF60D0B3F5801F33D093
:1048200092E000BF502B6DD0602B40F08D80D1F80E
:1048300004E0C968DCF8203023F01003CCF8203005
:10484000DCF81830DCF8202023F4704322F0A002BA
:1048500043EA0131CCF8181042EA0E11CCF82010CE
:104860004FF68872DCF80810CFF6CF72114067312E
:1048700014E000BF3021C0F210018B4204D040216F
:10488000C0F210018B425FD14FF68872DCF808103D
:10489000CFF6CF721140194341F00701CCF8081050
:1048A0000022012180F83D10002180F83C101046C4
:1048B00080BD00BFD1E901E3C968DCF8082043EA04
:1048C0000E0322F47F4243EA01211143CCF8081081
:1048D000DCF8081041F07701E0E700BFD1E901E31F
:1048E000C968DCF8082043EA0E0322F47F4243EA59
:1048F00001211143CCF80810DCF8081041F4804184
:10490000CCE700BFD1F804E0C968DCF82030DCF85F
:10491000202022F00102CCF82020DCF8182022F020
:10492000F00242EA011123F00A02CCF8181042EA20
:104930000E01CCF820104FF68872DCF80810CFF684
:10494000CF7211405731A9E70122AAE70000000009
:10495000FEE7000000000000FEE70000000000008D
:10496000FEE70000000000007047000000000000AB
:10497000F0B581B044F22C47C5F6020757F8042C75
:1049800002F00302032A03D1012001B0F0BD00BFF1
:10499000054657F82C0C0C4620F0806047F82C0C8C
:1049A000FDF75EFB064600BF57F82C0C000105D54D
:1049B000FDF756FB801B0228F6D964E057F8040C7B
:1049C000EE6895E80E0020F47C30012C40EA0130BE
:1049D000A2F101016FF35F214FF47E4202EB43220B
:1049E00047F8040C92B24FF0FE4302EB01004FF483
:1049F000FE012A6901EB064101F4FE0103EB0262AC
:104A0000084402F0FE410844F8603868696920F003
:104A1000C00040EA010038603868A96920F0200031
:104A200040EA0100386038684FF6F87120F0100055
:104A300038603869EA6920EA01004FF4001140EA61
:104A4000C2003861386808BF4FF4801140F0100090
:104A5000002C386008BF4FF40021386808433860E4
:104A600057F82C0C40F0806047F82C0CFDF7F8FA52
:104A7000044600BF57F82C0C000107D4FDF7F0FAEC
:104A8000001B0328F6D3032001B0F0BD002001B0C5
:104A9000F0BD000000000000F0B581B044F22C47EA
:104AA000C5F6020757F8042C02F00302032A03D1CB
:104AB000012001B0F0BD00BF054657F82C0C0C4694
:104AC00020F0805047F82C0CFDF7CAFA064600BFCC
:104AD00057F82C0C800005D5FDF7C2FA801B022880
:104AE000F6D964E057F8040CEE6895E80E0020F063
:104AF0007C70012C40EA0150A2F101016FF35F21AB
:104B00004FF47E4202EB432247F8040C92B24FF07E
:104B1000FE4302EB01004FF4FE012A6901EB06415E
:104B200001F4FE0103EB0262084402F0FE41084476
:104B300078613868696920F4406040EA01003860B3
:104B40003868A96920F4007040EA010038603868CC
:104B50004FF6F87120F480703860B869EA6920EA8D
:104B600001004FF0807140EAC200B861386808BFA8
:104B70004FF4000140F48070002C386008BF4FF4FF
:104B8000800138680843386057F82C0C40F080509A
:104B900047F82C0CFDF764FA044600BF57F82C0CBC
:104BA000800007D4FDF75CFA001B0328F6D303202E
:104BB00001B0F0BD002001B0F0BD00000000000019
:104BC00040F2D810C2F20040FEF75EBD00000000C7
:104BD000016840F26F32D1F814C08B6943F00803CA
:104BE0008B618B6943F010038B610B6823F0010329
:104BF0000B600B6923EA02020A618A6822F44042D0
:104C00008A6090F881305FEA8C620BD5042B09D062
:104C1000D0F8842042F08002C0F884208A6942F0F3
:104C200020028A6190F881305FEA4C620BD5032B39
:104C300009D0D0F8842042F00402C0F884208A69A8
:104C400042F040028A615FEA8C5209D45FEACC529A
:104C500013D40021A0F86210A0F86A10704700BFBA
:104C6000D0F8842042F00102C0F884208A6942F41E
:104C700000728A615FEACC52EBD5D0F8842042F012
:104C80000802C0F884208A6942F480728A61002197
:104C9000A0F86210A0F86A10704700000000000041
:104CA000806B0021A0F86A10A0F86210012180F842
:104CB0008110D0F8A010084710B5846BFBF768FF8F
:104CC000022808BF10BD2046FFF782FFD4F88400F9
:104CD000D4F8A01040F01000C4F88400012084F83B
:104CE00081002046BDE81040084700000000000099
:104CF000806BD0F894100847806B90F881100729DA
:104D000008BF7047816FC969B1F5807F02D1D0F8C3
:104D1000881008470068016941F008010161704787
:104D20000168426E0B8E22F8023B4266B0F86A20A0
:104D3000013AA0F86A20B0F86A00002818BF70474E
:104D4000086920F0010008617047000000000000C1
:104D50000168426E0B6B42F8043B4266B0F86A2071
:104D6000013AA0F86A20B0F86A00002818BF70471E
:104D7000086920F001000861704700000000000091
:104D8000016891F83010426E1170416E0131416638
:104D9000B0F86A100139A0F86A10B0F86A1000295A
:104DA00018BF70470068016921F001010161704777
:104DB0007047000000000000FDF75AB90000000035
:104DC000B0B59CB044F6180409A84C21C5F60204FD
:104DD000FBF7D2FA02200025CDE90755CDE90555AC
:104DE000CDE90355CDE90155FDF70EFA40F22C400F
:104DF0000095C5F60000016821F00101016000681E
:104E000000F001000090206840F4404020602068DD
:104E100000F4404000900098206880045FBF206844
:104E20005FEA804020685FEA804002D42068800406
:104E3000F2D5012009904FF480300A9002203221EF
:104E4000CDE91200CDE91510CDE917000C2019901D
:104E500009A8032414940025CDE91A55FEF75CF93E
:104E600020B1EFF3108072B6FEE700BF01A93F202A
:104E700031C10820049040204FF48061CDE9050045
:104E8000CDE9071001A80221FDF786FF20B1EFF35D
:104E9000108072B6FEE700BF1CB0B0BD000000007D
:104EA0004EF6885042F2000CCEF20000C5F2002C03
:104EB000016841F470010160DCF8000000F00F00AF
:104EC000062806D8DCF80000072161F30300CCF8BF
:104ED000000044F200404EF67F52C5F60200CEF6C6
:104EE000F622016841F001010160002101610368BF
:104EF0001A400260DCF80020120706D5DCF800201A
:104F0000072363F30302CCF8002040F20022816102
:104F1000C161C0F20222016282620022C0F2FF126D
:104F2000C26240F28022C0F20112026341638263D6
:104F3000C16302644164026822F480220260016657
:104F400041F20000C5F600400068B1EB507F05D18A
:104F500048F208100121C5F20010016044F200007F
:104F600043F2D201C5F2002001607047000000004A
:104F700010B540F6FF32C4F20002904202680FDC26
:104F8000B0F1804F1DD040F20043C4F200039842BC
:104F900017D040F60003C4F20003984211D014E089
:104FA00040F60043C4F2000398420AD040F20043A6
:104FB000C4F20103984204D00023C4F201039842D2
:104FC00003D122F070024B681A434FF6FF7343F689
:104FD000FF7CC4F20003C4F2010C984214DD60456A
:104FE00022DD44F20003C4F20103984234D044F6B7
:104FF0000003C4F2010398422ED044F20043C4F2ED
:105000000103984228D02BE040F2FF73C4F2000362
:10501000984215DCB0F1804F1ED040F20043C4F23C
:105020000003984218D01BE00023C4F20103984209
:1050300012D040F20043C4F2010398420CD00FE0BA
:1050400040F60003C4F20003984205D040F6004346
:10505000C4F20003984203D122F44072CB681A4391
:1050600022F080024C696045D1F800E08B6842EA8A
:1050700004020260C362C0F828E015DD44F20002B9
:10508000C4F2010290421AD044F60002C4F20102B6
:10509000904214D044F20042C4F2010290420ED079
:1050A0000121416110BD00BF0022C4F20102904203
:1050B00005D040F20042C4F201029042F0D10969E9
:1050C00001630121416110BDFEE700000000000006
:1050D0002DE9F04381B02DED028B88B040F600043D
:1050E00040F20008C5F60204C4F20108FCF7D0FF44
:1050F000FFF766FE44F2E0470026C5F60207049675
:105100004FF40071002238684FF4007540F08000C1
:105110003860386800F0800005900598386840F0E5
:1051200001003860386800F0010005900598386883
:1051300040F004003860386800F0040005900598DD
:105140002046FCF77DFF00956D4601202946CDE9FC
:10515000010620460396FCF77FFE4FF48060009026
:105160004FF4881001900220029020462946FCF757
:1051700073FE282000210022FDF706F82820FCF706
:10518000F3FF57F8080C002140F0010047F8080C25
:1051900057F8080C002200F00100009000980B2046
:1051A000FCF7F2FF0B20FCF7DFFF0C2000210022B0
:1051B000FCF7EAFF0C20FCF7D7FF40F2D81508F502
:1051C0004050C2F200452821C5E900060720AE6024
:1051D000C5E9030605F13400C5E90566C5E90866B9
:1051E000C5E90A66FBF7C8F82846FEF78DFB28B12B
:1051F000EFF3108072B600BFFEE700BF40F28809EF
:105200000396C2F2004907964846C721CDE90166D8
:1052100040F8148FCDE90566C0E901164FF6FF711D
:10522000C0E90316C0E90566FFF7EEF920B1EFF318
:10523000108072B6FEE700BF09F114054FF48050EC
:10524000009069462846FFF783FA28B1EFF31080F3
:1052500072B600BFFEE700BF00200790CDE9050051
:1052600005A92846FFF768F920B1EFF3108072B660
:10527000FEE700BF2846FFF713FA40F2000740F2AE
:10528000D816C2F2004709F10A059FED198B97ED78
:10529000020BC2F2004612E0042230462946FEF715
:1052A000E7FC97ED020BB4EE480BF1EE10FA1EBFCF
:1052B00097ED041BB4EE481BF1EE10FA10D0B5EEDA
:1052C000400BF1EE10FAE7D14FF4007101222046B5
:1052D000FCF7B6FED8F82400A9F80400DCE700BF0C
:1052E000002008B0BDEC028B01B0BDE8F08300BF28
:1052F0000000000000C07240F1EE100A4FF6FF718E
:10530000C0F2C03120EA010040F04070E1EE100A26
:1053100070470000000001020304010203040607B5
:105320000809000000000000F111312592E8C13F9A
:10533000F111312592E8D13FF111312592E8C13FB9
:105340000000000000000000F111312592E8D13F7B
:10535000F111312592E8C1BFF111312592E8E13F09
:10536000F111312592E8C1BFF111312592E8D13F09
:10537000E99AC937DBDCDA3FF111312592E8D13FF8
:10538000000000000000000000000000000000001D
:10539000F111312592E8C13FF111312592E8C13F69
:1053A000F111312592E8D13FE99AC937DBDCDA3FC8
:1053B000F111312592E8D13FF111312592E8C1BFB9
:1053C000F111312592E8D1BFF111312592E8C13FA9
:1053D000F111312592E8D13FF111312592E8C1BF99
:1053E000F111312592E8D13FE99AC937DBDCDABF08
:1053F000F111312592E8C13FF111312592E8E1BF69
:10540000F111312592E8E13FF111312592E8C13FD8
:105410006D567DAEB662E63FE99AC937DBDCDABF8E
:10542000F111312592E8C1BF00000000000000002A
:10543000F111312592E8E1BFF111312592E8D13F18
:10544000F111312592E8E13F00000000000000006A
:105450000000000000000000F111312592E8E1BFDA
:10546000E99AC937DBDCDA3FE99AC937DBDCDABF16
:105470000000000000000000F111312592E8C1BFDA
:10548000F111312592E8D1BFE99AC937DBDCEA3F57
:10549000F111312592E8C13FF111312592E8C1BFE8
:1054A00000000000000000000000000000000000FC
:1054B000F111312592E8C1BFF111312592E8D13FB8
:1054C000F111312592E8E1BF00000000000000006A
:1054D000E99AC937DBDCDABF0000000000000000F9
:1054E0000000000000000000F111312592E8C1BF6A
:1054F000F111312592E8D13FF111312592E8C1BF78
:10550000F111312592E8D1BF000000000000000039
:10551000E99AC937DBDCDABFF111312592E8C1BF66
:10552000F111312592E8D1BFF111312592E8C1BFC7
:10553000F111312592E8D1BFF111312592E8C13F37
:10554000E99AC937DBDCDABFF111312592E8C1BF36
:10555000F111312592E8C13FF111312592E8D13F97
:10556000F111312592E8C13FF111312592E8C1BF17
:10557000F111312592E8C13FE99AC937DBDCDA3F06
:105580006D567DAEB662E6BFF111312592E8D13F8E
:10559000F111312592E8C13FF111312592E8C1BFE7
:1055A000F111312592E8E13FF111312592E8C1BFB7
:1055B000E99AC937DBDCDABFF111312592E8C13F46
:1055C000E99AC937DBDCDABF000000000000000008
:1055D000F111312592E8C1BFF111312592E8D1BF17
:1055E000F111312592E8C1BFF111312592E8D1BF07
:1055F000E99AC937DBDCDA3FF111312592E8E1BFE6
:10560000000000000000000000000000000000009A
:10561000F111312592E8E1BFE99AC937DBDCEA3FB5
:10562000E99AC937DBDCEABFE99AC937DBDCDA3F44
:105630002F34D769A425F4BFF111312592E8C1BFF9
:10564000F111312592E8D1BFF111312592E8E13F06
:10565000F111312592E8C1BFE99AC937DBDCEA3F95
:10566000F111312592E8D1BF0000000000000000D8
:10567000F111312592E8C1BFF111312592E8C13F06
:10568000F111312592E8D1BFF111312592E8C1BF66
:105690000000000000000000F111312592E8C1BFB8
:1056A000F111312592E8D1BFF111312592E8E1BF26
:1056B000F111312592E8C1BFF111312592E8D1BF36
:1056C000F111312592E8D13FF111312592E8C13F26
:1056D0006D567DAEB662E6BFF111312592E8D13F3D
:1056E000F111312592E8D1BFF111312592E8C13F86
:1056F000F111312592E8C1BFF111312592E8F13F56
:10570000E99AC937DBDCEABFF111312592E8C1BF64
:10571000F111312592E8D1BFF111312592E8E1BFB5
:10572000E99AC937DBDCDA3FF111312592E8E1BFB4
:10573000E99AC937DBDCEA3F6D567DAEB662E6BF5B
:10574000F111312592E8C13FF111312592E8C1BF35
:10575000E99AC937DBDCDA3F0000000000000000F6
:10576000F111312592E8C13FF111312592E8D13F85
:10577000F111312592E8D1BFF111312592E8C13FF5
:10578000F111312592E8D13FF111312592E8D1BFD5
:10579000F111312592E8E13F6D567DAEB662E6BF6C
:1057A000E99AC937DBDCDABFF111312592E8C1BFD4
:1057B000E99AC937DBDCDA3FF111312592E8D1BF34
:1057C000F111312592E8C1BFF111312592E8D1BF25
:1057D000F111312592E8C1BFF111312592E8D13F95
:1057E000F111312592E8C1BFE99AC937DBDCDA3F14
:1057F000E99AC937DBDCDA3FE99AC937DBDCDA3F03
:10580000F111312592E8C13FF111312592E8C13FF4
:10581000F111312592E8C1BFF111312592E8C13F64
:10582000F111312592E8D13F000000000000000096
:10583000F111312592E8C13FF111312592E8D13FB4
:10584000F111312592E8C13FE99AC937DBDCDA3F33
:10585000F111312592E8C13FF111312592E8C1BF24
:10586000F111312592E8C1BF0000000000000000E6
:10587000F111312592E8D1BFF111312592E8D13FE4
:10588000F111312592E8D13F000000000000000036
:10589000E99AC937DBDCEA3FF111312592E8C13FD3
:1058A000F111312592E8C1BFF111312592E8C13FD4
:1058B0000000000000000000F111312592E8C13F16
:1058C000F111312592E8E13FF111312592E8E1BF74
:1058D0006D567DAEB662E63FE99AC937DBDCDABFCA
:1058E000F111312592E8E13FF111312592E8D13FE4
:1058F000F111312592E8C13F6D567DAEB662E63FAB
:10590000E99AC937DBDCDABFE99AC937DBDCDA3F71
:105910000000000000000000E99AC937DBDCDA3F34
:10592000E99AC937DBDCDA3F6D567DAEB662E6BF79
:10593000F111312592E8E13FF111312592E8C1BF23
:10594000F111312592E8C13FE99AC937DBDCEA3F22
:10595000E99AC937DBDCDABFE99AC937DBDCDA3F21
:10596000F111312592E8C1BFE99AC937DBDCDA3F92
:105970006D567DAEB662E6BFF111312592E8D13F9A
:10598000F111312592E8D13FE99AC937DBDCEABF52
:1059900027BD6F7CED19FD3FCA89761552BE09C03F
:1059A000AB7823F3C89FF83FF111312592E8D1BFBE
:1059B00062D7F6764BD22CC02E573F36C99F18407F
:1059C0009301A08A1B0713C02F34D769A425F43F85
:1059D0007FBDC282FBF11640F111312592E8D1BFA3
:1059E000E316F37343F735C0E6EB32FCA79B324076
:1059F000511212691B0723C013F06B2409CA20C07F
:105A00009301A08A1B0713C02F34D769A425F43F44
:105A10002E573F36C99F28C0FC010F0C206C2BC0AD
:105A200046CEC29E76380E4046CEC29E76380EC016
:105A3000570A815CE2C827C03A24B55032A92D40EC
:105A4000487023658BFC24C078465B9544E62FC0E4
:105A5000B212F3ACA42514C0511212691B0723C063
:105A6000A7C98CB7955E30C0B212F3ACA42514C0A0
:105A70006C79E57ADBDC1AC0C956975302DE33C075
:105A80009ECE15A5841018C096986725AD4C40C0D1
:105A9000C289E8D7D6773240B5A9BA47366B41C03C
:105AA00081E84999D4F02D404D68925852BE194072
:105AB00065DF15C1FF56FFBFC289E8D7D67722C080
:105AC000AB7823F3C89F08C005A4FD0FB07629C0AA
:105AD000E99AC937DBDCEA3F6B9C4D4700570F4022
